{"abi":[{"type":"function","name":"DEFAULT_ADMIN_ROLE","inputs":[],"outputs":[{"name":"","type":"bytes32","internalType":"bytes32"}],"stateMutability":"view"},{"type":"function","name":"UPGRADE_INTERFACE_VERSION","inputs":[],"outputs":[{"name":"","type":"string","internalType":"string"}],"stateMutability":"view"},{"type":"function","name":"allowance","inputs":[{"name":"_owner","type":"address","internalType":"address"},{"name":"_spender","type":"address","internalType":"address"}],"outputs":[{"name":"","type":"uint256","internalType":"uint256"}],"stateMutability":"view"},{"type":"function","name":"approve","inputs":[{"name":"_spender","type":"address","internalType":"address"},{"name":"_amount","type":"uint256","internalType":"uint256"}],"outputs":[{"name":"","type":"bool","internalType":"bool"}],"stateMutability":"nonpayable"},{"type":"function","name":"assetId","inputs":[],"outputs":[{"name":"","type":"bytes32","internalType":"bytes32"}],"stateMutability":"view"},{"type":"function","name":"assetOwner","inputs":[],"outputs":[{"name":"","type":"address","internalType":"address"}],"stateMutability":"view"},{"type":"function","name":"balanceOf","inputs":[{"name":"_account","type":"address","internalType":"address"}],"outputs":[{"name":"","type":"uint256","internalType":"uint256"}],"stateMutability":"view"},{"type":"function","name":"batchBurn","inputs":[{"name":"_userAddresses","type":"address[]","internalType":"address[]"},{"name":"_amounts","type":"uint256[]","internalType":"uint256[]"}],"outputs":[],"stateMutability":"nonpayable"},{"type":"function","name":"batchForcedTransfer","inputs":[{"name":"_fromList","type":"address[]","internalType":"address[]"},{"name":"_toList","type":"address[]","internalType":"address[]"},{"name":"_amounts","type":"uint256[]","internalType":"uint256[]"}],"outputs":[],"stateMutability":"nonpayable"},{"type":"function","name":"batchFreezePartialTokens","inputs":[{"name":"_userAddresses","type":"address[]","internalType":"address[]"},{"name":"_amounts","type":"uint256[]","internalType":"uint256[]"}],"outputs":[],"stateMutability":"nonpayable"},{"type":"function","name":"batchMint","inputs":[{"name":"_toList","type":"address[]","internalType":"address[]"},{"name":"_amounts","type":"uint256[]","internalType":"uint256[]"}],"outputs":[],"stateMutability":"nonpayable"},{"type":"function","name":"batchSetAddressFrozen","inputs":[{"name":"_userAddresses","type":"address[]","internalType":"address[]"},{"name":"_freeze","type":"bool[]","internalType":"bool[]"}],"outputs":[],"stateMutability":"nonpayable"},{"type":"function","name":"batchTransfer","inputs":[{"name":"_toList","type":"address[]","internalType":"address[]"},{"name":"_amounts","type":"uint256[]","internalType":"uint256[]"}],"outputs":[],"stateMutability":"nonpayable"},{"type":"function","name":"batchUnfreezePartialTokens","inputs":[{"name":"_userAddresses","type":"address[]","internalType":"address[]"},{"name":"_amounts","type":"uint256[]","internalType":"uint256[]"}],"outputs":[],"stateMutability":"nonpayable"},{"type":"function","name":"burn","inputs":[{"name":"_userAddress","type":"address","internalType":"address"},{"name":"_amount","type":"uint256","internalType":"uint256"}],"outputs":[],"stateMutability":"nonpayable"},{"type":"function","name":"claimRegistry","inputs":[],"outputs":[{"name":"","type":"address","internalType":"contract IClaimRegistry"}],"stateMutability":"view"},{"type":"function","name":"compliance","inputs":[],"outputs":[{"name":"","type":"address","internalType":"contract ICompliance"}],"stateMutability":"view"},{"type":"function","name":"decimals","inputs":[],"outputs":[{"name":"","type":"uint8","internalType":"uint8"}],"stateMutability":"view"},{"type":"function","name":"decreaseAllowance","inputs":[{"name":"_spender","type":"address","internalType":"address"},{"name":"_subtractedValue","type":"uint256","internalType":"uint256"}],"outputs":[{"name":"","type":"bool","internalType":"bool"}],"stateMutability":"nonpayable"},{"type":"function","name":"forcedTransfer","inputs":[{"name":"_from","type":"address","internalType":"address"},{"name":"_to","type":"address","internalType":"address"},{"name":"_amount","type":"uint256","internalType":"uint256"}],"outputs":[{"name":"","type":"bool","internalType":"bool"}],"stateMutability":"nonpayable"},{"type":"function","name":"freezePartialTokens","inputs":[{"name":"_userAddress","type":"address","internalType":"address"},{"name":"_amount","type":"uint256","internalType":"uint256"}],"outputs":[],"stateMutability":"nonpayable"},{"type":"function","name":"getFrozenTokens","inputs":[{"name":"_userAddress","type":"address","internalType":"address"}],"outputs":[{"name":"","type":"uint256","internalType":"uint256"}],"stateMutability":"view"},{"type":"function","name":"getRoleAdmin","inputs":[{"name":"role","type":"bytes32","internalType":"bytes32"}],"outputs":[{"name":"","type":"bytes32","internalType":"bytes32"}],"stateMutability":"view"},{"type":"function","name":"getTokenPrice","inputs":[],"outputs":[{"name":"","type":"uint256","internalType":"uint256"}],"stateMutability":"view"},{"type":"function","name":"grantRole","inputs":[{"name":"role","type":"bytes32","internalType":"bytes32"},{"name":"account","type":"address","internalType":"address"}],"outputs":[],"stateMutability":"nonpayable"},{"type":"function","name":"hasRole","inputs":[{"name":"role","type":"bytes32","internalType":"bytes32"},{"name":"account","type":"address","internalType":"address"}],"outputs":[{"name":"","type":"bool","internalType":"bool"}],"stateMutability":"view"},{"type":"function","name":"identityRegistry","inputs":[],"outputs":[{"name":"","type":"address","internalType":"contract IIdentityRegistry"}],"stateMutability":"view"},{"type":"function","name":"increaseAllowance","inputs":[{"name":"_spender","type":"address","internalType":"address"},{"name":"_addedValue","type":"uint256","internalType":"uint256"}],"outputs":[{"name":"","type":"bool","internalType":"bool"}],"stateMutability":"nonpayable"},{"type":"function","name":"init","inputs":[{"name":"_identityRegistry","type":"address","internalType":"address"},{"name":"_compliance","type":"address","internalType":"address"},{"name":"_name","type":"string","internalType":"string"},{"name":"_symbol","type":"string","internalType":"string"},{"name":"_decimals","type":"uint8","internalType":"uint8"},{"name":"_maxSupply","type":"uint256","internalType":"uint256"},{"name":"_factory","type":"address","internalType":"address"},{"name":"_projectOwner","type":"address","internalType":"address"}],"outputs":[],"stateMutability":"nonpayable"},{"type":"function","name":"initialize","inputs":[{"name":"_name","type":"string","internalType":"string"},{"name":"_symbol","type":"string","internalType":"string"},{"name":"_decimals","type":"uint8","internalType":"uint8"},{"name":"_maxSupply","type":"uint256","internalType":"uint256"},{"name":"_identityRegistry","type":"address","internalType":"address"},{"name":"_compliance","type":"address","internalType":"address"},{"name":"_issuerRegistry","type":"address","internalType":"address"},{"name":"_claimRegistry","type":"address","internalType":"address"},{"name":"_assetOwner","type":"address","internalType":"address"},{"name":"_tokenPrice","type":"uint256","internalType":"uint256"}],"outputs":[],"stateMutability":"nonpayable"},{"type":"function","name":"isFrozen","inputs":[{"name":"_userAddress","type":"address","internalType":"address"}],"outputs":[{"name":"","type":"bool","internalType":"bool"}],"stateMutability":"view"},{"type":"function","name":"issuerRegistry","inputs":[],"outputs":[{"name":"","type":"address","internalType":"contract IClaimIssuerRegistry"}],"stateMutability":"view"},{"type":"function","name":"maxSupply","inputs":[],"outputs":[{"name":"","type":"uint256","internalType":"uint256"}],"stateMutability":"view"},{"type":"function","name":"mint","inputs":[{"name":"_to","type":"address","internalType":"address"},{"name":"_amount","type":"uint256","internalType":"uint256"}],"outputs":[],"stateMutability":"nonpayable"},{"type":"function","name":"name","inputs":[],"outputs":[{"name":"","type":"string","internalType":"string"}],"stateMutability":"view"},{"type":"function","name":"onchainID","inputs":[],"outputs":[{"name":"","type":"address","internalType":"address"}],"stateMutability":"view"},{"type":"function","name":"pause","inputs":[],"outputs":[],"stateMutability":"nonpayable"},{"type":"function","name":"paused","inputs":[],"outputs":[{"name":"","type":"bool","internalType":"bool"}],"stateMutability":"view"},{"type":"function","name":"proxiableUUID","inputs":[],"outputs":[{"name":"","type":"bytes32","internalType":"bytes32"}],"stateMutability":"view"},{"type":"function","name":"recoveryAddress","inputs":[{"name":"_lostWallet","type":"address","internalType":"address"},{"name":"_newWallet","type":"address","internalType":"address"},{"name":"_investorOnchainID","type":"address","internalType":"address"}],"outputs":[{"name":"","type":"bool","internalType":"bool"}],"stateMutability":"nonpayable"},{"type":"function","name":"renounceRole","inputs":[{"name":"role","type":"bytes32","internalType":"bytes32"},{"name":"callerConfirmation","type":"address","internalType":"address"}],"outputs":[],"stateMutability":"nonpayable"},{"type":"function","name":"revokeRole","inputs":[{"name":"role","type":"bytes32","internalType":"bytes32"},{"name":"account","type":"address","internalType":"address"}],"outputs":[],"stateMutability":"nonpayable"},{"type":"function","name":"setAddressFrozen","inputs":[{"name":"_userAddress","type":"address","internalType":"address"},{"name":"_freeze","type":"bool","internalType":"bool"}],"outputs":[],"stateMutability":"nonpayable"},{"type":"function","name":"setCompliance","inputs":[{"name":"_compliance","type":"address","internalType":"address"}],"outputs":[],"stateMutability":"nonpayable"},{"type":"function","name":"setIdentityRegistry","inputs":[{"name":"_identityRegistry","type":"address","internalType":"address"}],"outputs":[],"stateMutability":"nonpayable"},{"type":"function","name":"setName","inputs":[{"name":"_name","type":"string","internalType":"string"}],"outputs":[],"stateMutability":"nonpayable"},{"type":"function","name":"setOnchainID","inputs":[{"name":"_onchainID","type":"address","internalType":"address"}],"outputs":[],"stateMutability":"nonpayable"},{"type":"function","name":"setSymbol","inputs":[{"name":"_symbol","type":"string","internalType":"string"}],"outputs":[],"stateMutability":"nonpayable"},{"type":"function","name":"supportsInterface","inputs":[{"name":"interfaceId","type":"bytes4","internalType":"bytes4"}],"outputs":[{"name":"","type":"bool","internalType":"bool"}],"stateMutability":"view"},{"type":"function","name":"symbol","inputs":[],"outputs":[{"name":"","type":"string","internalType":"string"}],"stateMutability":"view"},{"type":"function","name":"tokenPrice","inputs":[],"outputs":[{"name":"","type":"uint256","internalType":"uint256"}],"stateMutability":"view"},{"type":"function","name":"totalSupply","inputs":[],"outputs":[{"name":"","type":"uint256","internalType":"uint256"}],"stateMutability":"view"},{"type":"function","name":"transfer","inputs":[{"name":"_to","type":"address","internalType":"address"},{"name":"_amount","type":"uint256","internalType":"uint256"}],"outputs":[{"name":"","type":"bool","internalType":"bool"}],"stateMutability":"nonpayable"},{"type":"function","name":"transferFrom","inputs":[{"name":"_from","type":"address","internalType":"address"},{"name":"_to","type":"address","internalType":"address"},{"name":"_amount","type":"uint256","internalType":"uint256"}],"outputs":[{"name":"","type":"bool","internalType":"bool"}],"stateMutability":"nonpayable"},{"type":"function","name":"unfreezePartialTokens","inputs":[{"name":"_userAddress","type":"address","internalType":"address"},{"name":"_amount","type":"uint256","internalType":"uint256"}],"outputs":[],"stateMutability":"nonpayable"},{"type":"function","name":"unpause","inputs":[],"outputs":[],"stateMutability":"nonpayable"},{"type":"function","name":"updateTokenPrice","inputs":[{"name":"_tokenPrice","type":"uint256","internalType":"uint256"}],"outputs":[],"stateMutability":"nonpayable"},{"type":"function","name":"upgradeToAndCall","inputs":[{"name":"newImplementation","type":"address","internalType":"address"},{"name":"data","type":"bytes","internalType":"bytes"}],"outputs":[],"stateMutability":"payable"},{"type":"function","name":"version","inputs":[],"outputs":[{"name":"","type":"string","internalType":"string"}],"stateMutability":"pure"},{"type":"event","name":"AddressFrozen","inputs":[{"name":"_userAddress","type":"address","indexed":true,"internalType":"address"},{"name":"_isFrozen","type":"bool","indexed":true,"internalType":"bool"},{"name":"_owner","type":"address","indexed":true,"internalType":"address"}],"anonymous":false},{"type":"event","name":"Approval","inputs":[{"name":"owner","type":"address","indexed":true,"internalType":"address"},{"name":"spender","type":"address","indexed":true,"internalType":"address"},{"name":"value","type":"uint256","indexed":false,"internalType":"uint256"}],"anonymous":false},{"type":"event","name":"ComplianceAdded","inputs":[{"name":"_compliance","type":"address","indexed":true,"internalType":"address"}],"anonymous":false},{"type":"event","name":"IdentityRegistryAdded","inputs":[{"name":"_identityRegistry","type":"address","indexed":true,"internalType":"address"}],"anonymous":false},{"type":"event","name":"Initialized","inputs":[{"name":"version","type":"uint64","indexed":false,"internalType":"uint64"}],"anonymous":false},{"type":"event","name":"Initialized","inputs":[{"name":"assetId","type":"bytes32","indexed":true,"internalType":"bytes32"},{"name":"assetOwner","type":"address","indexed":true,"internalType":"address"}],"anonymous":false},{"type":"event","name":"Paused","inputs":[{"name":"_userAddress","type":"address","indexed":false,"internalType":"address"}],"anonymous":false},{"type":"event","name":"RecoverySuccess","inputs":[{"name":"_lostWallet","type":"address","indexed":true,"internalType":"address"},{"name":"_newWallet","type":"address","indexed":true,"internalType":"address"},{"name":"_investorOnchainID","type":"address","indexed":true,"internalType":"address"}],"anonymous":false},{"type":"event","name":"RoleAdminChanged","inputs":[{"name":"role","type":"bytes32","indexed":true,"internalType":"bytes32"},{"name":"previousAdminRole","type":"bytes32","indexed":true,"internalType":"bytes32"},{"name":"newAdminRole","type":"bytes32","indexed":true,"internalType":"bytes32"}],"anonymous":false},{"type":"event","name":"RoleGranted","inputs":[{"name":"role","type":"bytes32","indexed":true,"internalType":"bytes32"},{"name":"account","type":"address","indexed":true,"internalType":"address"},{"name":"sender","type":"address","indexed":true,"internalType":"address"}],"anonymous":false},{"type":"event","name":"RoleRevoked","inputs":[{"name":"role","type":"bytes32","indexed":true,"internalType":"bytes32"},{"name":"account","type":"address","indexed":true,"internalType":"address"},{"name":"sender","type":"address","indexed":true,"internalType":"address"}],"anonymous":false},{"type":"event","name":"TokensFrozen","inputs":[{"name":"_userAddress","type":"address","indexed":true,"internalType":"address"},{"name":"_amount","type":"uint256","indexed":false,"internalType":"uint256"}],"anonymous":false},{"type":"event","name":"TokensUnfrozen","inputs":[{"name":"_userAddress","type":"address","indexed":true,"internalType":"address"},{"name":"_amount","type":"uint256","indexed":false,"internalType":"uint256"}],"anonymous":false},{"type":"event","name":"Transfer","inputs":[{"name":"from","type":"address","indexed":true,"internalType":"address"},{"name":"to","type":"address","indexed":true,"internalType":"address"},{"name":"value","type":"uint256","indexed":false,"internalType":"uint256"}],"anonymous":false},{"type":"event","name":"Unpaused","inputs":[{"name":"_userAddress","type":"address","indexed":false,"internalType":"address"}],"anonymous":false},{"type":"event","name":"UpdatedTokenInformation","inputs":[{"name":"_newName","type":"string","indexed":true,"internalType":"string"},{"name":"_newSymbol","type":"string","indexed":true,"internalType":"string"},{"name":"_newDecimals","type":"uint8","indexed":false,"internalType":"uint8"},{"name":"_newVersion","type":"string","indexed":false,"internalType":"string"},{"name":"_newOnchainID","type":"address","indexed":true,"internalType":"address"}],"anonymous":false},{"type":"event","name":"Upgraded","inputs":[{"name":"implementation","type":"address","indexed":true,"internalType":"address"}],"anonymous":false},{"type":"error","name":"AccessControlBadConfirmation","inputs":[]},{"type":"error","name":"AccessControlUnauthorizedAccount","inputs":[{"name":"account","type":"address","internalType":"address"},{"name":"neededRole","type":"bytes32","internalType":"bytes32"}]},{"type":"error","name":"AddressEmptyCode","inputs":[{"name":"target","type":"address","internalType":"address"}]},{"type":"error","name":"ERC1967InvalidImplementation","inputs":[{"name":"implementation","type":"address","internalType":"address"}]},{"type":"error","name":"ERC1967NonPayable","inputs":[]},{"type":"error","name":"FailedCall","inputs":[]},{"type":"error","name":"InvalidInitialization","inputs":[]},{"type":"error","name":"NotInitializing","inputs":[]},{"type":"error","name":"ReentrancyGuardReentrantCall","inputs":[]},{"type":"error","name":"UUPSUnauthorizedCallContext","inputs":[]},{"type":"error","name":"UUPSUnsupportedProxiableUUID","inputs":[{"name":"slot","type":"bytes32","internalType":"bytes32"}]}],"bytecode":{"object":"0x60a080604052346100345760ff196009541660095530608052614294908161003a8239608051818181611b990152611c520152f35b600080fdfe608080604052600436101561001357600080fd5b60003560e01c90816301ffc9a714612d025750806306fdde0314612c66578063095ea7b314612c31578063125c4a3314612b5d578063134e18f414612b30578063158b1a5714612af657806318160ddd14612ad85780631a7af37914612a335780631fe56f7d1461294e57806323b872dd1461242c578063248a9ca3146123f05780632f2ff15d146123a4578063313ce5671461238357806336568abe1461233c57806339509351146122f25780633d1ddc5b146122605780633f4ba83a1461221157806340c10f19146121d057806342a47abc1461212157806344de240a146121035780634710362d14611ff85780634a6cc67714611e755780634b94f50e146119f55780634f1ef28614611c0357806352d1902d14611b8657806354fd4d5014611b565780635c975abb14611b335780636290865d14611b0a578063676c0d7714611ae95780636857310714611a4d57806370a0823114611a135780637ff9b596146119f557806380295bd4146112165780638456cb59146111c457806388d695b2146111795780638bfc18511461115057806391d14854146110f65780639285948a146110ad57806395d89b4114610fdc5780639ac9940f14610fb35780639dc29fac14610dc35780639fc1d0e714610da2578063a217fddf14610d86578063a457c2d714610d2a578063a878e15614610d01578063a9059cbb14610cd0578063aba6370514610ca3578063ad3cb1cc14610c59578063b84c824614610b5b578063c47f0027146109d1578063c69c09cf1461094c578063cbf3f8611461092b578063d547741f146108df578063d5abeb01146108c1578063dd62ed3e14610870578063e21b496f14610424578063e5839836146103e5578063f8981789146103c25763fc7e5fa8146102a857600080fd5b346103bd576102b636612e25565b9160009391935b8181106102c657005b6102d96102d482848661304d565b613073565b6102e482868861304d565b35906102ee613b4d565b60018060a01b031690816000526020906000825260406000205460089081845261031d83604060002054613040565b1161037a57917fa065e63c631c86f1b9f66a4a2f63f2093bf1c2168d23290259dbd969e0222a459184936001969560005280835261036082604060002054613040565b90856000528352604060002055604051908152a2016102bd565b6064836040519062461bcd60e51b825280600483015260248201527f416d6f756e74206578636565647320617661696c61626c652062616c616e63656044820152fd5b600080fd5b346103bd5760203660031901126103bd576103e36103de612d9d565b613986565b005b346103bd5760203660031901126103bd576001600160a01b03610406612d9d565b166000526007602052602060ff604060002054166040519015158152f35b346103bd576101003660031901126103bd5761043e612d9d565b610446612db3565b6001600160401b03916044358381116103bd57610467903690600401612f60565b6064358481116103bd5761047f903690600401612f60565b936084359060ff82168092036103bd57610497612dc9565b506104a0612ddf565b926104a96140cc565b6001600160a01b0396858816151580610865575b156108205760405191602090818401828152846104dd6040820184612d78565b03946104f1601f1996878101835282612eed565b51902060405183810190848252600060408201526040815261051281612ed2565b5190201415806107c8575b61052690613829565b60128611610787576105366140cc565b8051908582116106f4576105548261054f600454612fc7565b613875565b8290601f83116001146107155761058492916000918361070a575b50508160011b916000199060031b1c19161790565b6004555b81519384116106f4576105a5846105a0600554612fc7565b6138d5565b8092601f8511600114610672575050926105e483610616946103de979461061c9a99976000926106675750508160011b916000199060031b1c19161790565b6005555b60ff19908160065416176006556009541660095560a435600355600060025561061081613dc0565b50613e60565b50613935565b600654906106286130cb565b9060008051602061423f83398151915260ff6106426130ec565b9261066261064e613177565b956040519384938960081c169816836131ea565b0390a4005b015190508b8061056f565b849392919316600560005260008051602061415f833981519152936000905b8282106106dc575050936103de969361061c999896936001938361061698106106c3575b505050811b016005556105e8565b015160001960f88460031b161c191690558a80806106b5565b80600186978294978701518155019601940190610691565b634e487b7160e01b600052604160045260246000fd5b015190508c8061056f565b908583169160046000526000805160206141df8339815191529260005b86828210610771575050908460019594939210610758575b505050811b01600455610588565b015160001960f88460031b161c191690558b808061074a565b6001859682939686015181550195019301610732565b60405162461bcd60e51b81526004810183905260196024820152780c8cac6d2dac2d8e640c4cae8eecacadc406040c2dcc840627603b1b6044820152606490fd5b50610526604051838101908482526107f3816107e76040820189612d78565b03888101835282612eed565b51902060405184810190858252600060408201526040815261081481612ed2565b5190201415905061051d565b60405162461bcd60e51b815260206004820152601f60248201527f696e76616c696420617267756d656e74202d207a65726f2061646472657373006044820152606490fd5b5087871615156104bd565b346103bd5760403660031901126103bd57610889612d9d565b610891612db3565b9060018060a01b038091166000526001602052604060002091166000526020526020604060002054604051908152f35b346103bd5760003660031901126103bd576020600354604051908152f35b346103bd5760403660031901126103bd576103e36004356108fe612db3565b90806000526000805160206141bf833981519152602052610926600160406000200154613c01565b613fa9565b346103bd5760203660031901126103bd576103e3610947612d9d565b613935565b346103bd5760403660031901126103bd57610965612d9d565b60243590811515908183036103bd576109a890610980613b4d565b60018060a01b03169283600052600760205260406000209060ff801983541691151516179055565b33917f7fa523c84ab8d7fc5b72f08b9e46dbbf10c39e119a075b3e317002d14bc9f436600080a4005b346103bd576109df36612f7e565b6109e7613b4d565b604051916020610a416020850185610a00868684613801565b0395610a14601f1997888101835282612eed565b5190206040516020810190602082526000604082015260408152610a3781612ed2565b5190201415613829565b6001600160401b0383116106f457610a5e8361054f600454612fc7565b600093601f8411600114610ae9575050610a90928291600092610ade5750508160011b916000199060031b1c19161790565b6004555b600654610a9f6130cb565b610aa76130ec565b60008051602061423f833981519152610662610ac1613177565b9360405191829160ff60018060a01b038960081c169816836131ea565b01359050838061056f565b83929192169360046000526000805160206141df833981519152926000905b868210610b435750508360019510610b29575b505050811b01600455610a94565b0135600019600384901b60f8161c19169055828080610b1b565b80600184968294958701358155019501920190610b08565b346103bd57610b6936612f7e565b610b71613b4d565b604051916020610b8a6020850185610a00868684613801565b6001600160401b0383116106f457610ba7836105a0600554612fc7565b600093601f8411600114610be7575050610bd9928291600092610ade5750508160011b916000199060031b1c19161790565b600555600654610a9f6130cb565b839291921693600560005260008051602061415f833981519152926000905b868210610c415750508360019510610c27575b505050811b01600555610a94565b0135600019600384901b60f8161c19169055828080610c19565b80600184968294958701358155019501920190610c06565b346103bd5760003660031901126103bd57610c9f604051610c7981612eb7565b60058152640352e302e360dc1b6020820152604051918291602083526020830190612d78565b0390f35b346103bd5760003660031901126103bd5760065460405160089190911c6001600160a01b03168152602090f35b346103bd5760403660031901126103bd576020610cf7610cee612d9d565b602435906137c8565b6040519015158152f35b346103bd5760003660031901126103bd57603f546040516001600160a01b039091168152602090f35b346103bd5760403660031901126103bd57610d7b610d46612d9d565b336000526001602052604060002060018060a01b038216600052602052610d74602435604060002054613087565b9033613a4b565b602060405160018152f35b346103bd5760003660031901126103bd57602060405160008152f35b346103bd576020610cf7610db536612e6f565b91610dbe613b4d565b6135cb565b346103bd5760403660031901126103bd57610ddc612d9d565b60243590610de8613b4d565b60018060a01b0380911690816000526020600081528360406000205410610f6f57826000526000815282610e2b6040600020546008845260406000205490613087565b82818711610f22575b505015610ed4578260008051602061419f833981519152600092828452838152610e62876040862054613087565b8385528482526040852055610e7987600254613087565b600255604051878152a3600a541691823b156103bd57604460009283604051958694859363469753b960e11b8552600485015260248401525af18015610ec857610ebf57005b6103e390612ea4565b6040513d6000823e3d90fd5b6084906040519062461bcd60e51b82526004820152602160248201527f45524332303a206275726e2066726f6d20746865207a65726f206164647265736044820152607360f81b6064820152fd5b610f3b60008051602061417f8339815191529288613087565b8360005260088252610f5281604060002054613087565b8460005260088352604060002055604051908152a2828582610e34565b6064906040519062461bcd60e51b82526004820152601d60248201527f63616e6e6f74206275726e206d6f7265207468616e2062616c616e63650000006044820152fd5b346103bd5760003660031901126103bd57603d546040516001600160a01b039091168152602090f35b346103bd5760003660031901126103bd57604051600554600082610fff83612fc7565b918282526020936001908560018216918260001461108d575050600114611042575b5061102e92500383612eed565b610c9f604051928284938452830190612d78565b849150600560005260008051602061415f833981519152906000915b85831061107557505061102e935082010185611021565b8054838901850152879450869390920191810161105e565b60ff19168582015261102e95151560051b85010192508791506110219050565b346103bd5760603660031901126103bd576110c6612d9d565b6110ce612db3565b906044356001600160a01b03811681036103bd57602092610cf7926110f1613b4d565b613204565b346103bd5760403660031901126103bd5761110f612db3565b6004356000526000805160206141bf83398151915260205260406000209060018060a01b0316600052602052602060ff604060002054166040519015158152f35b346103bd5760003660031901126103bd57603e546040516001600160a01b039091168152602090f35b346103bd5761118736612e25565b9060009392935b84811061119757005b806111bd6111ab6102d4600194898961304d565b6111b683878761304d565b35906137c8565b500161118e565b346103bd5760003660031901126103bd576111dd613bc7565b600160ff1960095416176009557f62e78cea01bee320cd4e420270b5ea74000d11b0c9f74754ebdbfc544b05a2586020604051338152a1005b346103bd576101403660031901126103bd576004356001600160401b0381116103bd57611247903690600401612f60565b6024356001600160401b0381116103bd57611266903690600401612f60565b906044359060ff821682036103bd576084356001600160a01b03811690036103bd5760a4356001600160a01b03811690036103bd576112a3612dc9565b916112ac612ddf565b90610104356001600160a01b03811690036103bd5760008051602061421f83398151915254946001600160401b03861615806119e7575b60016001600160401b0388161490816119dd575b1590816119d4575b506119c25760016001600160401b031987161760008051602061421f8339815191525560ff8660401c1615611995575b610104356001600160a01b031615611963576084356001600160a01b0316158061192e5760a4356001600160a01b0316156118f75761136c6140cc565b6113746140cc565b61137c6140cc565b6113846140cc565b60016000805160206141ff8339815191525561139e6140cc565b15806118e3575b15610820576040516020810190602082526113d5816113c76040820189612d78565b03601f198101835282612eed565b51902060405160208101906020825260006040820152604081526113f881612ed2565b519020141580611893575b61140c90613829565b601260ff8316116118525761141f6140cc565b83516001600160401b0381116106f45761143e8161054f600454612fc7565b6020601f82116001146117e057908061146d926000916117d5575b508160011b916000199060031b1c19161790565b6004555b8051906001600160401b0382116106f457611491826105a0600554612fc7565b602090601f831160011461175d576114c19291600091836117525750508160011b916000199060031b1c19161790565b6005555b60ff801991168160065416176006556009541660095560643560035560006002556114f261010435613dc0565b506114ff61010435613e60565b5061150b608435613935565b61151660a435613986565b6006546115216130cb565b6115296130ec565b60008051602061423f833981519152611543610ac1613177565b0390a46001600160601b0360a01b9060018060a01b03610104351682603d5416179384603d5560018060a01b031682603e541617603e5560018060a01b031690603f541617603f556101243560405560001943019143831161173c5760546115e99160405193849160208301964087526001600160601b03199060601b1660408301526115d98151809260208686019101612d55565b8101036034810184520182612eed565b519020603c55611604610104356001600160a01b0316613dc0565b5060643515611702576002546116cd57603d5461162d90606435906001600160a01b031661402c565b603c54603d546040519260ff9290916001600160a01b0316907f6f7d8d6693f8589e3b58492fecf9412fd4ca7eed20070e5fe5641beb1204345e600080a360401c161561167657005b60207fc7f505b2f371ae2175ee4913f4499e1f2633a7b5936321eed1cdaeb6115181d29168ff00000000000000001960008051602061421f833981519152541660008051602061421f8339815191525560018152a1005b60405162461bcd60e51b815260206004820152600d60248201526c537570706c792065786973747360981b6044820152606490fd5b60405162461bcd60e51b8152602060048201526012602482015271496e76616c6964206d617820737570706c7960701b6044820152606490fd5b634e487b7160e01b600052601160045260246000fd5b01519050888061056f565b9190600560005260008051602061415f833981519152906000935b601f19841685106117ba576001945083601f198116106117a1575b505050811b016005556114c5565b015160001960f88460031b161c19169055878080611793565b81810151835560209485019460019093019290910190611778565b905086015189611459565b9060046000526000805160206141df8339815191526000925b601f198316841061183a576001935082601f19811610611821575b5050811b01600455611471565b87015160001960f88460031b161c191690558880611814565b878101518255602093840193600190920191016117f9565b60405162461bcd60e51b81526020600482015260196024820152780c8cac6d2dac2d8e640c4cae8eecacadc406040c2dcc840627603b1b6044820152606490fd5b5061140c6040516020810190602082526118b4816113c76040820187612d78565b51902060405160208101906020825260006040820152604081526118d781612ed2565b51902014159050611403565b5060a4356001600160a01b031615156113a5565b60405162461bcd60e51b815260206004820152600f60248201526e5a65726f20636f6d706c69616e636560881b6044820152606490fd5b60405162461bcd60e51b815260206004820152600d60248201526c5a65726f206964656e7469747960981b6044820152606490fd5b60405162461bcd60e51b815260206004820152600a6024820152692d32b9379037bbb732b960b11b6044820152606490fd5b68ffffffffffffffffff198616680100000000000000011760008051602061421f8339815191525561132f565b60405163f92ee8a960e01b8152600490fd5b905015876112ff565b303b1591506112f7565b5060ff8660401c16156112e3565b346103bd5760003660031901126103bd576020604054604051908152f35b346103bd5760203660031901126103bd576001600160a01b03611a34612d9d565b1660005260006020526020604060002054604051908152f35b346103bd57611a5b36612e25565b9160009391935b818110611a6b57005b611a796102d482848661304d565b90611a8581868861304d565b3591611a8f613b4d565b611a9b83600254613040565b60035410611ab557600192611aaf9161402c565b01611a62565b60405162461bcd60e51b815260206004820152600c60248201526b10d85c08195e18d95959195960a21b6044820152606490fd5b346103bd5760203660031901126103bd57611b02613bc7565b600435604055005b346103bd5760003660031901126103bd57600a546040516001600160a01b039091168152602090f35b346103bd5760003660031901126103bd57602060ff600954166040519015158152f35b346103bd5760003660031901126103bd57610c9f611b726130cb565b604051918291602083526020830190612d78565b346103bd5760003660031901126103bd577f00000000000000000000000000000000000000000000000000000000000000006001600160a01b03163003611bf15760206040517f360894a13ba1a3210667c828492db98dca3e2076cc3735a920a3ca505d382bbc8152f35b60405163703e46dd60e11b8152600490fd5b60403660031901126103bd57611c17612d9d565b60249081356001600160401b0381116103bd57366023820112156103bd57611c489036908481600401359101612f29565b6001600160a01b037f00000000000000000000000000000000000000000000000000000000000000008116308114908115611e47575b50611bf157611c8b613bc7565b8216918215611e03576040516352d1902d60e01b8152602091908281600481885afa60009181611dd4575b50611cd357604051634c9c8ce360e01b8152600481018690528690fd5b8490867f360894a13ba1a3210667c828492db98dca3e2076cc3735a920a3ca505d382bbc91828103611dbf5750833b15611da9575080546001600160a01b03191682179055604051907fbc7cd75a20ee27fd9adebab32041f755214dbc6bffa90cc0225b39da2e5c2d3b600080a2835115611d8f575060008084846103e396519101845af4903d15611d86573d611d6981612f0e565b90611d776040519283612eed565b8152600081943d92013e6140fb565b606092506140fb565b9250505034611d9a57005b63b398979f60e01b8152600490fd5b604051634c9c8ce360e01b815260048101849052fd5b60405190632a87526960e21b82526004820152fd5b9091508381813d8311611dfc575b611dec8183612eed565b810103126103bd57519087611cb6565b503d611de2565b60405162461bcd60e51b815260206004820152601b818601527f5350563a20696e76616c696420696d706c656d656e746174696f6e00000000006044820152606490fd5b9050817f360894a13ba1a3210667c828492db98dca3e2076cc3735a920a3ca505d382bbc5416141585611c7e565b346103bd57611e8336612e25565b9160009391935b818110611e9357005b611ea16102d482848661304d565b90611ead81868861304d565b3591611eb7613b4d565b60018060a01b0380911690816000526020600081528460406000205410610f6f5782600052600081528260406000205482611efd60089283835260406000205490613087565b91828911611fab575b50505015610ed4578260008051602061419f833981519152600092828452838152611f35886040862054613087565b83855284825260408520556002611f4d898254613087565b9055604051888152a3600a541692833b156103bd57604460009283604051968794859363469753b960e11b8552600485015260248401525af1918215610ec857600192611f9c575b5001611e8a565b611fa590612ea4565b86611f95565b611fc460008051602061417f833981519152938a613087565b9084600052808352611fdb82604060002054613087565b90856000528352604060002055604051908152a2828a8281611f06565b346103bd5761200636612e25565b9160009391935b81811061201657005b6120246102d482848661304d565b61202f82868861304d565b3590612039613b4d565b60018060a01b0316908160005260089060209180835281604060002054106120a1579160008051602061417f8339815191529184936001969560005280835261208782604060002054613087565b90856000528352604060002055604051908152a20161200d565b60405162461bcd60e51b815260048101849052603460248201527f416d6f756e742073686f756c64206265206c657373207468616e206f7220657160448201527375616c20746f2066726f7a656e20746f6b656e7360601b6064820152608490fd5b346103bd5760003660031901126103bd576020603c54604051908152f35b346103bd5760603660031901126103bd576001600160401b036004358181116103bd57612152903690600401612df5565b90916024358181116103bd5761216c903690600401612df5565b916044359081116103bd57612185903690600401612df5565b9460005b85811061219257005b806121c96121a66102d46001948a8761304d565b6121b46102d4848a8a61304d565b6121bf848c8961304d565b3591610dbe613b4d565b5001612189565b346103bd5760403660031901126103bd576121e9612d9d565b6024356121f4613b4d565b61220081600254613040565b60035410611ab5576103e39161402c565b346103bd5760003660031901126103bd5761222a613bc7565b60ff19600954166009557f5db9ee0a495bf2e6ff9c91a7834c1ba4fdd244a5e8aa4e537bd38aeae4b073aa6020604051338152a1005b346103bd5760203660031901126103bd57612279612d9d565b612281613b4d565b60068054610100600160a81b0319811660089390931b610100600160a81b031692909217908190556122b16130cb565b9060008051602061423f83398151915260ff6122cb6130ec565b926106626122d7613177565b9560405193849360018060a01b039060081c169816836131ea565b346103bd5760403660031901126103bd57610d7b61230e612d9d565b336000526001602052604060002060018060a01b038216600052602052610d74602435604060002054613040565b346103bd5760403660031901126103bd57612355612db3565b336001600160a01b03821603612371576103e390600435613fa9565b60405163334bd91960e11b8152600490fd5b346103bd5760003660031901126103bd57602060ff60065416604051908152f35b346103bd5760403660031901126103bd576103e36004356123c3612db3565b90806000526000805160206141bf8339815191526020526123eb600160406000200154613c01565b613f22565b346103bd5760203660031901126103bd576004356000526000805160206141bf8339815191526020526020600160406000200154604051908152f35b346103bd5761243a36612e6f565b9161244a60ff6009541615613001565b612452613c34565b6040516304d3863d60e21b80825260209491908582600481305afa918215610ec85760009261292f575b5060018060a01b0391829160405163b9209e3360e01b908181528981868a1695866004830152816024988992165afa908115610ec857600091612912575b50156128d8576040519182528882600481305afa8015610ec857848a9287946000936128b9575b5060405194859384928352818d166004840152165afa908115610ec85760009161289c575b501561285f5760448784603f541660405192838092630b54f5b360e41b82528660048301526001888301525afa908115610ec857600091612842575b50806127ef575b156127bb57604051636290865d60e01b80825292908881600481305afa8015610ec857868a916125ba9360009161279e575b506040516372331c7360e11b81526001600160a01b03808c1660048301528c166024820152604481019290925290928391908290899082906064820190565b0392165afa908115610ec857600091612771575b5015612735573382036126ab575b50506125e9838686613c64565b6040519081528581600481305afa908115610ec85760009161267e575b5016803b156103bd576040516322ebca6d60e21b81526001600160a01b03938416600482015293909216602484015260448301526000908290606490829084905af18015610ec85761266f575b5060016000805160206141ff8339815191525560405160018152f35b61267890612ea4565b81612653565b61269e9150863d88116126a4575b6126968183612eed565b810190613094565b86612606565b503d61268c565b8160005260018852604060002033600052885284604060002054106126fd57506000526001865260406000203360005286526126f66126ef84604060002054613087565b3386613a4b565b86806125dc565b8760126064926040519262461bcd60e51b8452600484015282015271105b1b1bddd85b98d948195e18d95959195960721b6044820152fd5b8760166064926040519262461bcd60e51b8452600484015282015275151c985b9cd9995c881b9bdd0818dbdb5c1b1a585b9d60521b6044820152fd5b6127919150893d8b11612797575b6127898183612eed565b8101906130b3565b896125ce565b503d61277f565b6127b59150833d85116126a4576126968183612eed565b8c61257b565b60405162461bcd60e51b815260048101889052600d818401526c4d697373696e6720636c61696d60981b6044820152606490fd5b50818784603e541660405192838092633bcbb46960e21b82523360048301525afa908115610ec857600091612825575b50612549565b61283c9150883d8a11612797576127898183612eed565b8861281f565b6128599150883d8a11612797576127898183612eed565b88612542565b60405162461bcd60e51b81526004810188905260168184015275149958da5c1a595b9d081b9bdd081d995c9a599a595960521b6044820152606490fd5b6128b39150883d8a11612797576127898183612eed565b88612506565b6128d1919350843d86116126a4576126968183612eed565b918c6124e1565b60405162461bcd60e51b8152600481018a90526013818601527214d95b99195c881b9bdd081d995c9a599a5959606a1b6044820152606490fd5b61292991508a3d8c11612797576127898183612eed565b8a6124ba565b612947919250863d88116126a4576126968183612eed565b908661247c565b346103bd5760403660031901126103bd57612967612d9d565b60243590612973613b4d565b60018060a01b03169081600052600860205280604060002054106129d157602060008051602061417f8339815191529183600052600882526129ba81604060002054613087565b8460005260088352604060002055604051908152a2005b60405162461bcd60e51b815260206004820152603460248201527f416d6f756e742073686f756c64206265206c657373207468616e206f7220657160448201527375616c20746f2066726f7a656e20746f6b656e7360601b6064820152608490fd5b346103bd57612a4136612e25565b9160009391935b818110612a5157005b612a5f6102d482848661304d565b90612a6b81868861304d565b358015158082036103bd57612aab600194612a84613b4d565b858060a01b03169283600052600760205260406000209060ff801983541691151516179055565b33917f7fa523c84ab8d7fc5b72f08b9e46dbbf10c39e119a075b3e317002d14bc9f436600080a401612a48565b346103bd5760003660031901126103bd576020600254604051908152f35b346103bd5760203660031901126103bd576001600160a01b03612b17612d9d565b1660005260086020526020604060002054604051908152f35b346103bd5760003660031901126103bd5760095460405160089190911c6001600160a01b03168152602090f35b346103bd5760403660031901126103bd57612b76612d9d565b60243590612b82613b4d565b60018060a01b031690816000526020906000825260406000205460088352612baf82604060002054613040565b11612bee57907fa065e63c631c86f1b9f66a4a2f63f2093bf1c2168d23290259dbd969e0222a459183600052600882526129ba81604060002054613040565b6064826040519062461bcd60e51b825280600483015260248201527f416d6f756e74206578636565647320617661696c61626c652062616c616e63656044820152fd5b346103bd5760403660031901126103bd57610d7b612c4d612d9d565b612c5c60ff6009541615613001565b6024359033613a4b565b346103bd5760003660031901126103bd57604051600454600082612c8983612fc7565b918282526020936001908560018216918260001461108d575050600114612cb7575061102e92500383612eed565b84915060046000526000805160206141df833981519152906000915b858310612cea57505061102e935082010185611021565b80548389018501528794508693909201918101612cd3565b346103bd5760203660031901126103bd576004359063ffffffff60e01b82168092036103bd57602091637965db0b60e01b8114908115612d44575b5015158152f35b6301ffc9a760e01b14905083612d3d565b60005b838110612d685750506000910152565b8181015183820152602001612d58565b90602091612d9181518092818552858086019101612d55565b601f01601f1916010190565b600435906001600160a01b03821682036103bd57565b602435906001600160a01b03821682036103bd57565b60c435906001600160a01b03821682036103bd57565b60e435906001600160a01b03821682036103bd57565b9181601f840112156103bd578235916001600160401b0383116103bd576020808501948460051b0101116103bd57565b60406003198201126103bd576001600160401b03916004358381116103bd5782612e5191600401612df5565b939093926024359182116103bd57612e6b91600401612df5565b9091565b60609060031901126103bd576001600160a01b039060043582811681036103bd579160243590811681036103bd579060443590565b6001600160401b0381116106f457604052565b604081019081106001600160401b038211176106f457604052565b606081019081106001600160401b038211176106f457604052565b90601f801991011681019081106001600160401b038211176106f457604052565b6001600160401b0381116106f457601f01601f191660200190565b929192612f3582612f0e565b91612f436040519384612eed565b8294818452818301116103bd578281602093846000960137010152565b9080601f830112156103bd57816020612f7b93359101612f29565b90565b9060206003198301126103bd576004356001600160401b03928382116103bd57806023830112156103bd5781600401359384116103bd57602484830101116103bd576024019190565b90600182811c92168015612ff7575b6020831014612fe157565b634e487b7160e01b600052602260045260246000fd5b91607f1691612fd6565b1561300857565b60405162461bcd60e51b815260206004820152601060248201526f14185d5cd8589b194e881c185d5cd95960821b6044820152606490fd5b9190820180921161173c57565b919081101561305d5760051b0190565b634e487b7160e01b600052603260045260246000fd5b356001600160a01b03811681036103bd5790565b9190820391821161173c57565b908160209103126103bd57516001600160a01b03811681036103bd5790565b908160209103126103bd575180151581036103bd5790565b604051906130d882612eb7565b60058252640312e302e360dc1b6020830152565b6040518060006004546130fe81612fc7565b90600190818116908115613160575060011461311d575b505003902090565b600460009081529192506000805160206141df8339815191525b83831061314a5750505081013880613115565b8054868401528594506020909201918101613137565b60ff19168552505080151502820190503880613115565b60405180600060055461318981612fc7565b9060019081811690811561316057506001146131a757505003902090565b6005600090815291925060008051602061415f8339815191525b8383106131d45750505081013880613115565b80548684015285945060209092019181016131c1565b60409060ff612f7b94931681528160208201520190612d78565b9192909260009160018060a01b039283851693848252602094828652604094858420541561359057821692855192878401818b169485825289815261324881612eb7565b5190209987519963d202158d60e01b8b5260049b8c8c015260249a60018c8201528a816044818b5afa908115613586578591613569575b506132be57885162461bcd60e51b8152808d018b90526015818d0152745265636f76657279206e6f7420706f737369626c6560581b6044820152606490fd5b8484989c979b9599969a9293945287825285882054600893848452878a20549286600954871c168951637e42683b60e01b81528d8c82015286818b81855afa90811561355f578d91613527575b50813b15613523578f8f908d8f8d958f829660649561ffff9251998a98899763022a501f60e51b89528801528601521660448401525af1801561351957613500575b509061335c9291610dbe613b4d565b508061344c575b5087875260078152600160ff8689205416151514613401575b50600954901c1692833b156133fd5784918691838551968794859363a8d29d1d60e01b85528401525af19081156133f457506133dd575b50807ff0c9129a94f30f1caaceb63e44b9811d0a3edf1d6c23757f346093af5553fed091a4600190565b6133e78291612ea4565b6133f157386133b3565b80fd5b513d84823e3d90fd5b8480fd5b60079061340c613b4d565b89885252838620600160ff19825416179055336001897f7fa523c84ab8d7fc5b72f08b9e46dbbf10c39e119a075b3e317002d14bc9f4368980a43861337c565b613454613b4d565b8988528782528588205483835261346e82888b2054613040565b116134c0577fa065e63c631c86f1b9f66a4a2f63f2093bf1c2168d23290259dbd969e0222a45828b92838b528582526134aa818a8d2054613040565b848c52868352898c20558851908152a238613363565b6064878387818a519362461bcd60e51b85528401528201527f416d6f756e74206578636565647320617661696c61626c652062616c616e63656044820152fd5b9a61351061335c9493929c612ea4565b9a90919261334d565b8a513d8e823e3d90fd5b8c80fd5b90508681813d8311613558575b61353e8183612eed565b81010312613523575161ffff81168103613523573861330b565b503d613534565b8b513d8f823e3d90fd5b61358091508b3d8d11612797576127898183612eed565b3861327f565b8a513d87823e3d90fd5b855162461bcd60e51b81526004810188905260146024820152733737903a37b5b2b739903a37903932b1b7bb32b960611b6044820152606490fd5b909260018060a01b03928383169260009584875260209587875260409584878a20541061378b5780895288885288888861361081842054600884528285205490613087565b808911613742575b50509050602491508260095460081c1688519283809263b9209e3360e01b825286881660048301525afa90811561373857899161371b575b5061369157855162461bcd60e51b81526004810188905260156024820152745472616e73666572206e6f7420706f737369626c6560581b6044820152606490fd5b9091929395506136a2848385613c64565b600a541691823b156137175784516322ebca6d60e21b81526001600160a01b0391821660048201529116602482015260448101929092529293909281908490606490829084905af191821561370d5750506136fe575b50600190565b61370790612ea4565b386136f8565b51903d90823e3d90fd5b8680fd5b6137329150883d8a11612797576127898183612eed565b38613650565b87513d8b823e3d90fd5b60008051602061417f8339815191529361375f613770928b613087565b928187859352600886522054613087565b848d52600883528a8d20558951908152a23888888883613618565b865162461bcd60e51b815260048101899052601660248201527573656e6465722062616c616e636520746f6f206c6f7760501b6044820152606490fd5b906137ea916137dc60ff6009541615613001565b6137e4613c34565b33613c64565b60016000805160206141ff83398151915255600190565b90918060409360208452816020850152848401376000828201840152601f01601f1916010190565b1561383057565b60405162461bcd60e51b815260206004820152601f60248201527f696e76616c696420617267756d656e74202d20656d70747920737472696e67006044820152606490fd5b601f8111613881575050565b60009060046000526000805160206141df833981519152906020601f850160051c830194106138cb575b601f0160051c01915b8281106138c057505050565b8181556001016138b4565b90925082906138ab565b601f81116138e1575050565b600090600560005260008051602061415f833981519152906020601f850160051c8301941061392b575b601f0160051c01915b82811061392057505050565b818155600101613914565b909250829061390b565b60098054610100600160a81b031916600883901b610100600160a81b03161790556001600160a01b03167fd2be862d755bca7e0d39772b2cab3a5578da9c285f69199f4c063c2294a7f36c600080a2565b600a546000906001600160a01b03908116806139db575b507f7f3a888862559648ec01d97deb7b5012bff86dc91e654a1de397170db40e35b691921691826001600160601b0360a01b600a541617600a5580a2565b803b15613a475782809160246040518094819363040db3b560e41b83523060048401525af18015613a3c571561399d5791613a367f7f3a888862559648ec01d97deb7b5012bff86dc91e654a1de397170db40e35b693612ea4565b9161399d565b6040513d85823e3d90fd5b8280fd5b6001600160a01b03908116918215613afc5716918215613aac5760207f8c5be1e5ebec7d5bd14f71427d1e84f3dd0314c0f7b2291e5b200ac8c7c3b925918360005260018252604060002085600052825280604060002055604051908152a3565b60405162461bcd60e51b815260206004820152602260248201527f45524332303a20617070726f766520746f20746865207a65726f206164647265604482015261737360f01b6064820152608490fd5b60405162461bcd60e51b8152602060048201526024808201527f45524332303a20617070726f76652066726f6d20746865207a65726f206164646044820152637265737360e01b6064820152608490fd5b3360009081527fb16e88c42fd4e48df2dd6a2eabd6bc9aec654ec170056b470819f8892cc6431c60205260409020547fa49807205ce4d355092ef5a8a18f56e8913cf4a201fbe287825b095693c217759060ff1615613ba95750565b6044906040519063e2517d3f60e01b82523360048301526024820152fd5b3360009081527fb7db2dd08fcb62d0c9e08c51941cae53c267786a0b75803fb7960902fc8ef97d602052604081205460ff1615613ba95750565b806000526000805160206141bf83398151915260205260406000203360005260205260ff6040600020541615613ba95750565b6000805160206141ff8339815191526002815414613c525760029055565b604051633ee5aeb560e01b8152600490fd5b6001600160a01b03908116918215613d6d5716918215613d1c57600082815280602052604081205491808310613cc8576040828260008051602061419f833981519152958760209652828652038282205586815220818154019055604051908152a3565b60405162461bcd60e51b815260206004820152602660248201527f45524332303a207472616e7366657220616d6f756e7420657863656564732062604482015265616c616e636560d01b6064820152608490fd5b60405162461bcd60e51b815260206004820152602360248201527f45524332303a207472616e7366657220746f20746865207a65726f206164647260448201526265737360e81b6064820152608490fd5b60405162461bcd60e51b815260206004820152602560248201527f45524332303a207472616e736665722066726f6d20746865207a65726f206164604482015264647265737360d81b6064820152608490fd5b6001600160a01b031660008181527fb7db2dd08fcb62d0c9e08c51941cae53c267786a0b75803fb7960902fc8ef97d60205260408120549091906000805160206141bf8339815191529060ff16613e5b578280526020526040822081835260205260408220600160ff1982541617905533917f2f8788117e7eff1d82e926ec794901d17c78024a50270940304540a733656f0d8180a4600190565b505090565b6001600160a01b031660008181527fb16e88c42fd4e48df2dd6a2eabd6bc9aec654ec170056b470819f8892cc6431c60205260408120549091907fa49807205ce4d355092ef5a8a18f56e8913cf4a201fbe287825b095693c21775906000805160206141bf8339815191529060ff16613f1c578184526020526040832082845260205260408320600160ff198254161790557f2f8788117e7eff1d82e926ec794901d17c78024a50270940304540a733656f0d339380a4600190565b50505090565b906000918083526000805160206141bf83398151915280602052604084209260018060a01b03169283855260205260ff60408520541615600014613f1c578184526020526040832082845260205260408320600160ff198254161790557f2f8788117e7eff1d82e926ec794901d17c78024a50270940304540a733656f0d339380a4600190565b906000918083526000805160206141bf83398151915280602052604084209260018060a01b03169283855260205260ff604085205416600014613f1c57818452602052604083208284526020526040832060ff1981541690557ff6391f5c32d9c69d2a47ea670b442974b53935d1edc7fd64eb21e047a839171b339380a4600190565b6001600160a01b03169081156140875761404881600254613040565b60025560008051602061419f8339815191526020600092848452838252614073816040862054613040565b8585528483526040852055604051908152a3565b60405162461bcd60e51b815260206004820152601f60248201527f45524332303a206d696e7420746f20746865207a65726f2061646472657373006044820152606490fd5b60ff60008051602061421f8339815191525460401c16156140e957565b604051631afcd79f60e31b8152600490fd5b90614122575080511561411057602081519101fd5b60405163d6bda27560e01b8152600490fd5b81511580614155575b614133575090565b604051639996b31560e01b81526001600160a01b039091166004820152602490fd5b50803b1561412b56fe036b6384b5eca791c62761152d0c79bb0604c104a5fb6f4eb0703f3154bb3db09bed35cb62ad0dba04f9d5bfee4b5bc91443e77da8a65c4c84834c51bb08b0d6ddf252ad1be2c89b69c2b068fc378daa952ba7f163c4a11628f55a4df523b3ef02dd7bc7dec4dceedda775e58dd541e08a116c6c53815c0bd028192f7b6268008a35acfbc15ff81a39ae7d344fd709f28e8600b4aa8c65c6b64bfe7fe36bd19b9b779b17422d0df92223018b32b4d1fa46e071723d6817e2486d003becc55f00f0c57e16840df040f15088dc2f81fe391c3923bec73e23a9662efc9c229c6a006a1105ac8148a3c319adbc369f9072573e8a11d3a3d195e067e7c40767ec54d1a264697066735822122003ac6c71b58ae9f32a4c446781cc2eb43a42599a470cce2df8a7ea8225dd5f5b64736f6c63430008180033","linkReferences":{}},"methodIdentifiers":{"DEFAULT_ADMIN_ROLE()":"a217fddf","UPGRADE_INTERFACE_VERSION()":"ad3cb1cc","allowance(address,address)":"dd62ed3e","approve(address,uint256)":"095ea7b3","assetId()":"44de240a","assetOwner()":"9ac9940f","balanceOf(address)":"70a08231","batchBurn(address[],uint256[])":"4a6cc677","batchForcedTransfer(address[],address[],uint256[])":"42a47abc","batchFreezePartialTokens(address[],uint256[])":"fc7e5fa8","batchMint(address[],uint256[])":"68573107","batchSetAddressFrozen(address[],bool[])":"1a7af379","batchTransfer(address[],uint256[])":"88d695b2","batchUnfreezePartialTokens(address[],uint256[])":"4710362d","burn(address,uint256)":"9dc29fac","claimRegistry()":"a878e156","compliance()":"6290865d","decimals()":"313ce567","decreaseAllowance(address,uint256)":"a457c2d7","forcedTransfer(address,address,uint256)":"9fc1d0e7","freezePartialTokens(address,uint256)":"125c4a33","getFrozenTokens(address)":"158b1a57","getRoleAdmin(bytes32)":"248a9ca3","getTokenPrice()":"4b94f50e","grantRole(bytes32,address)":"2f2ff15d","hasRole(bytes32,address)":"91d14854","identityRegistry()":"134e18f4","increaseAllowance(address,uint256)":"39509351","init(address,address,string,string,uint8,uint256,address,address)":"e21b496f","initialize(string,string,uint8,uint256,address,address,address,address,address,uint256)":"80295bd4","isFrozen(address)":"e5839836","issuerRegistry()":"8bfc1851","maxSupply()":"d5abeb01","mint(address,uint256)":"40c10f19","name()":"06fdde03","onchainID()":"aba63705","pause()":"8456cb59","paused()":"5c975abb","proxiableUUID()":"52d1902d","recoveryAddress(address,address,address)":"9285948a","renounceRole(bytes32,address)":"36568abe","revokeRole(bytes32,address)":"d547741f","setAddressFrozen(address,bool)":"c69c09cf","setCompliance(address)":"f8981789","setIdentityRegistry(address)":"cbf3f861","setName(string)":"c47f0027","setOnchainID(address)":"3d1ddc5b","setSymbol(string)":"b84c8246","supportsInterface(bytes4)":"01ffc9a7","symbol()":"95d89b41","tokenPrice()":"7ff9b596","totalSupply()":"18160ddd","transfer(address,uint256)":"a9059cbb","transferFrom(address,address,uint256)":"23b872dd","unfreezePartialTokens(address,uint256)":"1fe56f7d","unpause()":"3f4ba83a","updateTokenPrice(uint256)":"676c0d77","upgradeToAndCall(address,bytes)":"4f1ef286","version()":"54fd4d50"},"id":68}