{"abi":[{"type":"function","name":"DEFAULT_ADMIN_ROLE","inputs":[],"outputs":[{"name":"","type":"bytes32","internalType":"bytes32"}],"stateMutability":"view"},{"type":"function","name":"UPGRADE_INTERFACE_VERSION","inputs":[],"outputs":[{"name":"","type":"string","internalType":"string"}],"stateMutability":"view"},{"type":"function","name":"assetsOfSPV","inputs":[{"name":"spvId","type":"bytes32","internalType":"bytes32"}],"outputs":[{"name":"","type":"bytes32[]","internalType":"bytes32[]"}],"stateMutability":"view"},{"type":"function","name":"getAsset","inputs":[{"name":"assetId","type":"bytes32","internalType":"bytes32"}],"outputs":[{"name":"","type":"tuple","internalType":"struct ProplexRegistry.Asset","components":[{"name":"name","type":"string","internalType":"string"},{"name":"typ","type":"string","internalType":"string"},{"name":"metadata","type":"bytes32","internalType":"bytes32"},{"name":"active","type":"bool","internalType":"bool"}]}],"stateMutability":"view"},{"type":"function","name":"getRoleAdmin","inputs":[{"name":"role","type":"bytes32","internalType":"bytes32"}],"outputs":[{"name":"","type":"bytes32","internalType":"bytes32"}],"stateMutability":"view"},{"type":"function","name":"getSPV","inputs":[{"name":"spvId","type":"bytes32","internalType":"bytes32"}],"outputs":[{"name":"","type":"tuple","internalType":"struct ProplexRegistry.SPV","components":[{"name":"name","type":"string","internalType":"string"},{"name":"kyc","type":"bool","internalType":"bool"},{"name":"country","type":"string","internalType":"string"},{"name":"metadata","type":"bytes32","internalType":"bytes32"},{"name":"active","type":"bool","internalType":"bool"}]}],"stateMutability":"view"},{"type":"function","name":"grantRole","inputs":[{"name":"role","type":"bytes32","internalType":"bytes32"},{"name":"account","type":"address","internalType":"address"}],"outputs":[],"stateMutability":"nonpayable"},{"type":"function","name":"hasRole","inputs":[{"name":"role","type":"bytes32","internalType":"bytes32"},{"name":"account","type":"address","internalType":"address"}],"outputs":[{"name":"","type":"bool","internalType":"bool"}],"stateMutability":"view"},{"type":"function","name":"initialize","inputs":[],"outputs":[],"stateMutability":"nonpayable"},{"type":"function","name":"pause","inputs":[],"outputs":[],"stateMutability":"nonpayable"},{"type":"function","name":"paused","inputs":[],"outputs":[{"name":"","type":"bool","internalType":"bool"}],"stateMutability":"view"},{"type":"function","name":"proxiableUUID","inputs":[],"outputs":[{"name":"","type":"bytes32","internalType":"bytes32"}],"stateMutability":"view"},{"type":"function","name":"registerAsset","inputs":[{"name":"assetId","type":"bytes32","internalType":"bytes32"},{"name":"spvId","type":"bytes32","internalType":"bytes32"},{"name":"name","type":"string","internalType":"string"},{"name":"typ","type":"string","internalType":"string"},{"name":"metadata","type":"bytes32","internalType":"bytes32"}],"outputs":[],"stateMutability":"nonpayable"},{"type":"function","name":"registerSPV","inputs":[{"name":"spvId","type":"bytes32","internalType":"bytes32"},{"name":"name","type":"string","internalType":"string"},{"name":"kyc","type":"bool","internalType":"bool"},{"name":"country","type":"string","internalType":"string"},{"name":"metadata","type":"bytes32","internalType":"bytes32"}],"outputs":[],"stateMutability":"nonpayable"},{"type":"function","name":"registryCounts","inputs":[],"outputs":[{"name":"totalSPVs","type":"uint256","internalType":"uint256"},{"name":"totalAssets","type":"uint256","internalType":"uint256"}],"stateMutability":"view"},{"type":"function","name":"renounceRole","inputs":[{"name":"role","type":"bytes32","internalType":"bytes32"},{"name":"callerConfirmation","type":"address","internalType":"address"}],"outputs":[],"stateMutability":"nonpayable"},{"type":"function","name":"revokeRole","inputs":[{"name":"role","type":"bytes32","internalType":"bytes32"},{"name":"account","type":"address","internalType":"address"}],"outputs":[],"stateMutability":"nonpayable"},{"type":"function","name":"setAssetStatus","inputs":[{"name":"assetId","type":"bytes32","internalType":"bytes32"},{"name":"active","type":"bool","internalType":"bool"}],"outputs":[],"stateMutability":"nonpayable"},{"type":"function","name":"setSPVStatus","inputs":[{"name":"spvId","type":"bytes32","internalType":"bytes32"},{"name":"active","type":"bool","internalType":"bool"}],"outputs":[],"stateMutability":"nonpayable"},{"type":"function","name":"supportsInterface","inputs":[{"name":"interfaceId","type":"bytes4","internalType":"bytes4"}],"outputs":[{"name":"","type":"bool","internalType":"bool"}],"stateMutability":"view"},{"type":"function","name":"unpause","inputs":[],"outputs":[],"stateMutability":"nonpayable"},{"type":"function","name":"upgradeToAndCall","inputs":[{"name":"newImplementation","type":"address","internalType":"address"},{"name":"data","type":"bytes","internalType":"bytes"}],"outputs":[],"stateMutability":"payable"},{"type":"event","name":"AssetRegistered","inputs":[{"name":"assetId","type":"bytes32","indexed":true,"internalType":"bytes32"},{"name":"spvId","type":"bytes32","indexed":true,"internalType":"bytes32"},{"name":"name","type":"string","indexed":false,"internalType":"string"}],"anonymous":false},{"type":"event","name":"AssetStatusChanged","inputs":[{"name":"assetId","type":"bytes32","indexed":true,"internalType":"bytes32"},{"name":"active","type":"bool","indexed":false,"internalType":"bool"}],"anonymous":false},{"type":"event","name":"Initialized","inputs":[{"name":"version","type":"uint64","indexed":false,"internalType":"uint64"}],"anonymous":false},{"type":"event","name":"Paused","inputs":[{"name":"account","type":"address","indexed":false,"internalType":"address"}],"anonymous":false},{"type":"event","name":"RoleAdminChanged","inputs":[{"name":"role","type":"bytes32","indexed":true,"internalType":"bytes32"},{"name":"previousAdminRole","type":"bytes32","indexed":true,"internalType":"bytes32"},{"name":"newAdminRole","type":"bytes32","indexed":true,"internalType":"bytes32"}],"anonymous":false},{"type":"event","name":"RoleGranted","inputs":[{"name":"role","type":"bytes32","indexed":true,"internalType":"bytes32"},{"name":"account","type":"address","indexed":true,"internalType":"address"},{"name":"sender","type":"address","indexed":true,"internalType":"address"}],"anonymous":false},{"type":"event","name":"RoleRevoked","inputs":[{"name":"role","type":"bytes32","indexed":true,"internalType":"bytes32"},{"name":"account","type":"address","indexed":true,"internalType":"address"},{"name":"sender","type":"address","indexed":true,"internalType":"address"}],"anonymous":false},{"type":"event","name":"SPVRegistered","inputs":[{"name":"spvId","type":"bytes32","indexed":true,"internalType":"bytes32"},{"name":"name","type":"string","indexed":false,"internalType":"string"}],"anonymous":false},{"type":"event","name":"SPVStatusChanged","inputs":[{"name":"spvId","type":"bytes32","indexed":true,"internalType":"bytes32"},{"name":"active","type":"bool","indexed":false,"internalType":"bool"}],"anonymous":false},{"type":"event","name":"Unpaused","inputs":[{"name":"account","type":"address","indexed":false,"internalType":"address"}],"anonymous":false},{"type":"event","name":"Upgraded","inputs":[{"name":"implementation","type":"address","indexed":true,"internalType":"address"}],"anonymous":false},{"type":"error","name":"AccessControlBadConfirmation","inputs":[]},{"type":"error","name":"AccessControlUnauthorizedAccount","inputs":[{"name":"account","type":"address","internalType":"address"},{"name":"neededRole","type":"bytes32","internalType":"bytes32"}]},{"type":"error","name":"AddressEmptyCode","inputs":[{"name":"target","type":"address","internalType":"address"}]},{"type":"error","name":"ERC1967InvalidImplementation","inputs":[{"name":"implementation","type":"address","internalType":"address"}]},{"type":"error","name":"ERC1967NonPayable","inputs":[]},{"type":"error","name":"EnforcedPause","inputs":[]},{"type":"error","name":"ExpectedPause","inputs":[]},{"type":"error","name":"FailedCall","inputs":[]},{"type":"error","name":"InvalidInitialization","inputs":[]},{"type":"error","name":"NotInitializing","inputs":[]},{"type":"error","name":"ReentrancyGuardReentrantCall","inputs":[]},{"type":"error","name":"UUPSUnauthorizedCallContext","inputs":[]},{"type":"error","name":"UUPSUnsupportedProxiableUUID","inputs":[{"name":"slot","type":"bytes32","internalType":"bytes32"}]}],"bytecode":{"object":"0x60a0806040523461002a5730608052611c8590816100308239608051818181610ffd01526110be0152f35b600080fdfe608080604052600436101561001357600080fd5b60003560e01c90816301ffc9a71461159857508063248a9ca31461155c5780632cc3ce801461147f5780632f2ff15d1461143357806332cf74451461138d57806336568abe146113465780633f4ba83a146112cf5780634f1ef2861461106757806352d1902d14610fea5780635c975abb14610fba5780636451b4be14610b565780638129fc1c14610982578063833303061461050d578063838b1af81461049f5780638456cb591461043857806391d14854146103de578063a217fddf146103c2578063ad3cb1cc14610350578063b9283ddd14610252578063d547741f14610204578063febe551f146101795763ff2cb07b1461011157600080fd5b346101745760003660031901126101745760407fc9e256f91371fccd7795a5a4bd053ab41f875b5a555318047d1213abfcd9e46c547fc9e256f91371fccd7795a5a4bd053ab41f875b5a555318047d1213abfcd9e46d5482519182526020820152f35b600080fd5b34610174576040366003190112610174576004357f0554aa26d4791340eb7f4eba79775fcec771b98e0a13f137fe8451d45b9ca76460206101b8611717565b6101c0611b40565b83600052600082526101f981600460406000206101e76101e08254611726565b15156118c9565b019060ff801983541691151516179055565b6040519015158152a2005b346101745760403660031901126101745761025060043561022361162b565b9080600052600080516020611c1083398151915260205261024b60016040600020015461195d565b611abd565b005b34610174576020806003193601126101745760a090600060806040516102778161165c565b606081528284820152606060408201528260608201520152600435600052600081526040600020604051916102ab8361165c565b6102b482611760565b835261033d60ff60018401541682850190151581526102d560028501611760565b6040860190815261032260ff600460038801549760608a019889520154169460808801951515865261030a88515115156118c9565b604051988998828a52519189015260c08801906115eb565b91511515604087015251858203601f190160608701526115eb565b9151608084015251151560a08301520390f35b346101745760003660031901126101745760405160408101908082106001600160401b038311176103ac576103a89160405260058152640352e302e360dc1b60208201526040519182916020835260208301906115eb565b0390f35b634e487b7160e01b600052604160045260246000fd5b3461017457600036600319011261017457602060405160008152f35b34610174576040366003190112610174576103f761162b565b600435600052600080516020611c1083398151915260205260406000209060018060a01b0316600052602052602060ff604060002054166040519015158152f35b3461017457600036600319011261017457610451611905565b610459611b40565b600080516020611c30833981519152600160ff198254161790557f62e78cea01bee320cd4e420270b5ea74000d11b0c9f74754ebdbfc544b05a2586020604051338152a1005b34610174576040366003190112610174576004357f8e9c3e10bda01de153ba466ff272173d7846a0b9c9132372af0134ec20b28cb360206104de611717565b6104e6611b40565b83600052600182526101f981600360406000206101e76105068254611726565b1515611805565b346101745760a0366003190112610174576044356001600160401b0381116101745761053d9036906004016116ea565b906064356001600160401b0381116101745761055d9036906004016116ea565b90610566611b40565b60243560005260006020526105826101e0604060002054611726565b61058d841515611843565b81156109505760043560005260016020526105ac604060002054611726565b61091c576105d590604051926105c184611641565b6105cc3687876116b3565b845236916116b3565b6020820152608435604082015260016060820152600435600052600160205260406000209080518051906001600160401b0382116103ac5781906106198554611726565b601f81116108cc575b50602090601f83116001146108665760009261085b575b50508160011b916000199060031b1c19161782555b60208101518051906001600160401b0382116103ac576106716001850154611726565b601f8111610814575b50602090601f831160011461079e5792826003936060936106d59796600092610793575b505060001982861b1c1916600191821b17908501555b604081015160028501550151151591019060ff801983541691151516179055565b60243560005260026020526040600020805490680100000000000000008210156103ac576001820180825582101561077d5760005260043590602060002001557fc9e256f91371fccd7795a5a4bd053ab41f875b5a555318047d1213abfcd9e46d610740815461187c565b90557fffd3e342771b02238796795812cbf7af4cede272dc4d7c297f1a2bd20b3ac1c2604051806107786024359560043595836118a1565b0390a3005b634e487b7160e01b600052603260045260246000fd5b01519050898061069e565b90601f198316916001860160005260206000209260005b8181106107fc5750936060936106d597969360019383600398106107e4575b505050811b0160018501556106b4565b015160001983881b60f8161c191690558980806107d4565b929360206001819287860151815501950193016107b5565b600185016000526020600020601f840160051c810160208510610854575b601f830160051c8201811061084857505061067a565b60008155600101610832565b5080610832565b015190508680610639565b6000868152602081209350601f198516905b8181106108b4575090846001959493921061089b575b505050811b01825561064e565b015160001960f88460031b161c1916905586808061088e565b92936020600181928786015181550195019301610878565b909150846000526020600020601f840160051c810160208510610915575b90849392915b601f830160051c82018110610906575050610622565b600081558594506001016108f0565b50806108ea565b60405162461bcd60e51b815260206004820152600c60248201526b41737365742065786973747360a01b6044820152606490fd5b60405162461bcd60e51b815260206004820152600a6024820152695479706520656d70747960b01b6044820152606490fd5b34610174576000366003190112610174577ff0c57e16840df040f15088dc2f81fe391c3923bec73e23a9662efc9c229c6a00805460ff8160401c1615906001600160401b03811680159081610b4e575b6001149081610b44575b159081610b3b575b50610b295767ffffffffffffffff198116600117835581610b0a575b507fc9e256f91371fccd7795a5a4bd053ab41f875b5a555318047d1213abfcd9e46b60ff815416610acf57610a33611b6b565b610a3b611b6b565b610a43611b6b565b610a4b611b6b565b610a53611b6b565b60017f9b779b17422d0df92223018b32b4d1fa46e071723d6817e2486d003becc55f0055610a8033611990565b50805460ff19166001179055610a9257005b68ff00000000000000001981541690557fc7f505b2f371ae2175ee4913f4499e1f2633a7b5936321eed1cdaeb6115181d2602060405160018152a1005b60405162461bcd60e51b8152602060048201526013602482015272105b1c9958591e481a5b9a5d1a585b1a5e9959606a1b6044820152606490fd5b68ffffffffffffffffff19166801000000000000000117825582610a00565b60405163f92ee8a960e01b8152600490fd5b905015846109e4565b303b1591506109dc565b8391506109d2565b346101745760a0366003190112610174576024356001600160401b03811161017457610b869036906004016116ea565b604435801515809103610174576064356001600160401b03811161017457610bb29036906004016116ea565b90610bbb611b40565b610bc6841515611843565b60028203610f7e576004356000526000602052610be7604060002054611726565b610f4c57610c159160405193610bfc8561165c565b610c073687896116b3565b8552602085015236916116b3565b6040820152608435606082015260016080820152600435600052600060205260406000209080518051906001600160401b0382116103ac578190610c598554611726565b601f8111610efc575b50602090601f8311600114610e9657600092610e8b575b50508160011b916000199060031b1c19161782555b610cad60208201511515600184019060ff801983541691151516179055565b60408101518051906001600160401b0382116103ac57610cd06002850154611726565b601f8111610e44575b50602090601f8311600114610da85760807f0e43414fcc0f0c0f7e0ad9655e58664e8371c9a4efb5f3c1b5dca7607714ecbe969484610d5b95610d989895600495600092610d9d575b50508160011b916000199060031b1c19161760028501555b606081015160038501550151151591019060ff801983541691151516179055565b7fc9e256f91371fccd7795a5a4bd053ab41f875b5a555318047d1213abfcd9e46c610d86815461187c565b905560405191829160043595836118a1565b0390a2005b015190508b80610d22565b90601f198316916002860160005260206000209260005b818110610e2c575094600185610d989895600495608095610d5b997f0e43414fcc0f0c0f7e0ad9655e58664e8371c9a4efb5f3c1b5dca7607714ecbe9d9b10610e13575b505050811b016002850155610d3a565b015160001960f88460031b161c191690558b8080610e03565b92936020600181928786015181550195019301610dbf565b600285016000526020600020601f840160051c810160208510610e84575b601f830160051c82018110610e78575050610cd9565b60008155600101610e62565b5080610e62565b015190508680610c79565b6000868152602081209350601f198516905b818110610ee45750908460019594939210610ecb575b505050811b018255610c8e565b015160001960f88460031b161c19169055868080610ebe565b92936020600181928786015181550195019301610ea8565b909150846000526020600020601f840160051c810160208510610f45575b90849392915b601f830160051c82018110610f36575050610c62565b60008155859450600101610f20565b5080610f1a565b60405162461bcd60e51b815260206004820152600a6024820152695350562065786973747360b01b6044820152606490fd5b60405162461bcd60e51b8152602060048201526014602482015273496e76616c696420636f756e74727920636f646560601b6044820152606490fd5b3461017457600036600319011261017457602060ff600080516020611c3083398151915254166040519015158152f35b34610174576000366003190112610174577f00000000000000000000000000000000000000000000000000000000000000006001600160a01b031630036110555760206040517f360894a13ba1a3210667c828492db98dca3e2076cc3735a920a3ca505d382bbc8152f35b60405163703e46dd60e11b8152600490fd5b6040366003190112610174576004356001600160a01b03808216908183036101745760249283356001600160401b0381116101745736602382011215610174576110ba90369086816004013591016116b3565b91807f0000000000000000000000000000000000000000000000000000000000000000168030149182156112a1575b5050611055576110f7611905565b821561126c576040516352d1902d60e01b8152602091908281600481885afa6000918161123d575b5061113c57604051634c9c8ce360e01b8152600481018690528690fd5b8490867f360894a13ba1a3210667c828492db98dca3e2076cc3735a920a3ca505d382bbc918281036112285750833b15611212575080546001600160a01b03191682179055604051907fbc7cd75a20ee27fd9adebab32041f755214dbc6bffa90cc0225b39da2e5c2d3b600080a28351156111f85750600080848461025096519101845af4903d156111ef573d6111d281611698565b906111e06040519283611677565b8152600081943d92013e611bac565b60609250611bac565b925050503461120357005b63b398979f60e01b8152600490fd5b604051634c9c8ce360e01b815260048101849052fd5b60405190632a87526960e21b82526004820152fd5b9091508381813d8311611265575b6112558183611677565b810103126101745751908761111f565b503d61124b565b60405162461bcd60e51b815260206004820152600e818601526d43616e6e6f74206265205a65726f60901b6044820152606490fd5b7f360894a13ba1a3210667c828492db98dca3e2076cc3735a920a3ca505d382bbc54161415905085806110e9565b34610174576000366003190112610174576112e8611905565b600080516020611c30833981519152805460ff8116156113345760ff191690557f5db9ee0a495bf2e6ff9c91a7834c1ba4fdd244a5e8aa4e537bd38aeae4b073aa6020604051338152a1005b604051638dfc202b60e01b8152600490fd5b346101745760403660031901126101745761135f61162b565b336001600160a01b0382160361137b5761025090600435611abd565b60405163334bd91960e11b8152600490fd5b34610174576020806003193601126101745760043560005260028152604060002060405190818382549182815201908192600052846000209060005b8682821061141f5786866113df82880383611677565b604051928392818401908285525180915260408401929160005b82811061140857505050500390f35b8351855286955093810193928101926001016113f9565b8354855290930192600192830192016113c9565b346101745760403660031901126101745761025060043561145261162b565b9080600052600080516020611c1083398151915260205261147a60016040600020015461195d565b611a30565b346101745760208060031936011261017457608090600060606040516114a481611641565b81815281848201528260408201520152600435600052600181526040600020604051916114d083611641565b6114d982611760565b83526115496114ea60018401611760565b82850190815261153660ff6003600287015496604089019788520154169360608701941515855261151e8751511515611805565b604051978897828952519188015260a08701906115eb565b9051858203601f190160408701526115eb565b9151606084015251151560808301520390f35b3461017457602036600319011261017457600435600052600080516020611c108339815191526020526020600160406000200154604051908152f35b34610174576020366003190112610174576004359063ffffffff60e01b821680920361017457602091637965db0b60e01b81149081156115da575b5015158152f35b6301ffc9a760e01b149050836115d3565b919082519283825260005b848110611617575050826000602080949584010152601f8019910116010190565b6020818301810151848301820152016115f6565b602435906001600160a01b038216820361017457565b608081019081106001600160401b038211176103ac57604052565b60a081019081106001600160401b038211176103ac57604052565b90601f801991011681019081106001600160401b038211176103ac57604052565b6001600160401b0381116103ac57601f01601f191660200190565b9291926116bf82611698565b916116cd6040519384611677565b829481845281830111610174578281602093846000960137010152565b9181601f84011215610174578235916001600160401b038311610174576020838186019501011161017457565b60243590811515820361017457565b90600182811c92168015611756575b602083101461174057565b634e487b7160e01b600052602260045260246000fd5b91607f1691611735565b9060405191826000825461177381611726565b908184526020946001916001811690816000146117e357506001146117a4575b5050506117a292500383611677565b565b600090815285812095935091905b8183106117cb5750506117a29350820101388080611793565b855488840185015294850194879450918301916117b2565b925050506117a294925060ff191682840152151560051b820101388080611793565b1561180c57565b60405162461bcd60e51b815260206004820152600f60248201526e105cdcd95d081b9bdd08199bdd5b99608a1b6044820152606490fd5b1561184a57565b60405162461bcd60e51b815260206004820152600a6024820152694e616d6520656d70747960b01b6044820152606490fd5b600019811461188b5760010190565b634e487b7160e01b600052601160045260246000fd5b90918060409360208452816020850152848401376000828201840152601f01601f1916010190565b156118d057565b60405162461bcd60e51b815260206004820152600d60248201526c14d415881b9bdd08199bdd5b99609a1b6044820152606490fd5b3360009081527fb7db2dd08fcb62d0c9e08c51941cae53c267786a0b75803fb7960902fc8ef97d602052604081205460ff161561193f5750565b6044906040519063e2517d3f60e01b82523360048301526024820152fd5b80600052600080516020611c1083398151915260205260406000203360005260205260ff604060002054161561193f5750565b6001600160a01b031660008181527fb7db2dd08fcb62d0c9e08c51941cae53c267786a0b75803fb7960902fc8ef97d6020526040812054909190600080516020611c108339815191529060ff16611a2b578280526020526040822081835260205260408220600160ff1982541617905533917f2f8788117e7eff1d82e926ec794901d17c78024a50270940304540a733656f0d8180a4600190565b505090565b90600091808352600080516020611c1083398151915280602052604084209260018060a01b03169283855260205260ff60408520541615600014611ab7578184526020526040832082845260205260408320600160ff198254161790557f2f8788117e7eff1d82e926ec794901d17c78024a50270940304540a733656f0d339380a4600190565b50505090565b90600091808352600080516020611c1083398151915280602052604084209260018060a01b03169283855260205260ff604085205416600014611ab757818452602052604083208284526020526040832060ff1981541690557ff6391f5c32d9c69d2a47ea670b442974b53935d1edc7fd64eb21e047a839171b339380a4600190565b60ff600080516020611c308339815191525416611b5957565b60405163d93c066560e01b8152600490fd5b60ff7ff0c57e16840df040f15088dc2f81fe391c3923bec73e23a9662efc9c229c6a005460401c1615611b9a57565b604051631afcd79f60e31b8152600490fd5b90611bd35750805115611bc157602081519101fd5b60405163d6bda27560e01b8152600490fd5b81511580611c06575b611be4575090565b604051639996b31560e01b81526001600160a01b039091166004820152602490fd5b50803b15611bdc56fe02dd7bc7dec4dceedda775e58dd541e08a116c6c53815c0bd028192f7b626800cd5ed15c6e187e77e9aee88184c21f4f2182ab5827cb3b7e07fbedcd63f03300a2646970667358221220f08bba3af5802ee45d1852db1c44cfe94e955d6b3cdab646ee2113ef4433637e64736f6c63430008180033","linkReferences":{}},"methodIdentifiers":{"DEFAULT_ADMIN_ROLE()":"a217fddf","UPGRADE_INTERFACE_VERSION()":"ad3cb1cc","assetsOfSPV(bytes32)":"32cf7445","getAsset(bytes32)":"2cc3ce80","getRoleAdmin(bytes32)":"248a9ca3","getSPV(bytes32)":"b9283ddd","grantRole(bytes32,address)":"2f2ff15d","hasRole(bytes32,address)":"91d14854","initialize()":"8129fc1c","pause()":"8456cb59","paused()":"5c975abb","proxiableUUID()":"52d1902d","registerAsset(bytes32,bytes32,string,string,bytes32)":"83330306","registerSPV(bytes32,string,bool,string,bytes32)":"6451b4be","registryCounts()":"ff2cb07b","renounceRole(bytes32,address)":"36568abe","revokeRole(bytes32,address)":"d547741f","setAssetStatus(bytes32,bool)":"838b1af8","setSPVStatus(bytes32,bool)":"febe551f","supportsInterface(bytes4)":"01ffc9a7","unpause()":"3f4ba83a","upgradeToAndCall(address,bytes)":"4f1ef286"},"id":74}