{"abi":[{"type":"function","name":"UPGRADE_INTERFACE_VERSION","inputs":[],"outputs":[{"name":"","type":"string","internalType":"string"}],"stateMutability":"view"},{"type":"function","name":"addInvestor","inputs":[{"name":"investor","type":"address","internalType":"address"}],"outputs":[],"stateMutability":"nonpayable"},{"type":"function","name":"admin","inputs":[],"outputs":[{"name":"","type":"address","internalType":"address"}],"stateMutability":"view"},{"type":"function","name":"assetTokenContract","inputs":[],"outputs":[{"name":"","type":"address","internalType":"address"}],"stateMutability":"view"},{"type":"function","name":"daoAddress","inputs":[],"outputs":[{"name":"","type":"address","internalType":"address"}],"stateMutability":"view"},{"type":"function","name":"financialLedger","inputs":[],"outputs":[{"name":"","type":"address","internalType":"address"}],"stateMutability":"view"},{"type":"function","name":"getInvestors","inputs":[],"outputs":[{"name":"","type":"address[]","internalType":"address[]"}],"stateMutability":"view"},{"type":"function","name":"initialize","inputs":[{"name":"_spvId","type":"string","internalType":"string"},{"name":"_dao","type":"address","internalType":"address"},{"name":"_registry","type":"address","internalType":"address"},{"name":"_ledger","type":"address","internalType":"address"},{"name":"_assetToken","type":"address","internalType":"address"},{"name":"_admin","type":"address","internalType":"address"}],"outputs":[],"stateMutability":"nonpayable"},{"type":"function","name":"isInvestor","inputs":[{"name":"account","type":"address","internalType":"address"}],"outputs":[{"name":"","type":"bool","internalType":"bool"}],"stateMutability":"view"},{"type":"function","name":"pause","inputs":[],"outputs":[],"stateMutability":"nonpayable"},{"type":"function","name":"paused","inputs":[],"outputs":[{"name":"","type":"bool","internalType":"bool"}],"stateMutability":"view"},{"type":"function","name":"proxiableUUID","inputs":[],"outputs":[{"name":"","type":"bytes32","internalType":"bytes32"}],"stateMutability":"view"},{"type":"function","name":"registryContract","inputs":[],"outputs":[{"name":"","type":"address","internalType":"address"}],"stateMutability":"view"},{"type":"function","name":"removeInvestor","inputs":[{"name":"investor","type":"address","internalType":"address"}],"outputs":[],"stateMutability":"nonpayable"},{"type":"function","name":"spvId","inputs":[],"outputs":[{"name":"","type":"string","internalType":"string"}],"stateMutability":"view"},{"type":"function","name":"unpause","inputs":[],"outputs":[],"stateMutability":"nonpayable"},{"type":"function","name":"updateAssetToken","inputs":[{"name":"newToken","type":"address","internalType":"address"}],"outputs":[],"stateMutability":"nonpayable"},{"type":"function","name":"updateDAO","inputs":[{"name":"newDAO","type":"address","internalType":"address"}],"outputs":[],"stateMutability":"nonpayable"},{"type":"function","name":"updateLedger","inputs":[{"name":"newLedger","type":"address","internalType":"address"}],"outputs":[],"stateMutability":"nonpayable"},{"type":"function","name":"upgradeToAndCall","inputs":[{"name":"newImplementation","type":"address","internalType":"address"},{"name":"data","type":"bytes","internalType":"bytes"}],"outputs":[],"stateMutability":"payable"},{"type":"event","name":"AssetTokenUpdated","inputs":[{"name":"newAssetToken","type":"address","indexed":true,"internalType":"address"}],"anonymous":false},{"type":"event","name":"DAOUpdated","inputs":[{"name":"newDAO","type":"address","indexed":true,"internalType":"address"}],"anonymous":false},{"type":"event","name":"Initialized","inputs":[{"name":"version","type":"uint64","indexed":false,"internalType":"uint64"}],"anonymous":false},{"type":"event","name":"InvestorAdded","inputs":[{"name":"investor","type":"address","indexed":true,"internalType":"address"}],"anonymous":false},{"type":"event","name":"InvestorRemoved","inputs":[{"name":"investor","type":"address","indexed":true,"internalType":"address"}],"anonymous":false},{"type":"event","name":"LedgerUpdated","inputs":[{"name":"newLedger","type":"address","indexed":true,"internalType":"address"}],"anonymous":false},{"type":"event","name":"Paused","inputs":[{"name":"account","type":"address","indexed":false,"internalType":"address"}],"anonymous":false},{"type":"event","name":"SPVInitialized","inputs":[{"name":"spvId","type":"string","indexed":true,"internalType":"string"},{"name":"dao","type":"address","indexed":true,"internalType":"address"},{"name":"registry","type":"address","indexed":true,"internalType":"address"},{"name":"ledger","type":"address","indexed":false,"internalType":"address"},{"name":"assetToken","type":"address","indexed":false,"internalType":"address"}],"anonymous":false},{"type":"event","name":"Unpaused","inputs":[{"name":"account","type":"address","indexed":false,"internalType":"address"}],"anonymous":false},{"type":"event","name":"Upgraded","inputs":[{"name":"implementation","type":"address","indexed":true,"internalType":"address"}],"anonymous":false},{"type":"event","name":"Upgraded","inputs":[{"name":"implementation","type":"address","indexed":true,"internalType":"address"}],"anonymous":false},{"type":"error","name":"AddressEmptyCode","inputs":[{"name":"target","type":"address","internalType":"address"}]},{"type":"error","name":"ERC1967InvalidImplementation","inputs":[{"name":"implementation","type":"address","internalType":"address"}]},{"type":"error","name":"ERC1967NonPayable","inputs":[]},{"type":"error","name":"EnforcedPause","inputs":[]},{"type":"error","name":"ExpectedPause","inputs":[]},{"type":"error","name":"FailedCall","inputs":[]},{"type":"error","name":"InvalidInitialization","inputs":[]},{"type":"error","name":"NotInitializing","inputs":[]},{"type":"error","name":"UUPSUnauthorizedCallContext","inputs":[]},{"type":"error","name":"UUPSUnsupportedProxiableUUID","inputs":[{"name":"slot","type":"bytes32","internalType":"bytes32"}]}],"bytecode":{"object":"0x60a0806040523461002a57306080526111b29081610030823960805181818161089e01526109840152f35b600080fdfe6080604052600436101561001257600080fd5b60003560e01c8063082a259e14610d685780630cf3c06714610c9e5780630ec2b27214610c755780632131c68c14610c4c57806328c1f99b14610c235780633f4ba83a14610bb45780634271497814610b595780634f1ef2861461090857806352d1902d1461088b5780635c975abb1461085b5780638182e7071461043d5780638456cb59146103de578063a64ac63514610377578063ad3cb1cc1461030c578063b2f5a54c1461024d578063bcb6c0b5146101e6578063cee2a9cf146101aa578063e641bde11461014f578063f2b90d8e146101265763f851a440146100f857600080fd5b34610121576000366003190112610121576005546040516001600160a01b039091168152602090f35b600080fd5b34610121576000366003190112610121576003546040516001600160a01b039091168152602090f35b3461012157602036600319011261012157610168610dcf565b610170610ea6565b6001600160a01b03166101828161104e565b507f62e6a5118be03f9bfedb79b0ed7ed75ee4a9e15fc4c69d2c4976acde26fa2d5f600080a2005b34610121576020366003190112610121576001600160a01b036101cb610dcf565b16600052600760205260206040600020541515604051908152f35b34610121576020366003190112610121576101ff610dcf565b610207610ea6565b600180546001600160a01b0319166001600160a01b039290921691821790557f395c0f5a57accc3f0c20646b402f0845c448f3e4ac4a2ec56a3eaf26d15bf79a600080a2005b3461012157600036600319011261012157604051806006548083526020809301809160066000527ff652222313e28459528d920b65115c16c04f3efc82aaedc97be59f3f377c0d3f9060005b868282106102f85786866102af82880383610e1f565b604051928392818401908285525180915260408401929160005b8281106102d857505050500390f35b83516001600160a01b0316855286955093810193928101926001016102c9565b835485529093019260019283019201610299565b3461012157600036600319011261012157604051604081019080821067ffffffffffffffff8311176103615761035d9160405260058152640352e302e360dc1b602082015260405191829182610e41565b0390f35b634e487b7160e01b600052604160045260246000fd5b3461012157602036600319011261012157610390610dcf565b610398610ea6565b600480546001600160a01b0319166001600160a01b039290921691821790557fa960ce5bc704eaf9b273cd8cd83560f481525b9ef7e49b7898a0cdfb48682010600080a2005b34610121576000366003190112610121576103f7610ea6565b60008051602061113d833981519152600160ff198254161790557f62e78cea01bee320cd4e420270b5ea74000d11b0c9f74754ebdbfc544b05a2586020604051338152a1005b346101215760c03660031901126101215767ffffffffffffffff806004351161012157366023600435011215610121578060043560040135116101215736602460043560040135600435010111610121576001600160a01b039060243582811681036101215760443592808416840361012157606435908082168203610121576084359080821682036101215760a4359581871687036101215760008051602061115d833981519152549586168015908161084b575b6001149081610841575b159081610838575b5061082657600167ffffffffffffffff1987161760008051602061115d8339815191525560ff8660401c16156107f9575b61053e61101f565b61054661101f565b610551600054610de5565b601f8111610781575b50600096601f60043560040135116001146106bf5791806040927f7b1f11404abd33ff2e99eb4c4403c4123c2117ce56a04fd89666036ab7bfb57b9460ff9a600090600435600401356106af575b506004356004013560011b906000196004356004013560031b1c1916176000555b826bffffffffffffffffffffffff60a01b91818b16836001541617600155818416836002541617600255818a16836003541617600355818916836004541617600455169060055416176005558184516004356004013560246004350182378060043560040135810160008152039020968186519916895216602088015216951693a460401c161561065657005b68ff00000000000000001960008051602061115d833981519152541660008051602061115d833981519152557fc7f505b2f371ae2175ee4913f4499e1f2633a7b5936321eed1cdaeb6115181d2602060405160018152a1005b602491506004350101358c6105a8565b6000805260008051602061111d83398151915260005b600480350135601f1916811061076457509260409281927f7b1f11404abd33ff2e99eb4c4403c4123c2117ce56a04fd89666036ab7bfb57b9560ff9b60043560040135601f1960043560040135161061073f575b5050600160043560040135811b016000556105c9565b602460001960f86004356004013560031b161c19916004350101351690558b80610729565b6004358a016024013582556020998a0199600190920191016106d5565b60008052601f600435600401350160051c60008051602061111d8339815191520190602060043560040135106107e3575b601f0160051c60008051602061111d83398151915201905b8181106107d7575061055a565b600081556001016107ca565b60008051602061111d83398151915291506107b2565b68ffffffffffffffffff198616680100000000000000011760008051602061115d83398151915255610536565b60405163f92ee8a960e01b8152600490fd5b90501588610505565b303b1591506104fd565b604088901c60ff161591506104f3565b3461012157600036600319011261012157602060ff60008051602061113d83398151915254166040519015158152f35b34610121576000366003190112610121577f00000000000000000000000000000000000000000000000000000000000000006001600160a01b031630036108f65760206040517f360894a13ba1a3210667c828492db98dca3e2076cc3735a920a3ca505d382bbc8152f35b60405163703e46dd60e11b8152600490fd5b60403660031901126101215761091c610dcf565b602490813567ffffffffffffffff8111610121573660238201121561012157806004013561094981610e8a565b926109576040519485610e1f565b81845260209182850193368783830101116101215781600092888693018737860101526001600160a01b037f00000000000000000000000000000000000000000000000000000000000000008116308114908115610b2b575b506108f6578116936040517fbc7cd75a20ee27fd9adebab32041f755214dbc6bffa90cc0225b39da2e5c2d3b908682600080a26352d1902d60e01b815284816004818a5afa60009181610afc575b50610a1b57604051634c9c8ce360e01b8152600481018890528890fd5b8690887f360894a13ba1a3210667c828492db98dca3e2076cc3735a920a3ca505d382bbc91828103610ae75750853b15610ad1575080546001600160a01b0319168217905560405191600080a2815115610ab657506000610aab9481925190845af4903d15610aad573d610a8e81610e8a565b90610a9c6040519283610e1f565b8152600081943d92013e6110b9565b005b606092506110b9565b935050505034610ac257005b63b398979f60e01b8152600490fd5b604051634c9c8ce360e01b815260048101849052fd5b60405190632a87526960e21b82526004820152fd5b9091508581813d8311610b24575b610b148183610e1f565b81010312610121575190896109fe565b503d610b0a565b9050817f360894a13ba1a3210667c828492db98dca3e2076cc3735a920a3ca505d382bbc54161415876109b0565b3461012157602036600319011261012157610b72610dcf565b610b7a610ea6565b6001600160a01b0316610b8c81610f1e565b507fba0013628ccb89af5bb18edf764d3a7b35c07b894848b8e6fd3434719de39c7d600080a2005b346101215760003660031901126101215760008051602061113d833981519152805460ff811615610c115760ff191690557f5db9ee0a495bf2e6ff9c91a7834c1ba4fdd244a5e8aa4e537bd38aeae4b073aa6020604051338152a1005b604051638dfc202b60e01b8152600490fd5b34610121576000366003190112610121576002546040516001600160a01b039091168152602090f35b34610121576000366003190112610121576001546040516001600160a01b039091168152602090f35b34610121576000366003190112610121576004546040516001600160a01b039091168152602090f35b346101215760003660031901126101215760405160008054610cbf81610de5565b80845290602090600190818116908115610d3e5750600114610cf8575b61035d85610cec81870382610e1f565b60405191829182610e41565b6000808052935060008051602061111d8339815191525b838510610d2b57505050508101602001610cec8261035d610cdc565b8054868601840152938201938101610d0f565b86955061035d96935060209250610cec94915060ff191682840152151560051b8201019293610cdc565b3461012157602036600319011261012157610d81610dcf565b610d89610ea6565b600380546001600160a01b0319166001600160a01b039290921691821790557f842077a807f115575d3fc6fb5f72114e8dc163c6213e067f9a6acd7130648804600080a2005b600435906001600160a01b038216820361012157565b90600182811c92168015610e15575b6020831014610dff57565b634e487b7160e01b600052602260045260246000fd5b91607f1691610df4565b90601f8019910116810190811067ffffffffffffffff82111761036157604052565b6020808252825181830181905290939260005b828110610e7657505060409293506000838284010152601f8019910116010190565b818101860151848201604001528501610e54565b67ffffffffffffffff811161036157601f01601f191660200190565b60ff60008051602061113d8339815191525416610ebf57565b60405163d93c066560e01b8152600490fd5b600654811015610f085760066000527ff652222313e28459528d920b65115c16c04f3efc82aaedc97be59f3f377c0d3f0190600090565b634e487b7160e01b600052603260045260246000fd5b600081815260076020526040812054909190801561101a57600019908082018181116110065760065490838201918211610ff257818103610fa7575b5050506006548015610f9357810190610f7282610ed1565b909182549160031b1b19169055600655815260076020526040812055600190565b634e487b7160e01b84526031600452602484fd5b610fdc610fb6610fc593610ed1565b90549060031b1c928392610ed1565b819391549060031b91821b91600019901b19161790565b9055845260076020526040842055388080610f5a565b634e487b7160e01b86526011600452602486fd5b634e487b7160e01b85526011600452602485fd5b505090565b60ff60008051602061115d8339815191525460401c161561103c57565b604051631afcd79f60e31b8152600490fd5b6000818152600760205260408120546110b457600654680100000000000000008110156110a057908261108c610fc584600160409601600655610ed1565b905560065492815260076020522055600190565b634e487b7160e01b82526041600452602482fd5b905090565b906110e057508051156110ce57602081519101fd5b60405163d6bda27560e01b8152600490fd5b81511580611113575b6110f1575090565b604051639996b31560e01b81526001600160a01b039091166004820152602490fd5b50803b156110e956fe290decd9548b62a8d60345a988386fc84ba6bc95484008f6362f93160ef3e563cd5ed15c6e187e77e9aee88184c21f4f2182ab5827cb3b7e07fbedcd63f03300f0c57e16840df040f15088dc2f81fe391c3923bec73e23a9662efc9c229c6a00a264697066735822122021c20e93af5695184ad78fc0f83525f3bce176f32554ab68f9c05ea61d44f57364736f6c63430008180033","linkReferences":{}},"methodIdentifiers":{"UPGRADE_INTERFACE_VERSION()":"ad3cb1cc","addInvestor(address)":"e641bde1","admin()":"f851a440","assetTokenContract()":"0ec2b272","daoAddress()":"2131c68c","financialLedger()":"f2b90d8e","getInvestors()":"b2f5a54c","initialize(string,address,address,address,address,address)":"8182e707","isInvestor(address)":"cee2a9cf","pause()":"8456cb59","paused()":"5c975abb","proxiableUUID()":"52d1902d","registryContract()":"28c1f99b","removeInvestor(address)":"42714978","spvId()":"0cf3c067","unpause()":"3f4ba83a","updateAssetToken(address)":"a64ac635","updateDAO(address)":"bcb6c0b5","updateLedger(address)":"082a259e","upgradeToAndCall(address,bytes)":"4f1ef286"},"id":75}