{"abi":[{"type":"function","name":"DEFAULT_ADMIN_ROLE","inputs":[],"outputs":[{"name":"","type":"bytes32","internalType":"bytes32"}],"stateMutability":"view"},{"type":"function","name":"PROPOSER_ROLE","inputs":[],"outputs":[{"name":"","type":"bytes32","internalType":"bytes32"}],"stateMutability":"view"},{"type":"function","name":"UPGRADE_INTERFACE_VERSION","inputs":[],"outputs":[{"name":"","type":"string","internalType":"string"}],"stateMutability":"view"},{"type":"function","name":"VOTER_ROLE","inputs":[],"outputs":[{"name":"","type":"bytes32","internalType":"bytes32"}],"stateMutability":"view"},{"type":"function","name":"executeProposal","inputs":[{"name":"id","type":"uint256","internalType":"uint256"}],"outputs":[],"stateMutability":"nonpayable"},{"type":"function","name":"getRoleAdmin","inputs":[{"name":"role","type":"bytes32","internalType":"bytes32"}],"outputs":[{"name":"","type":"bytes32","internalType":"bytes32"}],"stateMutability":"view"},{"type":"function","name":"grantRole","inputs":[{"name":"role","type":"bytes32","internalType":"bytes32"},{"name":"account","type":"address","internalType":"address"}],"outputs":[],"stateMutability":"nonpayable"},{"type":"function","name":"hasRole","inputs":[{"name":"role","type":"bytes32","internalType":"bytes32"},{"name":"account","type":"address","internalType":"address"}],"outputs":[{"name":"","type":"bool","internalType":"bool"}],"stateMutability":"view"},{"type":"function","name":"hasVoted","inputs":[{"name":"id","type":"uint256","internalType":"uint256"},{"name":"voter","type":"address","internalType":"address"}],"outputs":[{"name":"","type":"bool","internalType":"bool"}],"stateMutability":"view"},{"type":"function","name":"initialize","inputs":[{"name":"spv","type":"address","internalType":"address"},{"name":"admin","type":"address","internalType":"address"},{"name":"period","type":"uint48","internalType":"uint48"},{"name":"minTokens","type":"uint256","internalType":"uint256"},{"name":"thresholdPct","type":"uint256","internalType":"uint256"},{"name":"quorumPct","type":"uint256","internalType":"uint256"}],"outputs":[],"stateMutability":"nonpayable"},{"type":"function","name":"paused","inputs":[],"outputs":[{"name":"","type":"bool","internalType":"bool"}],"stateMutability":"view"},{"type":"function","name":"proposalCount","inputs":[],"outputs":[{"name":"","type":"uint256","internalType":"uint256"}],"stateMutability":"view"},{"type":"function","name":"proposalInfo","inputs":[{"name":"id","type":"uint256","internalType":"uint256"}],"outputs":[{"name":"proposer","type":"address","internalType":"address"},{"name":"dataHash","type":"bytes32","internalType":"bytes32"},{"name":"start","type":"uint48","internalType":"uint48"},{"name":"end","type":"uint48","internalType":"uint48"},{"name":"forVotes","type":"uint256","internalType":"uint256"},{"name":"againstVotes","type":"uint256","internalType":"uint256"},{"name":"executed","type":"bool","internalType":"bool"},{"name":"active","type":"bool","internalType":"bool"}],"stateMutability":"view"},{"type":"function","name":"propose","inputs":[{"name":"data","type":"bytes","internalType":"bytes"}],"outputs":[],"stateMutability":"nonpayable"},{"type":"function","name":"proxiableUUID","inputs":[],"outputs":[{"name":"","type":"bytes32","internalType":"bytes32"}],"stateMutability":"view"},{"type":"function","name":"renounceRole","inputs":[{"name":"role","type":"bytes32","internalType":"bytes32"},{"name":"callerConfirmation","type":"address","internalType":"address"}],"outputs":[],"stateMutability":"nonpayable"},{"type":"function","name":"revokeRole","inputs":[{"name":"role","type":"bytes32","internalType":"bytes32"},{"name":"account","type":"address","internalType":"address"}],"outputs":[],"stateMutability":"nonpayable"},{"type":"function","name":"setSPV","inputs":[{"name":"newSPV","type":"address","internalType":"address"}],"outputs":[],"stateMutability":"nonpayable"},{"type":"function","name":"spvContract","inputs":[],"outputs":[{"name":"","type":"address","internalType":"address"}],"stateMutability":"view"},{"type":"function","name":"supportsInterface","inputs":[{"name":"interfaceId","type":"bytes4","internalType":"bytes4"}],"outputs":[{"name":"","type":"bool","internalType":"bool"}],"stateMutability":"view"},{"type":"function","name":"upgradeToAndCall","inputs":[{"name":"newImplementation","type":"address","internalType":"address"},{"name":"data","type":"bytes","internalType":"bytes"}],"outputs":[],"stateMutability":"payable"},{"type":"function","name":"vote","inputs":[{"name":"id","type":"uint256","internalType":"uint256"},{"name":"support","type":"bool","internalType":"bool"}],"outputs":[],"stateMutability":"nonpayable"},{"type":"event","name":"DAOInitialized","inputs":[{"name":"spv","type":"address","indexed":true,"internalType":"address"},{"name":"admin","type":"address","indexed":true,"internalType":"address"},{"name":"period","type":"uint48","indexed":false,"internalType":"uint48"},{"name":"minTokens","type":"uint256","indexed":false,"internalType":"uint256"},{"name":"thresholdPct","type":"uint256","indexed":false,"internalType":"uint256"},{"name":"quorumPct","type":"uint256","indexed":false,"internalType":"uint256"}],"anonymous":false},{"type":"event","name":"Initialized","inputs":[{"name":"version","type":"uint64","indexed":false,"internalType":"uint64"}],"anonymous":false},{"type":"event","name":"Paused","inputs":[{"name":"account","type":"address","indexed":false,"internalType":"address"}],"anonymous":false},{"type":"event","name":"ProposalCreated","inputs":[{"name":"id","type":"uint256","indexed":true,"internalType":"uint256"},{"name":"proposer","type":"address","indexed":false,"internalType":"address"},{"name":"dataHash","type":"bytes32","indexed":false,"internalType":"bytes32"},{"name":"snapshotId","type":"uint256","indexed":false,"internalType":"uint256"}],"anonymous":false},{"type":"event","name":"ProposalExecuted","inputs":[{"name":"id","type":"uint256","indexed":true,"internalType":"uint256"}],"anonymous":false},{"type":"event","name":"RoleAdminChanged","inputs":[{"name":"role","type":"bytes32","indexed":true,"internalType":"bytes32"},{"name":"previousAdminRole","type":"bytes32","indexed":true,"internalType":"bytes32"},{"name":"newAdminRole","type":"bytes32","indexed":true,"internalType":"bytes32"}],"anonymous":false},{"type":"event","name":"RoleGranted","inputs":[{"name":"role","type":"bytes32","indexed":true,"internalType":"bytes32"},{"name":"account","type":"address","indexed":true,"internalType":"address"},{"name":"sender","type":"address","indexed":true,"internalType":"address"}],"anonymous":false},{"type":"event","name":"RoleRevoked","inputs":[{"name":"role","type":"bytes32","indexed":true,"internalType":"bytes32"},{"name":"account","type":"address","indexed":true,"internalType":"address"},{"name":"sender","type":"address","indexed":true,"internalType":"address"}],"anonymous":false},{"type":"event","name":"Unpaused","inputs":[{"name":"account","type":"address","indexed":false,"internalType":"address"}],"anonymous":false},{"type":"event","name":"Upgraded","inputs":[{"name":"implementation","type":"address","indexed":true,"internalType":"address"}],"anonymous":false},{"type":"event","name":"Voted","inputs":[{"name":"id","type":"uint256","indexed":true,"internalType":"uint256"},{"name":"voter","type":"address","indexed":true,"internalType":"address"},{"name":"support","type":"bool","indexed":false,"internalType":"bool"},{"name":"power","type":"uint256","indexed":false,"internalType":"uint256"}],"anonymous":false},{"type":"error","name":"AccessControlBadConfirmation","inputs":[]},{"type":"error","name":"AccessControlUnauthorizedAccount","inputs":[{"name":"account","type":"address","internalType":"address"},{"name":"neededRole","type":"bytes32","internalType":"bytes32"}]},{"type":"error","name":"AddressEmptyCode","inputs":[{"name":"target","type":"address","internalType":"address"}]},{"type":"error","name":"ERC1967InvalidImplementation","inputs":[{"name":"implementation","type":"address","internalType":"address"}]},{"type":"error","name":"ERC1967NonPayable","inputs":[]},{"type":"error","name":"EnforcedPause","inputs":[]},{"type":"error","name":"ExpectedPause","inputs":[]},{"type":"error","name":"FailedCall","inputs":[]},{"type":"error","name":"InvalidInitialization","inputs":[]},{"type":"error","name":"NotInitializing","inputs":[]},{"type":"error","name":"ReentrancyGuardReentrantCall","inputs":[]},{"type":"error","name":"UUPSUnauthorizedCallContext","inputs":[]},{"type":"error","name":"UUPSUnsupportedProxiableUUID","inputs":[{"name":"slot","type":"bytes32","internalType":"bytes32"}]}],"bytecode":{"object":"0x60a0806040523461002a5730608052611ae590816100308239608051818181610bbe0152610cad0152f35b600080fdfe608060408181526004918236101561001657600080fd5b600092833560e01c91826301ffc9a714611504575081630d61b519146111e7578163248a9ca3146111af5781632f2ff15d1461118557816336568abe1461113f57816337558af514610f5c5781634385963214610f155781634f1ef28614610c5b57816352cdad6e14610c2557816352d1902d14610ba95781635c975abb14610b665781638f61f4f514610b2b57816391d1485414610ad7578163a1f7c13214610999578163a217fddf1461097e578163a94015c814610943578163ad3cb1cc146108a4578163ae092e89146107ac578163bbee2681146104ae578163c9d27afe146101a8578163d547741f14610157575063da35c6641461011757600080fd5b346101535781600319360112610153576020907f9005808f39b9f6be7fb7b931412933d2ae33e2d571a8a2a824c339a9a167f8a8549051908152f35b5080fd5b919050346101a457806003193601126101a4576101a0913561019b600161017c611557565b93838752600080516020611a90833981519152602052862001546116ef565b611948565b5080f35b8280fd5b839150346101535782600319360112610153578035602493843594851515938487036104aa577f72c3eec1760bf69946625c2d4fb8e44e2c806345041960b434674fb9ab3976cf90818752602091600080516020611a908339815191528352848820338952835260ff85892054161561048e5750610224611722565b84875286825283872060ff600582015460081c1680610475575b156104465785885260018352848820338952835260ff858920541661041557600080516020611a70833981519152548551630761593960e11b81526001600160a01b03959185908290869082908a165afa90811561040b579085918b916103de575b50828851809881936370a0823160e01b83523389840152165afa9485156103d45789956103a1575b507f9005808f39b9f6be7fb7b931412933d2ae33e2d571a8a2a824c339a9a167f8a554851061036f57508798867f7c2de587c00d75474a0c6c6fa96fd3b45dc974cd4e8a75f712bb84c950dce1b59798995260018452858a20338b528452858a20600160ff1982541617905560001461035c57600391500161034b838254611613565b90555b82519586528501523393a380f35b01610368838254611613565b905561034e565b600e915060649386519362461bcd60e51b85528401528201526d746f6f2066657720746f6b656e7360901b6044820152fd5b9094508381813d83116103cd575b6103b98183611588565b810103126103c95751938a6102c8565b8880fd5b503d6103af565b86513d8b823e3d90fd5b6103fe9150823d8411610404575b6103f68183611588565b810190611636565b8c6102a0565b503d6103ec565b87513d8c823e3d90fd5b50925162461bcd60e51b815292830152600d908201526c185b1c9958591e481d9bdd1959609a1b6044820152606490fd5b50925162461bcd60e51b815292830152600b908201526a1d9bdd194818db1bdcd95960aa1b6044820152606490fd5b5065ffffffffffff600282015460301c1642111561023e565b915091604493519263e2517d3f60e01b84523390840152820152fd5b8580fd5b9050346101a45760c03660031901126101a4576104c9611572565b906104d2611557565b9160443565ffffffffffff8116918282036107a8576064359460843560a435907ff0c57e16840df040f15088dc2f81fe391c3923bec73e23a9662efc9c229c6a009788549760ff898c1c16159867ffffffffffffffff8116801590816107a0575b6001149081610796575b15908161078d575b5061077e5767ffffffffffffffff1981166001178b558961075f575b5087151580610756575b8061074b575b80610740575b15610710575091608093917fc53bb6901675d2cc2a466aadb0baf249eb584749cc7e0a053d37c10d15ab7d8795936105ad6119cb565b6105b56119cb565b6105bd6119cb565b6105c56119cb565b6105cd6119cb565b60017f9b779b17422d0df92223018b32b4d1fa46e071723d6817e2486d003becc55f0055600080516020611a7083398151915280546001600160d01b0319166001600160a01b0396871690811760a09a909a1b65ffffffffffff60a01b169990991790557f9005808f39b9f6be7fb7b931412933d2ae33e2d571a8a2a824c339a9a167f8a58190557f9005808f39b9f6be7fb7b931412933d2ae33e2d571a8a2a824c339a9a167f8a68290557f9005808f39b9f6be7fb7b931412933d2ae33e2d571a8a2a824c339a9a167f8a78390556106a68461175f565b506106b0846117ff565b508b5198895260208901528a88015260608701521693a36106cf578280f35b805468ff00000000000000001916905551600181527fc7f505b2f371ae2175ee4913f4499e1f2633a7b5936321eed1cdaeb6115181d290602090a138808280f35b60649060208c519162461bcd60e51b8352820152600a60248201526962616420706172616d7360b01b6044820152fd5b506064841115610577565b506064831115610571565b5081151561056b565b68ffffffffffffffffff191668010000000000000001178a5538610561565b508a5163f92ee8a960e01b8152fd5b90501538610545565b303b15915061053d565b8b9150610533565b8680fd5b919050346101a45760203660031901126101a45781358352826020528083209080519361012085019085821067ffffffffffffffff83111761089157509060c091815260018060a01b0383541693848652600184015491826020880152600285015465ffffffffffff8082169182848b015260301c16918260608a01526003870154938460808b0152870154948560a08b0152600660ff60058a01548c82821615159a8b91015260081c161515988960e08d01520154610100809b0152815198895260208901528701526060860152608085015260a084015260c083015260e0820152f35b634e487b7160e01b815260418552602490fd5b9050346101a457826003193601126101a4578151908282019082821067ffffffffffffffff8311176109305750825260058152602090640352e302e360dc1b6020820152825193849260208452825192836020860152825b84811061091a57505050828201840152601f01601f19168101030190f35b81810183015188820188015287955082016108fc565b634e487b7160e01b855260419052602484fd5b505034610153578160031936011261015357602090517f72c3eec1760bf69946625c2d4fb8e44e2c806345041960b434674fb9ab3976cf8152f35b50503461015357816003193601126101535751908152602090f35b9050346101a45760203660031901126101a4576001600160a01b0391826109be611572565b16928315610a9e57848052600080516020611a9083398151915260205281852033865260205260ff8286205416908115610a82575b8115610a68575b5015610a25575050600080516020611a7083398151915280546001600160a01b031916909117905580f35b906020606492519162461bcd60e51b8352820152601860248201527f43616c6c6572206973206e6f7420617574686f72697a656400000000000000006044820152fd5b9050600080516020611a70833981519152541615386109fa565b809150600080516020611a7083398151915254163314906109f3565b815162461bcd60e51b81526020818501526013602482015272496e76616c696420535056206164647265737360681b6044820152606490fd5b9050346101a457816003193601126101a4578160209360ff92610af8611557565b90358252600080516020611a9083398151915286528282206001600160a01b039091168252855220549151911615158152f35b505034610153578160031936011261015357602090517fb09aa5aeb3702cfd50b6b62bc4532604938f21248a27a1d5ca736082b6819cc18152f35b50503461015357816003193601126101535760209060ff7fcd5ed15c6e187e77e9aee88184c21f4f2182ab5827cb3b7e07fbedcd63f03300541690519015158152f35b828434610c225780600319360112610c2257507f00000000000000000000000000000000000000000000000000000000000000006001600160a01b03163003610c1557602090517f360894a13ba1a3210667c828492db98dca3e2076cc3735a920a3ca505d382bbc8152f35b5163703e46dd60e11b8152fd5b80fd5b505034610153578160031936011261015357600080516020611a708339815191525490516001600160a01b039091168152602090f35b918091506003193601126101a457610c71611572565b90602493843567ffffffffffffffff8111610153573660238201121561015357610ca3903690878188013591016115dc565b6001600160a01b037f00000000000000000000000000000000000000000000000000000000000000008116308114908115610ee7575b50610ed757828052602090600080516020611a908339815191528252848420338552825260ff858520541615610ebb578516948515610e795784516352d1902d60e01b8152828189818a5afa859181610e4a575b50610d485750505050505191634c9c8ce360e01b8352820152fd5b90878787938b7f360894a13ba1a3210667c828492db98dca3e2076cc3735a920a3ca505d382bbc91828103610e355750843b15610e21575080546001600160a01b0319168217905583518792917fbc7cd75a20ee27fd9adebab32041f755214dbc6bffa90cc0225b39da2e5c2d3b8480a2865115610e045750508085856101a097519101845af4913d15610dfa573d610dec610de3826115c0565b92519283611588565b81528581943d92013e611a0c565b5060609250611a0c565b9450945050505034610e1557505080f35b63b398979f60e01b8152fd5b8551634c9c8ce360e01b8152808501849052fd5b8651632a87526960e21b815280860191909152fd5b9091508381813d8311610e72575b610e628183611588565b810103126104aa57519038610d2d565b503d610e58565b845162461bcd60e51b8152808801839052601b818a01527f5350563a20696e76616c696420696d706c656d656e746174696f6e00000000006044820152606490fd5b845163e2517d3f60e01b81523381890152808901859052604490fd5b835163703e46dd60e11b81528690fd5b9050817f360894a13ba1a3210667c828492db98dca3e2076cc3735a920a3ca505d382bbc5416141538610cd9565b9050346101a457816003193601126101a4578160209360ff92610f36611557565b90358252600186528282206001600160a01b039091168252855220549151911615158152f35b9050346101a45760203660031901126101a45767ffffffffffffffff91813583811161113b573660238201121561113b578083013593841161113b57366024858301011161113b57610fac611675565b610fb4611722565b7f9005808f39b9f6be7fb7b931412933d2ae33e2d571a8a2a824c339a9a167f8a893845460001981146111285760010180955584865285602052828620600581019283549260ff8460081c166110f95782546001600160a01b03191633178355611023913691906024016115dc565b602081519101209485600183015565ffffffffffff9081421660028401928354928265ffffffffffff19851617855581600080516020611a708339815191525460a01c1683019182116110e657506bffffffffffffffffffffffff199092161760309190911b6bffffffffffff0000000000001617905560060185905561ff0019166101001790558051338152602081019290925281018290527f67b4ee269a35a1922c63a7b4c97535005e1e6a6309edf12f4c6b43822bd7de6990606090a280f35b634e487b7160e01b8c526011905260248bfd5b855162461bcd60e51b81526020818901526009602482015268696420696e2075736560b81b6044820152606490fd5b634e487b7160e01b875260118552602487fd5b8480fd5b838334610153578060031936011261015357611159611557565b90336001600160a01b0383160361117657506101a0919235611948565b5163334bd91960e11b81528390fd5b919050346101a457806003193601126101a4576101a091356111aa600161017c611557565b6118c1565b9050346101a45760203660031901126101a45781602093600192358152600080516020611a9083398151915285522001549051908152f35b83833461015357602090816003193601126101a457833590611207611675565b61120f611722565b7f9b779b17422d0df92223018b32b4d1fa46e071723d6817e2486d003becc55f009260028454146114f457600284558285528481528185209060058201805460ff8160081c16806114dc575b806114d1575b1561149d5761ffff191660011790556003820154918701546112839083611613565b92831561146f57600080516020611a70833981519152548151630761593960e11b81526001600160a01b0391849082908c90829086165afa908115611465579084918a91611448575b5083516370a0823160e01b815230818d01529283916024918391165afa90811561143e57889161140d575b50606485028581046064036113fa579061131091611655565b7f9005808f39b9f6be7fb7b931412933d2ae33e2d571a8a2a824c339a9a167f8a754116113c25750506064810290808204606414901517156113af57600193929161135a91611655565b7f9005808f39b9f6be7fb7b931412933d2ae33e2d571a8a2a824c339a9a167f8a654111561138757505580f35b7f712ae1383f79ac853f8d882153778e0260ef8f03b504e2866e0593e04d2b291f8480a25580f35b634e487b7160e01b855260118652602485fd5b5162461bcd60e51b81528088019190915260126024820152711c5d5bdc9d5b481b9bdd081c995858da195960721b6044820152606490fd5b634e487b7160e01b895260118a52602489fd5b90508281813d8311611437575b6114248183611588565b810103126114335751896112f7565b8780fd5b503d61141a565b82513d8a823e3d90fd5b61145f9150823d8411610404576103f68183611588565b8b6112cc565b83513d8b823e3d90fd5b5162461bcd60e51b81528088019190915260086024820152676e6f20766f74657360c01b6044820152606490fd5b845162461bcd60e51b8152808a01849052600e60248201526d6e6f742065786563757461626c6560901b6044820152606490fd5b5060ff811615611261565b5065ffffffffffff600285015460301c16421161125b565b8151633ee5aeb560e01b81528690fd5b8491346101a45760203660031901126101a4573563ffffffff60e01b81168091036101a45760209250637965db0b60e01b8114908115611546575b5015158152f35b6301ffc9a760e01b1490508361153f565b602435906001600160a01b038216820361156d57565b600080fd5b600435906001600160a01b038216820361156d57565b90601f8019910116810190811067ffffffffffffffff8211176115aa57604052565b634e487b7160e01b600052604160045260246000fd5b67ffffffffffffffff81116115aa57601f01601f191660200190565b9291926115e8826115c0565b916115f66040519384611588565b82948184528183011161156d578281602093846000960137010152565b9190820180921161162057565b634e487b7160e01b600052601160045260246000fd5b9081602091031261156d57516001600160a01b038116810361156d5790565b811561165f570490565b634e487b7160e01b600052601260045260246000fd5b3360009081527f5a8734c34b98d7c96eb2ea25f298989407e1f25da116ec139bcce0887bcb7cf760205260409020547fb09aa5aeb3702cfd50b6b62bc4532604938f21248a27a1d5ca736082b6819cc19060ff16156116d15750565b6044906040519063e2517d3f60e01b82523360048301526024820152fd5b80600052600080516020611a9083398151915260205260406000203360005260205260ff60406000205416156116d15750565b60ff7fcd5ed15c6e187e77e9aee88184c21f4f2182ab5827cb3b7e07fbedcd63f03300541661174d57565b60405163d93c066560e01b8152600490fd5b6001600160a01b031660008181527fb7db2dd08fcb62d0c9e08c51941cae53c267786a0b75803fb7960902fc8ef97d6020526040812054909190600080516020611a908339815191529060ff166117fa578280526020526040822081835260205260408220600160ff1982541617905533917f2f8788117e7eff1d82e926ec794901d17c78024a50270940304540a733656f0d8180a4600190565b505090565b6001600160a01b031660008181527f5a8734c34b98d7c96eb2ea25f298989407e1f25da116ec139bcce0887bcb7cf760205260408120549091907fb09aa5aeb3702cfd50b6b62bc4532604938f21248a27a1d5ca736082b6819cc190600080516020611a908339815191529060ff166118bb578184526020526040832082845260205260408320600160ff198254161790557f2f8788117e7eff1d82e926ec794901d17c78024a50270940304540a733656f0d339380a4600190565b50505090565b90600091808352600080516020611a9083398151915280602052604084209260018060a01b03169283855260205260ff604085205416156000146118bb578184526020526040832082845260205260408320600160ff198254161790557f2f8788117e7eff1d82e926ec794901d17c78024a50270940304540a733656f0d339380a4600190565b90600091808352600080516020611a9083398151915280602052604084209260018060a01b03169283855260205260ff6040852054166000146118bb57818452602052604083208284526020526040832060ff1981541690557ff6391f5c32d9c69d2a47ea670b442974b53935d1edc7fd64eb21e047a839171b339380a4600190565b60ff7ff0c57e16840df040f15088dc2f81fe391c3923bec73e23a9662efc9c229c6a005460401c16156119fa57565b604051631afcd79f60e31b8152600490fd5b90611a335750805115611a2157602081519101fd5b60405163d6bda27560e01b8152600490fd5b81511580611a66575b611a44575090565b604051639996b31560e01b81526001600160a01b039091166004820152602490fd5b50803b15611a3c56fe9005808f39b9f6be7fb7b931412933d2ae33e2d571a8a2a824c339a9a167f8a402dd7bc7dec4dceedda775e58dd541e08a116c6c53815c0bd028192f7b626800a2646970667358221220e183ecc6b995bcde5487010479e681e804729e47f9ee04935f4856c8c0ab444764736f6c63430008180033","linkReferences":{}},"methodIdentifiers":{"DEFAULT_ADMIN_ROLE()":"a217fddf","PROPOSER_ROLE()":"8f61f4f5","UPGRADE_INTERFACE_VERSION()":"ad3cb1cc","VOTER_ROLE()":"a94015c8","executeProposal(uint256)":"0d61b519","getRoleAdmin(bytes32)":"248a9ca3","grantRole(bytes32,address)":"2f2ff15d","hasRole(bytes32,address)":"91d14854","hasVoted(uint256,address)":"43859632","initialize(address,address,uint48,uint256,uint256,uint256)":"bbee2681","paused()":"5c975abb","proposalCount()":"da35c664","proposalInfo(uint256)":"ae092e89","propose(bytes)":"37558af5","proxiableUUID()":"52d1902d","renounceRole(bytes32,address)":"36568abe","revokeRole(bytes32,address)":"d547741f","setSPV(address)":"a1f7c132","spvContract()":"52cdad6e","supportsInterface(bytes4)":"01ffc9a7","upgradeToAndCall(address,bytes)":"4f1ef286","vote(uint256,bool)":"c9d27afe"},"id":71}