{"abi":[{"type":"function","name":"DEFAULT_ADMIN_ROLE","inputs":[],"outputs":[{"name":"","type":"bytes32","internalType":"bytes32"}],"stateMutability":"view"},{"type":"function","name":"UPGRADE_INTERFACE_VERSION","inputs":[],"outputs":[{"name":"","type":"string","internalType":"string"}],"stateMutability":"view"},{"type":"function","name":"daoImpl","inputs":[],"outputs":[{"name":"","type":"address","internalType":"address"}],"stateMutability":"view"},{"type":"function","name":"daoOf","inputs":[{"name":"","type":"bytes32","internalType":"bytes32"}],"outputs":[{"name":"","type":"address","internalType":"address"}],"stateMutability":"view"},{"type":"function","name":"deploySPV","inputs":[{"name":"spvId","type":"string","internalType":"string"},{"name":"name","type":"string","internalType":"string"},{"name":"admin","type":"address","internalType":"address"},{"name":"metaCID","type":"bytes32","internalType":"bytes32"}],"outputs":[],"stateMutability":"nonpayable"},{"type":"function","name":"getRoleAdmin","inputs":[{"name":"role","type":"bytes32","internalType":"bytes32"}],"outputs":[{"name":"","type":"bytes32","internalType":"bytes32"}],"stateMutability":"view"},{"type":"function","name":"grantRole","inputs":[{"name":"role","type":"bytes32","internalType":"bytes32"},{"name":"account","type":"address","internalType":"address"}],"outputs":[],"stateMutability":"nonpayable"},{"type":"function","name":"hasRole","inputs":[{"name":"role","type":"bytes32","internalType":"bytes32"},{"name":"account","type":"address","internalType":"address"}],"outputs":[{"name":"","type":"bool","internalType":"bool"}],"stateMutability":"view"},{"type":"function","name":"initialize","inputs":[{"name":"_registry","type":"address","internalType":"address"},{"name":"_spv","type":"address","internalType":"address"},{"name":"_dao","type":"address","internalType":"address"},{"name":"_ledger","type":"address","internalType":"address"},{"name":"_admin","type":"address","internalType":"address"}],"outputs":[],"stateMutability":"nonpayable"},{"type":"function","name":"ledgerImpl","inputs":[],"outputs":[{"name":"","type":"address","internalType":"address"}],"stateMutability":"view"},{"type":"function","name":"ledgerOf","inputs":[{"name":"","type":"bytes32","internalType":"bytes32"}],"outputs":[{"name":"","type":"address","internalType":"address"}],"stateMutability":"view"},{"type":"function","name":"pause","inputs":[],"outputs":[],"stateMutability":"nonpayable"},{"type":"function","name":"paused","inputs":[],"outputs":[{"name":"","type":"bool","internalType":"bool"}],"stateMutability":"view"},{"type":"function","name":"proxiableUUID","inputs":[],"outputs":[{"name":"","type":"bytes32","internalType":"bytes32"}],"stateMutability":"view"},{"type":"function","name":"registry","inputs":[],"outputs":[{"name":"","type":"address","internalType":"contract IProplexRegistry"}],"stateMutability":"view"},{"type":"function","name":"renounceRole","inputs":[{"name":"role","type":"bytes32","internalType":"bytes32"},{"name":"callerConfirmation","type":"address","internalType":"address"}],"outputs":[],"stateMutability":"nonpayable"},{"type":"function","name":"revokeRole","inputs":[{"name":"role","type":"bytes32","internalType":"bytes32"},{"name":"account","type":"address","internalType":"address"}],"outputs":[],"stateMutability":"nonpayable"},{"type":"function","name":"setImpl","inputs":[{"name":"what","type":"string","internalType":"string"},{"name":"impl","type":"address","internalType":"address"}],"outputs":[],"stateMutability":"nonpayable"},{"type":"function","name":"spvImpl","inputs":[],"outputs":[{"name":"","type":"address","internalType":"address"}],"stateMutability":"view"},{"type":"function","name":"spvOf","inputs":[{"name":"","type":"bytes32","internalType":"bytes32"}],"outputs":[{"name":"","type":"address","internalType":"address"}],"stateMutability":"view"},{"type":"function","name":"supportsInterface","inputs":[{"name":"interfaceId","type":"bytes4","internalType":"bytes4"}],"outputs":[{"name":"","type":"bool","internalType":"bool"}],"stateMutability":"view"},{"type":"function","name":"unpause","inputs":[],"outputs":[],"stateMutability":"nonpayable"},{"type":"function","name":"upgradeToAndCall","inputs":[{"name":"newImplementation","type":"address","internalType":"address"},{"name":"data","type":"bytes","internalType":"bytes"}],"outputs":[],"stateMutability":"payable"},{"type":"event","name":"ImplUpdated","inputs":[{"name":"what","type":"string","indexed":true,"internalType":"string"},{"name":"impl","type":"address","indexed":true,"internalType":"address"}],"anonymous":false},{"type":"event","name":"Initialized","inputs":[{"name":"version","type":"uint64","indexed":false,"internalType":"uint64"}],"anonymous":false},{"type":"event","name":"Paused","inputs":[{"name":"account","type":"address","indexed":false,"internalType":"address"}],"anonymous":false},{"type":"event","name":"RoleAdminChanged","inputs":[{"name":"role","type":"bytes32","indexed":true,"internalType":"bytes32"},{"name":"previousAdminRole","type":"bytes32","indexed":true,"internalType":"bytes32"},{"name":"newAdminRole","type":"bytes32","indexed":true,"internalType":"bytes32"}],"anonymous":false},{"type":"event","name":"RoleGranted","inputs":[{"name":"role","type":"bytes32","indexed":true,"internalType":"bytes32"},{"name":"account","type":"address","indexed":true,"internalType":"address"},{"name":"sender","type":"address","indexed":true,"internalType":"address"}],"anonymous":false},{"type":"event","name":"RoleRevoked","inputs":[{"name":"role","type":"bytes32","indexed":true,"internalType":"bytes32"},{"name":"account","type":"address","indexed":true,"internalType":"address"},{"name":"sender","type":"address","indexed":true,"internalType":"address"}],"anonymous":false},{"type":"event","name":"SPVSuiteDeployed","inputs":[{"name":"idHash","type":"bytes32","indexed":true,"internalType":"bytes32"},{"name":"spv","type":"address","indexed":true,"internalType":"address"},{"name":"dao","type":"address","indexed":true,"internalType":"address"},{"name":"ledger","type":"address","indexed":false,"internalType":"address"},{"name":"spvId","type":"string","indexed":false,"internalType":"string"}],"anonymous":false},{"type":"event","name":"Unpaused","inputs":[{"name":"account","type":"address","indexed":false,"internalType":"address"}],"anonymous":false},{"type":"event","name":"Upgraded","inputs":[{"name":"implementation","type":"address","indexed":true,"internalType":"address"}],"anonymous":false},{"type":"error","name":"AccessControlBadConfirmation","inputs":[]},{"type":"error","name":"AccessControlUnauthorizedAccount","inputs":[{"name":"account","type":"address","internalType":"address"},{"name":"neededRole","type":"bytes32","internalType":"bytes32"}]},{"type":"error","name":"AddressEmptyCode","inputs":[{"name":"target","type":"address","internalType":"address"}]},{"type":"error","name":"AlreadyExists","inputs":[]},{"type":"error","name":"DeployFail","inputs":[]},{"type":"error","name":"ERC1967InvalidImplementation","inputs":[{"name":"implementation","type":"address","internalType":"address"}]},{"type":"error","name":"ERC1967NonPayable","inputs":[]},{"type":"error","name":"EmptyString","inputs":[]},{"type":"error","name":"EnforcedPause","inputs":[]},{"type":"error","name":"ExpectedPause","inputs":[]},{"type":"error","name":"FailedCall","inputs":[]},{"type":"error","name":"InvalidInitialization","inputs":[]},{"type":"error","name":"NotInitializing","inputs":[]},{"type":"error","name":"ReentrancyGuardReentrantCall","inputs":[]},{"type":"error","name":"UUPSUnauthorizedCallContext","inputs":[]},{"type":"error","name":"UUPSUnsupportedProxiableUUID","inputs":[{"name":"slot","type":"bytes32","internalType":"bytes32"}]}],"bytecode":{"object":"0x60a0806040523461002a57306080526118d3908161003082396080518181816109b90152610a760152f35b600080fdfe608060408181526004803610156200001657600080fd5b600092833560e01c90816301ffc9a7146200100f5750806314530eb71462000fe45780631459457a1462000dd7578063248a9ca31462000d9d5780632f2ff15d1462000d6d57806336568abe1462000d1f5780633f4ba83a1462000ca25780634f1ef2861462000a1e57806352d1902d14620009a25780635c975abb146200096e57806369a6bdff14620009435780636e8bb367146200058a5780637b10399914620005605780638456cb5914620004f157806391d14854146200049a578063a217fddf146200047d578063a9f7e54614620002d2578063ad3cb1cc146200025a578063b622098d1462000226578063b74f355014620001f3578063d547741f146200019e578063e5da41e6146200016f5763fb3af90c146200013857600080fd5b346200016b5760203660031901126200016b5735825260066020908152918190205490516001600160a01b039091168152f35b8280fd5b5050346200019a57816003193601126200019a5760015490516001600160a01b039091168152602090f35b5080fd5b5090346200016b57806003193601126200016b57620001ef9135620001e96001620001c862001084565b938387526000805160206200185e8339815191526020528620015462001377565b620013ac565b5080f35b50346200016b5760203660031901126200016b57803583526020908152918190205490516001600160a01b039091168152f35b50346200016b5760203660031901126200016b5735825260056020908152918190205490516001600160a01b039091168152f35b509134620002cf5780600319360112620002cf575080519080820182811067ffffffffffffffff821117620002ba57620002b69350815260058252640352e302e360dc1b6020830152519182916020835260208301906200118a565b0390f35b604184634e487b7160e01b6000525260246000fd5b80fd5b5090346200016b57806003193601126200016b57813567ffffffffffffffff8111620004795762000307903690840162001159565b80926200031362001084565b94620003213684866200111d565b602081519101207fbcf036ef354d086da44c24facedceacdb846b210406e4b35cab0fddc7b5ac0df8114600014620003b2575050600180546001600160a01b0319166001600160a01b0387161790555b51928392833781018481520390206001600160a01b03909116907f9a4b883373180089cc081c644a561eba93e149b8967d1218caa52e26849aaa218380a380f35b7f8510acf858a6208b10ca6a42b601609d333cd69cb8f62bc06998b9ca193225be8103620003fd575050600280546001600160a01b0319166001600160a01b03871617905562000371565b919250907f2c0e8db8fb1343f00f1c6b57af1cf6bf785c6b487e5c99ae90a4e98907f27011036200044c5750600380546001600160a01b0319166001600160a01b038616179055829062000371565b6020606492519162461bcd60e51b83528201526008602482015267426164207479706560c01b6044820152fd5b8380fd5b5050346200019a57816003193601126200019a5751908152602090f35b50346200016b57816003193601126200016b5781602093620004bb62001084565b923581526000805160206200185e8339815191528552209060018060a01b0316600052825260ff81600020541690519015158152f35b5050346200019a57816003193601126200019a5760207f62e78cea01bee320cd4e420270b5ea74000d11b0c9f74754ebdbfc544b05a25891620005336200131e565b6200053d62001431565b6000805160206200187e833981519152805460ff1916600117905551338152a180f35b5050346200019a57816003193601126200019a57905490516001600160a01b039091168152602090f35b509190346200019a5760803660031901126200019a5767ffffffffffffffff9280358481116200047957620005c3903690830162001159565b916024358681116200093f57620005de903690830162001159565b919050620005eb6200109b565b92620005f662001431565b7f9b779b17422d0df92223018b32b4d1fa46e071723d6817e2486d003becc55f009460028654146200092f5760028655620006333682846200111d565b96875160208099012093848a5280895260018060a01b039586838c20541662000920578315801562000914575b62000905578015908115620008f8575b50620008ea57600354825163189acdbd60e31b8b8201529787166024808a01829052895297908716606082018d811183821017620008d7578452620006b691906200145e565b8660025416835163bbee268160e01b8c8201528c602482015289604482015262093a80606482015260016084820152603260a4820152601460c482015260c481526101008101809e828210911117620008d7578c9d859d98999a9b9c9d526200071f916200145e565b908b8960015416928a8954169b8b8751948594638182e70760e01b908601526024850160c09052818b8b60e48801906200075992620011cc565b94169e8f6044870152606486015216998a608485015260a484015260c483015203601f19810182526200078d9082620010dd565b62000798916200145e565b96883b15620008d35782516350fbe09960e11b81529716818801819052968b81602481838d5af18015620008c957620008b3575b50863b15620008af578a825163041512cf60e11b815286838201528181602481838d5af18015620008a55762000880575b508690528952808a2080546001600160a01b0319908116881790915560058a52818b20805482168917905560068a52818b2080549091168517905580519384529783018890526001977fc47dd44349d24995b2c554e783a34f845e3f9a1f916443eb482bed1db2fb7072939283926200087992840191620011cc565b0390a45580f35b906200089381949c9693979592620010b2565b6200016b5792949093999138620007fd565b84513d84823e3d90fd5b8a80fd5b620008c1909b919b620010b2565b9938620007cc565b83513d8e823e3d90fd5b8b80fd5b634e487b7160e01b8d526041845260248dfd5b905163ecd7b0d160e01b8152fd5b6101009150113862000670565b50905163ecd7b0d160e01b8152fd5b50610100841162000660565b50905163119b4fd360e11b8152fd5b8651633ee5aeb560e01b81528390fd5b8580fd5b5050346200019a57816003193601126200019a5760035490516001600160a01b039091168152602090f35b5050346200019a57816003193601126200019a5760209060ff6000805160206200187e833981519152541690519015158152f35b509134620002cf5780600319360112620002cf57507f00000000000000000000000000000000000000000000000000000000000000006001600160a01b0316300362000a1157602090517f360894a13ba1a3210667c828492db98dca3e2076cc3735a920a3ca505d382bbc8152f35b5163703e46dd60e11b8152fd5b5090806003193601126200016b5762000a3662001068565b90602493843567ffffffffffffffff81116200019a57366023820112156200019a5762000a6c903690878188013591016200111d565b6001600160a01b037f0000000000000000000000000000000000000000000000000000000000000000811630811490811562000c73575b5062000c6357841693841562000c325783516352d1902d60e01b815260209190828189818a5afa85918162000bfd575b5062000aef5750505050505191634c9c8ce360e01b8352820152fd5b90878787938b7f360894a13ba1a3210667c828492db98dca3e2076cc3735a920a3ca505d382bbc9182810362000be85750843b1562000bd4575080546001600160a01b0319168217905583518792917fbc7cd75a20ee27fd9adebab32041f755214dbc6bffa90cc0225b39da2e5c2d3b8480a286511562000bb6575050808585620001ef97519101845af4913d1562000bab573d62000b9c62000b928262001100565b92519283620010dd565b81528581943d92013e62001522565b506060925062001522565b945094505050503462000bc857505080f35b63b398979f60e01b8152fd5b8551634c9c8ce360e01b8152808501849052fd5b8651632a87526960e21b815280860191909152fd5b9091508381813d831162000c2a575b62000c188183620010dd565b810103126200093f5751903862000ad3565b503d62000c0c565b835162461bcd60e51b8152602081880152600c818901526b155b985d5d1a1bdc9a5e995960a21b6044820152606490fd5b835163703e46dd60e11b81528690fd5b9050817f360894a13ba1a3210667c828492db98dca3e2076cc3735a920a3ca505d382bbc541614153862000aa3565b50346200016b57826003193601126200016b5762000cbf6200131e565b6000805160206200187e8339815191529081549060ff82161562000d11575060ff19169055513381527f5db9ee0a495bf2e6ff9c91a7834c1ba4fdd244a5e8aa4e537bd38aeae4b073aa90602090a180f35b8351638dfc202b60e01b8152fd5b509190346200019a57806003193601126200019a5762000d3e62001084565b90336001600160a01b0383160362000d5e5750620001ef919235620013ac565b5163334bd91960e11b81528390fd5b5090346200016b57806003193601126200016b57620001ef913562000d976001620001c862001084565b6200128f565b50346200016b5760203660031901126200016b57816020936001923581526000805160206200185e83398151915285522001549051908152f35b50346200016b5760a03660031901126200016b5762000df562001068565b9062000e0062001084565b9162000e0b6200109b565b6064356001600160a01b038181169182900362000fe05760843592818416840362000fdc577ff0c57e16840df040f15088dc2f81fe391c3923bec73e23a9662efc9c229c6a009687549560ff878b1c16159667ffffffffffffffff81169889158062000fd4575b6001809b14908162000fc9575b15908162000fbf575b5062000fb1575093809391928c829462000f469998978b8e8e67ffffffffffffffff19841617905562000f91575b5062000ec1620014e0565b62000ecb620014e0565b62000ed5620014e0565b62000edf620014e0565b62000ee9620014e0565b8b7f9b779b17422d0df92223018b32b4d1fa46e071723d6817e2486d003becc55f00556bffffffffffffffffffffffff60a01b96879116915416178d551683895416178855168160025416176002556003541617600355620011ed565b5062000f50578380f35b7fc7f505b2f371ae2175ee4913f4499e1f2633a7b5936321eed1cdaeb6115181d29260209268ff000000000000000019815416905551908152a13880808380f35b68ffffffffffffffffff191668010000000000000001178d553862000eb6565b8b5163f92ee8a960e01b8152fd5b9050153862000e88565b303b15915062000e7f565b508862000e72565b8880fd5b8780fd5b5050346200019a57816003193601126200019a5760025490516001600160a01b039091168152602090f35b925050346200016b5760203660031901126200016b573563ffffffff60e01b81168091036200016b5760209250637965db0b60e01b811490811562001056575b5015158152f35b6301ffc9a760e01b149050386200104f565b600435906001600160a01b03821682036200107f57565b600080fd5b602435906001600160a01b03821682036200107f57565b604435906001600160a01b03821682036200107f57565b67ffffffffffffffff8111620010c757604052565b634e487b7160e01b600052604160045260246000fd5b90601f8019910116810190811067ffffffffffffffff821117620010c757604052565b67ffffffffffffffff8111620010c757601f01601f191660200190565b9291926200112b8262001100565b916200113b6040519384620010dd565b8294818452818301116200107f578281602093846000960137010152565b9181601f840112156200107f5782359167ffffffffffffffff83116200107f57602083818601950101116200107f57565b919082519283825260005b848110620011b7575050826000602080949584010152601f8019910116010190565b60208183018101518483018201520162001195565b908060209392818452848401376000828201840152601f01601f1916010190565b6001600160a01b031660008181527fb7db2dd08fcb62d0c9e08c51941cae53c267786a0b75803fb7960902fc8ef97d60205260408120549091906000805160206200185e8339815191529060ff166200128a578280526020526040822081835260205260408220600160ff1982541617905533917f2f8788117e7eff1d82e926ec794901d17c78024a50270940304540a733656f0d8180a4600190565b505090565b906000918083526000805160206200185e83398151915280602052604084209260018060a01b03169283855260205260ff6040852054161560001462001318578184526020526040832082845260205260408320600160ff198254161790557f2f8788117e7eff1d82e926ec794901d17c78024a50270940304540a733656f0d339380a4600190565b50505090565b3360009081527fb7db2dd08fcb62d0c9e08c51941cae53c267786a0b75803fb7960902fc8ef97d602052604081205460ff1615620013595750565b6044906040519063e2517d3f60e01b82523360048301526024820152fd5b806000526000805160206200185e83398151915260205260406000203360005260205260ff6040600020541615620013595750565b906000918083526000805160206200185e83398151915280602052604084209260018060a01b03169283855260205260ff6040852054166000146200131857818452602052604083208284526020526040832060ff1981541690557ff6391f5c32d9c69d2a47ea670b442974b53935d1edc7fd64eb21e047a839171b339380a4600190565b60ff6000805160206200187e83398151915254166200144c57565b60405163d93c066560e01b8152600490fd5b90604051906102d3908183019083821067ffffffffffffffff831117620010c7576040620014aa9285946200158b86396001600160a01b0396871681526020810182905201906200118a565b03906000f08015620014d4571690813b15620014c257565b604051637b8b46a760e01b8152600490fd5b6040513d6000823e3d90fd5b60ff7ff0c57e16840df040f15088dc2f81fe391c3923bec73e23a9662efc9c229c6a005460401c16156200151057565b604051631afcd79f60e31b8152600490fd5b906200154b57508051156200153957602081519101fd5b60405163d6bda27560e01b8152600490fd5b8151158062001580575b6200155e575090565b604051639996b31560e01b81526001600160a01b039091166004820152602490fd5b50803b156200155556fe60806040526102d38038038061001481610194565b92833981019060408183031261018f5780516001600160a01b03811680820361018f5760208381015190936001600160401b03821161018f570184601f8201121561018f5780519061006d610068836101cf565b610194565b9582875285838301011161018f57849060005b83811061017b57505060009186010152813b15610163577f360894a13ba1a3210667c828492db98dca3e2076cc3735a920a3ca505d382bbc80546001600160a01b03191682179055604051907fbc7cd75a20ee27fd9adebab32041f755214dbc6bffa90cc0225b39da2e5c2d3b600080a28351156101455750600080848461012c96519101845af4903d1561013c573d61011c610068826101cf565b908152600081943d92013e6101ea565b505b6040516085908161024e8239f35b606092506101ea565b9250505034610154575061012e565b63b398979f60e01b8152600490fd5b60249060405190634c9c8ce360e01b82526004820152fd5b818101830151888201840152869201610080565b600080fd5b6040519190601f01601f191682016001600160401b038111838210176101b957604052565b634e487b7160e01b600052604160045260246000fd5b6001600160401b0381116101b957601f01601f191660200190565b9061021157508051156101ff57602081519101fd5b60405163d6bda27560e01b8152600490fd5b81511580610244575b610222575090565b604051639996b31560e01b81526001600160a01b039091166004820152602490fd5b50803b1561021a56fe60806040527f360894a13ba1a3210667c828492db98dca3e2076cc3735a920a3ca505d382bbc54600090819081906001600160a01b0316368280378136915af43d82803e15604b573d90f35b3d90fdfea2646970667358221220e4d64e6498b7b62a781718dbd08d84870f16299808199290df76780dd361a7d864736f6c6343000818003302dd7bc7dec4dceedda775e58dd541e08a116c6c53815c0bd028192f7b626800cd5ed15c6e187e77e9aee88184c21f4f2182ab5827cb3b7e07fbedcd63f03300a264697066735822122081bc5a5d8fb47e037a6bd4ec317ec67c42df1b8eb33314120dc957c32055140364736f6c63430008180033","linkReferences":{}},"methodIdentifiers":{"DEFAULT_ADMIN_ROLE()":"a217fddf","UPGRADE_INTERFACE_VERSION()":"ad3cb1cc","daoImpl()":"14530eb7","daoOf(bytes32)":"b622098d","deploySPV(string,string,address,bytes32)":"6e8bb367","getRoleAdmin(bytes32)":"248a9ca3","grantRole(bytes32,address)":"2f2ff15d","hasRole(bytes32,address)":"91d14854","initialize(address,address,address,address,address)":"1459457a","ledgerImpl()":"69a6bdff","ledgerOf(bytes32)":"fb3af90c","pause()":"8456cb59","paused()":"5c975abb","proxiableUUID()":"52d1902d","registry()":"7b103999","renounceRole(bytes32,address)":"36568abe","revokeRole(bytes32,address)":"d547741f","setImpl(string,address)":"a9f7e546","spvImpl()":"e5da41e6","spvOf(bytes32)":"b74f3550","supportsInterface(bytes4)":"01ffc9a7","unpause()":"3f4ba83a","upgradeToAndCall(address,bytes)":"4f1ef286"},"id":76}