{"abi":[{"type":"function","name":"DEFAULT_ADMIN_ROLE","inputs":[],"outputs":[{"name":"","type":"bytes32","internalType":"bytes32"}],"stateMutability":"view"},{"type":"function","name":"LEDGER_ADMIN_ROLE","inputs":[],"outputs":[{"name":"","type":"bytes32","internalType":"bytes32"}],"stateMutability":"view"},{"type":"function","name":"REVERSAL_TYPE","inputs":[],"outputs":[{"name":"","type":"bytes32","internalType":"bytes32"}],"stateMutability":"view"},{"type":"function","name":"UPGRADE_INTERFACE_VERSION","inputs":[],"outputs":[{"name":"","type":"string","internalType":"string"}],"stateMutability":"view"},{"type":"function","name":"getRoleAdmin","inputs":[{"name":"role","type":"bytes32","internalType":"bytes32"}],"outputs":[{"name":"","type":"bytes32","internalType":"bytes32"}],"stateMutability":"view"},{"type":"function","name":"getTransaction","inputs":[{"name":"txId","type":"uint256","internalType":"uint256"}],"outputs":[{"name":"t","type":"tuple","internalType":"struct ProplexFinancialLedger.Transaction","components":[{"name":"from","type":"address","internalType":"address"},{"name":"to","type":"address","internalType":"address"},{"name":"amount","type":"uint256","internalType":"uint256"},{"name":"txType","type":"bytes32","internalType":"bytes32"},{"name":"metadataCID","type":"bytes32","internalType":"bytes32"},{"name":"timestamp","type":"uint48","internalType":"uint48"}]}],"stateMutability":"view"},{"type":"function","name":"getTransactionsByReference","inputs":[{"name":"referenceId","type":"bytes32","internalType":"bytes32"}],"outputs":[{"name":"ids","type":"uint256[]","internalType":"uint256[]"},{"name":"txs","type":"tuple[]","internalType":"struct ProplexFinancialLedger.Transaction[]","components":[{"name":"from","type":"address","internalType":"address"},{"name":"to","type":"address","internalType":"address"},{"name":"amount","type":"uint256","internalType":"uint256"},{"name":"txType","type":"bytes32","internalType":"bytes32"},{"name":"metadataCID","type":"bytes32","internalType":"bytes32"},{"name":"timestamp","type":"uint48","internalType":"uint48"}]}],"stateMutability":"view"},{"type":"function","name":"getTransactionsByType","inputs":[{"name":"txType","type":"bytes32","internalType":"bytes32"},{"name":"offset","type":"uint256","internalType":"uint256"},{"name":"limit","type":"uint256","internalType":"uint256"}],"outputs":[{"name":"ids","type":"uint256[]","internalType":"uint256[]"},{"name":"txs","type":"tuple[]","internalType":"struct ProplexFinancialLedger.Transaction[]","components":[{"name":"from","type":"address","internalType":"address"},{"name":"to","type":"address","internalType":"address"},{"name":"amount","type":"uint256","internalType":"uint256"},{"name":"txType","type":"bytes32","internalType":"bytes32"},{"name":"metadataCID","type":"bytes32","internalType":"bytes32"},{"name":"timestamp","type":"uint48","internalType":"uint48"}]}],"stateMutability":"view"},{"type":"function","name":"grantRole","inputs":[{"name":"role","type":"bytes32","internalType":"bytes32"},{"name":"account","type":"address","internalType":"address"}],"outputs":[],"stateMutability":"nonpayable"},{"type":"function","name":"hasRole","inputs":[{"name":"role","type":"bytes32","internalType":"bytes32"},{"name":"account","type":"address","internalType":"address"}],"outputs":[{"name":"","type":"bool","internalType":"bool"}],"stateMutability":"view"},{"type":"function","name":"initialize","inputs":[{"name":"admin","type":"address","internalType":"address"}],"outputs":[],"stateMutability":"nonpayable"},{"type":"function","name":"pause","inputs":[],"outputs":[],"stateMutability":"nonpayable"},{"type":"function","name":"paused","inputs":[],"outputs":[{"name":"","type":"bool","internalType":"bool"}],"stateMutability":"view"},{"type":"function","name":"proxiableUUID","inputs":[],"outputs":[{"name":"","type":"bytes32","internalType":"bytes32"}],"stateMutability":"view"},{"type":"function","name":"recordBatchTransactions","inputs":[{"name":"txs","type":"tuple[]","internalType":"struct ProplexFinancialLedger.Transaction[]","components":[{"name":"from","type":"address","internalType":"address"},{"name":"to","type":"address","internalType":"address"},{"name":"amount","type":"uint256","internalType":"uint256"},{"name":"txType","type":"bytes32","internalType":"bytes32"},{"name":"metadataCID","type":"bytes32","internalType":"bytes32"},{"name":"timestamp","type":"uint48","internalType":"uint48"}]},{"name":"referenceId","type":"bytes32","internalType":"bytes32"}],"outputs":[{"name":"ids","type":"uint256[]","internalType":"uint256[]"}],"stateMutability":"nonpayable"},{"type":"function","name":"recordTransaction","inputs":[{"name":"from","type":"address","internalType":"address"},{"name":"to","type":"address","internalType":"address"},{"name":"amount","type":"uint256","internalType":"uint256"},{"name":"txType","type":"bytes32","internalType":"bytes32"},{"name":"metadataCID","type":"bytes32","internalType":"bytes32"},{"name":"referenceId","type":"bytes32","internalType":"bytes32"}],"outputs":[{"name":"txId","type":"uint256","internalType":"uint256"}],"stateMutability":"nonpayable"},{"type":"function","name":"renounceRole","inputs":[{"name":"role","type":"bytes32","internalType":"bytes32"},{"name":"callerConfirmation","type":"address","internalType":"address"}],"outputs":[],"stateMutability":"nonpayable"},{"type":"function","name":"reverseTransaction","inputs":[{"name":"origId","type":"uint256","internalType":"uint256"},{"name":"reason","type":"string","internalType":"string"},{"name":"metadataCID","type":"bytes32","internalType":"bytes32"}],"outputs":[{"name":"reversalId","type":"uint256","internalType":"uint256"}],"stateMutability":"nonpayable"},{"type":"function","name":"revokeRole","inputs":[{"name":"role","type":"bytes32","internalType":"bytes32"},{"name":"account","type":"address","internalType":"address"}],"outputs":[],"stateMutability":"nonpayable"},{"type":"function","name":"supportsInterface","inputs":[{"name":"interfaceId","type":"bytes4","internalType":"bytes4"}],"outputs":[{"name":"","type":"bool","internalType":"bool"}],"stateMutability":"view"},{"type":"function","name":"unpause","inputs":[],"outputs":[],"stateMutability":"nonpayable"},{"type":"function","name":"upgradeToAndCall","inputs":[{"name":"newImplementation","type":"address","internalType":"address"},{"name":"data","type":"bytes","internalType":"bytes"}],"outputs":[],"stateMutability":"payable"},{"type":"event","name":"BatchTransactionsRecorded","inputs":[{"name":"transactionIds","type":"uint256[]","indexed":false,"internalType":"uint256[]"},{"name":"referenceId","type":"bytes32","indexed":false,"internalType":"bytes32"}],"anonymous":false},{"type":"event","name":"Initialized","inputs":[{"name":"version","type":"uint64","indexed":false,"internalType":"uint64"}],"anonymous":false},{"type":"event","name":"LedgerInitialized","inputs":[{"name":"admin","type":"address","indexed":true,"internalType":"address"}],"anonymous":false},{"type":"event","name":"Paused","inputs":[{"name":"account","type":"address","indexed":false,"internalType":"address"}],"anonymous":false},{"type":"event","name":"RoleAdminChanged","inputs":[{"name":"role","type":"bytes32","indexed":true,"internalType":"bytes32"},{"name":"previousAdminRole","type":"bytes32","indexed":true,"internalType":"bytes32"},{"name":"newAdminRole","type":"bytes32","indexed":true,"internalType":"bytes32"}],"anonymous":false},{"type":"event","name":"RoleGranted","inputs":[{"name":"role","type":"bytes32","indexed":true,"internalType":"bytes32"},{"name":"account","type":"address","indexed":true,"internalType":"address"},{"name":"sender","type":"address","indexed":true,"internalType":"address"}],"anonymous":false},{"type":"event","name":"RoleRevoked","inputs":[{"name":"role","type":"bytes32","indexed":true,"internalType":"bytes32"},{"name":"account","type":"address","indexed":true,"internalType":"address"},{"name":"sender","type":"address","indexed":true,"internalType":"address"}],"anonymous":false},{"type":"event","name":"TransactionRecorded","inputs":[{"name":"txId","type":"uint256","indexed":true,"internalType":"uint256"},{"name":"from","type":"address","indexed":true,"internalType":"address"},{"name":"to","type":"address","indexed":true,"internalType":"address"},{"name":"amount","type":"uint256","indexed":false,"internalType":"uint256"},{"name":"txType","type":"bytes32","indexed":false,"internalType":"bytes32"},{"name":"metadataCID","type":"bytes32","indexed":false,"internalType":"bytes32"},{"name":"referenceId","type":"bytes32","indexed":false,"internalType":"bytes32"}],"anonymous":false},{"type":"event","name":"TransactionReversed","inputs":[{"name":"origTxId","type":"uint256","indexed":true,"internalType":"uint256"},{"name":"reversalTxId","type":"uint256","indexed":true,"internalType":"uint256"},{"name":"reason","type":"string","indexed":false,"internalType":"string"}],"anonymous":false},{"type":"event","name":"Unpaused","inputs":[{"name":"account","type":"address","indexed":false,"internalType":"address"}],"anonymous":false},{"type":"event","name":"Upgraded","inputs":[{"name":"implementation","type":"address","indexed":true,"internalType":"address"}],"anonymous":false},{"type":"error","name":"AccessControlBadConfirmation","inputs":[]},{"type":"error","name":"AccessControlUnauthorizedAccount","inputs":[{"name":"account","type":"address","internalType":"address"},{"name":"neededRole","type":"bytes32","internalType":"bytes32"}]},{"type":"error","name":"AddressEmptyCode","inputs":[{"name":"target","type":"address","internalType":"address"}]},{"type":"error","name":"ERC1967InvalidImplementation","inputs":[{"name":"implementation","type":"address","internalType":"address"}]},{"type":"error","name":"ERC1967NonPayable","inputs":[]},{"type":"error","name":"EnforcedPause","inputs":[]},{"type":"error","name":"ExpectedPause","inputs":[]},{"type":"error","name":"FailedCall","inputs":[]},{"type":"error","name":"InvalidInitialization","inputs":[]},{"type":"error","name":"InvalidParameter","inputs":[{"name":"parameter","type":"string","internalType":"string"}]},{"type":"error","name":"NotInitializing","inputs":[]},{"type":"error","name":"ReentrancyGuardReentrantCall","inputs":[]},{"type":"error","name":"UUPSUnauthorizedCallContext","inputs":[]},{"type":"error","name":"UUPSUnsupportedProxiableUUID","inputs":[{"name":"slot","type":"bytes32","internalType":"bytes32"}]},{"type":"error","name":"ZeroAddress","inputs":[{"name":"parameter","type":"string","internalType":"string"}]}],"bytecode":{"object":"0x60a0806040523461002a573060805261255b90816100308239608051818181610f84015261106a0152f35b600080fdfe608080604052600436101561001357600080fd5b60003560e01c90816301ffc9a71461192257508063155ff08b146114a9578063248a9ca31461146d5780632f2ff15d1461142157806333ea3dc81461133757806336568abe146112f05780633f4ba83a146112795780634f1ef28614610fee57806352d1902d14610f715780635c975abb14610f415780635ede3c0c14610f065780637898c8d314610d845780638456cb5914610d1d57806391d1485414610cc3578063a217fddf14610ca7578063ad3cb1cc14610c61578063b1f4cae814610974578063b5a287b81461093e578063b6485de114610915578063bddc0bfc14610691578063c4d66de8146101645763d547741f1461011157600080fd5b3461015f57604036600319011261015f5761015d6004356101306119a9565b90806000526000805160206124a6833981519152602052610158600160406000200154611ff1565b6122cf565b005b600080fd5b3461015f5760208060031936011261015f5761017e6119bf565b907ff0c57e16840df040f15088dc2f81fe391c3923bec73e23a9662efc9c229c6a0091825460ff8160401c16159067ffffffffffffffff811680159081610689575b600114908161067f575b159081610676575b506106645767ffffffffffffffff198116600117855581610645575b5061023b6040516101fe81611a6b565b602681527f496e697469616c697a696e672050726f706c657846696e616e6369616c4c6564858201526533b2b917171760d11b6040820152612352565b6040519161024883611a4f565b600e83526d20b236b4b71030b2323932b9b99d60911b848401526040519060008061028b8785019663319af33360e01b8852604060248701526064860190611b3b565b9581808660018060a01b038716998a604483015203966102b3601f1998898101835282611aa3565b516a636f6e736f6c652e6c6f6793845afa506102eb6040516102d481611a4f565b600581526430b236b4b760d91b8a820152856120b0565b6040516102f781611a4f565b600d81526c29ba37b930b3b29039b637ba1d60991b8982015260405161036e6103388b830193632d839cb360e21b8552604060248501526064840190611b3b565b97827f5f0bf8ded4f8d26a69627e982831c69a3045668fd5e498bb810495a4b4ca88a7998a604483015203908101835282611aa3565b51915afa5060ff82541661060a57610541906103d160405161038f81611a6b565b602b81527f436f6e7472616374206e6f742079657420696e697469616c697a65642c207072888201526a37b1b2b2b234b73397171760a91b6040820152612352565b61040e6040516103e081611a4f565b601d81527f496e697469616c697a696e6720416363657373436f6e74726f6c2e2e2e00000088820152612352565b6104166123a1565b61045360405161042581611a4f565b601881527f496e697469616c697a696e67205061757361626c652e2e2e000000000000000088820152612352565b61045b6123a1565b61049860405161046a81611a4f565b601f81527f496e697469616c697a696e6720555550535570677261646561626c652e2e2e0088820152612352565b6104a06123a1565b6104dd6040516104af81611a4f565b601f81527f496e697469616c697a696e67205265656e7472616e637947756172642e2e2e0088820152612352565b6104e56123a1565b6104ed6123a1565b60016000805160206124e68339815191525561053260405161050e81611a4f565b601381527229b2ba3a34b733903ab8103937b632b997171760691b88820152612352565b61053b816120e6565b50612186565b50600160ff198254161790556105a260405161055c81611a6b565b602f81527f50726f706c657846696e616e6369616c4c656467657220696e697469616c697a858201526e6564207375636365737366756c6c7960881b6040820152612352565b604051917f6b637ae7ada8a77bf855d49a0893c417a5e65bfa28a3ded215d42581d1f659ed600080a26105d157005b7fc7f505b2f371ae2175ee4913f4499e1f2633a7b5936321eed1cdaeb6115181d29268ff000000000000000019815416905560018152a1005b60405162461bcd60e51b8152600481018690526013602482015272105b1c9958591e481a5b9a5d1a585b1a5e9959606a1b6044820152606490fd5b68ffffffffffffffffff191668010000000000000001178455846101ee565b60405163f92ee8a960e01b8152600490fd5b905015866101d2565b303b1591506101ca565b8391506101c0565b3461015f5760c036600319011261015f5760206106ac6119bf565b6106b46119a9565b906106bd611f3d565b6106c5612024565b6106cd61204f565b6106de6106d8611bd9565b826120b0565b6106ef6106e9611bf9565b836120b0565b6107026106fa611c17565b60643561207f565b61071561070d611c39565b60843561207f565b6107226044351515611c60565b6000805160206124668339815191529161073c8354611ca1565b80935560405161074b81611a1d565b60018060a01b038316815260018060a01b0382168582015265ffffffffffff6005604083019260443584526060810160643581526080820190608435825260a08301958542168752896000526000805160206125068339815191528b5260406000209360018060a01b038151166001600160601b0360a01b908187541617865560018601918d60018060a01b0391015116908254161790555160028401555160038301555160048201550191511665ffffffffffff19825416179055606435600052600080516020612486833981519152845261082c836040600020611cf4565b60a4356108a9575b60408051604435815260643560208201526084359181019190915260a43560608201526001600160a01b03918216929091169083907f0f9336c76f5abc68f9373413270c3827fce765ad7ba6a4389e62cc0c91c8712d90608090a460016000805160206124e683398151915255604051908152f35b826000527f5f0bf8ded4f8d26a69627e982831c69a3045668fd5e498bb810495a4b4ca88aa845260a43560406000205560a4356000527f5f0bf8ded4f8d26a69627e982831c69a3045668fd5e498bb810495a4b4ca88ac8452610910836040600020611cf4565b610834565b3461015f57600036600319011261015f5760206040516000805160206124468339815191528152f35b3461015f57606036600319011261015f57610960604435602435600435611dd1565b9061097060405192839283611ae1565b0390f35b3461015f57606036600319011261015f5760043567ffffffffffffffff60243581811161015f573660238201121561015f57806004013591821161015f57366024838301011161015f576109c6611f3d565b6109ce612024565b6109d661204f565b82151580610c31575b15610bfb576020927ff06eb08ada3e93254d5db4a1d727d4a6736cfd2fee01c8044b83357f8c9bba926024604060008051602061246683398151915294610a268654611ca1565b96878097558560005260008051602061250683398151915289528260002060018060a01b0360018201541660018060a01b03825416600283015490865192610a6d84611a1d565b83528c83015285820152600080516020612446833981519152606082015265ffffffffffff60056080830192604435845260a081019383421685528c6000526000805160206125068339815191528f526060896000209260018060a01b038151166001600160601b0360a01b9081865416178555600185019060018060a01b03602084015116908254161790558a8101516002850155015160038301555160048201550191511665ffffffffffff198254161790556000805160206124468339815191526000526000805160206124868339815191528a52610b528885600020611cf4565b60018060a01b03600182015416887f0f9336c76f5abc68f9373413270c3827fce765ad7ba6a4389e62cc0c91c8712d6080600260018060a01b0386541695015488519081526000805160206124468339815191528f8201526044358982015260006060820152a48083519485938b8552828c86015201848401376000828201840152601f01601f19168101030190a360016000805160206124e683398151915255604051908152f35b60405162461bcd60e51b815260206004820152600e60248201526d125b9d985b1a59081bdc9a59d25960921b6044820152606490fd5b50600083815260008051602061250683398151915260205260409020600101546001600160a01b031615156109df565b3461015f57600036600319011261015f57610970604051610c8181611a4f565b60058152640352e302e360dc1b6020820152604051918291602083526020830190611b3b565b3461015f57600036600319011261015f57602060405160008152f35b3461015f57604036600319011261015f57610cdc6119a9565b6004356000526000805160206124a683398151915260205260406000209060018060a01b0316600052602052602060ff604060002054166040519015158152f35b3461015f57600036600319011261015f57610d36611fb7565b610d3e612024565b6000805160206124c6833981519152600160ff198254161790557f62e78cea01bee320cd4e420270b5ea74000d11b0c9f74754ebdbfc544b05a2586020604051338152a1005b3461015f5760208060031936011261015f576004358015610ecb576000527f5f0bf8ded4f8d26a69627e982831c69a3045668fd5e498bb810495a4b4ca88ac81526040600020604051808284829454938481520190600052846000209260005b86828210610eb55784610df981860382611aa3565b610e038151611d74565b9160005b8251811015610ea45780610e1d60019285611d2e565b516000526000805160206125068339815191528352604060002065ffffffffffff600560405192610e4d84611a1d565b858060a01b0380825416855286820154168785015260028101546040850152600381015460608501526004810154608085015201541660a0820152610e928287611d2e565b52610e9d8186611d2e565b5001610e07565b505061097060405192839283611ae1565b8554845260019586019587955093019201610de4565b60405162461bcd60e51b8152600481018390526013602482015272125b9d985b1a59081c9959995c995b98d95259606a1b6044820152606490fd5b3461015f57600036600319011261015f5760206040517fa69562b09d34463880d9b45828f5cf38a9ef2c57125dd7bf38ac1125ddb75ef38152f35b3461015f57600036600319011261015f57602060ff6000805160206124c683398151915254166040519015158152f35b3461015f57600036600319011261015f577f00000000000000000000000000000000000000000000000000000000000000006001600160a01b03163003610fdc5760206040517f360894a13ba1a3210667c828492db98dca3e2076cc3735a920a3ca505d382bbc8152f35b60405163703e46dd60e11b8152600490fd5b604036600319011261015f576110026119bf565b602490813567ffffffffffffffff811161015f573660238201121561015f57806004013561102f81611ac5565b9261103d6040519485611aa3565b818452602091828501933687838301011161015f5781600092888693018737860101526001600160a01b037f0000000000000000000000000000000000000000000000000000000000000000811630811490811561124b575b50610fdc576110a3611fb7565b8116938415611216576040516352d1902d60e01b81528381600481895afa600091816111e7575b506110e757604051634c9c8ce360e01b8152600481018790528790fd5b8590877f360894a13ba1a3210667c828492db98dca3e2076cc3735a920a3ca505d382bbc918281036111d25750843b156111bc575080546001600160a01b03191682179055604051907fbc7cd75a20ee27fd9adebab32041f755214dbc6bffa90cc0225b39da2e5c2d3b600080a28151156111a15750600061015d9481925190845af4903d15611198573d61117b81611ac5565b906111896040519283611aa3565b8152600081943d92013e6123e2565b606092506123e2565b9350505050346111ad57005b63b398979f60e01b8152600490fd5b604051634c9c8ce360e01b815260048101849052fd5b60405190632a87526960e21b82526004820152fd5b9091508481813d831161120f575b6111ff8183611aa3565b8101031261015f575190886110ca565b503d6111f5565b60405162461bcd60e51b815260048101849052600e818801526d43616e6e6f74206265205a65726f60901b6044820152606490fd5b9050817f360894a13ba1a3210667c828492db98dca3e2076cc3735a920a3ca505d382bbc5416141587611096565b3461015f57600036600319011261015f57611292611fb7565b6000805160206124c6833981519152805460ff8116156112de5760ff191690557f5db9ee0a495bf2e6ff9c91a7834c1ba4fdd244a5e8aa4e537bd38aeae4b073aa6020604051338152a1005b604051638dfc202b60e01b8152600490fd5b3461015f57604036600319011261015f576113096119a9565b336001600160a01b038216036113255761015d906004356122cf565b60405163334bd91960e11b8152600490fd5b3461015f57602036600319011261015f57600435611353611d42565b50806000526000805160206125068339815191528060205260018060a01b03908160016040600020015416156113ed5760c09260005260205265ffffffffffff60056040600020604051936113a785611a1d565b808254168552600182015416602085015260028101546040850152600381015460608501526004810154608085015201541660a08201526113eb60405180926119d5565bf35b60405162461bcd60e51b815260206004820152600c60248201526b125b9d985b1a59081d1e125960a21b6044820152606490fd5b3461015f57604036600319011261015f5761015d6004356114406119a9565b90806000526000805160206124a6833981519152602052611468600160406000200154611ff1565b612248565b3461015f57602036600319011261015f576004356000526000805160206124a68339815191526020526020600160406000200154604051908152f35b3461015f57604036600319011261015f5767ffffffffffffffff806004351161015f5736602360043501121561015f576004356004013590811161015f5736602460c0830260043501011161015f57611500611f3d565b611508612024565b61151061204f565b80151580611917575b156118d25761154d60405161152d81611a4f565b600b81526a1c9959995c995b98d9525960aa1b602082015260243561207f565b61155681611b93565b9060005b8181106115cc57610970837ffeba7e6563f4379a9104ad2c0a5f8c34b2de863fc2eac0f0605be54251fb5a75604051604081528061159b6040820185611975565b60243560208301520390a160016000805160206124e683398151915255604051918291602083526020830190611975565b806115f36115e5602460c0600195026004350101611bc5565b6115ed611bd9565b906120b0565b611611611609604460c084026004350101611bc5565b6115ed611bf9565b61162d61161c611c17565b608460c0840260043501013561207f565b611649611638611c39565b60a460c0840260043501013561207f565b61165f606460c083026004350101351515611c60565b61167760008051602061246683398151915254611ca1565b806000805160206124668339815191525561169b602460c084026004350101611bc5565b65ffffffffffff60056116b7604460c087026004350101611bc5565b92604051906116c582611a1d565b878060a01b031681526020810193878060a01b0316845260408101606460c08802600435010135815260608201608460c089026004350101358152608083019160a460c08a02600435010135835260a08401968642168852886000526000805160206125068339815191526020526040600020948b8060a01b039051166001600160601b0360a01b90818754161786558b8601918c8060a01b03905116908254161790555160028401555160038301555160048201550191511665ffffffffffff19825416179055608460c083026004350101356000526000805160206124868339815191526020526117bc816040600020611cf4565b602435611864575b806117cf8387611d2e565b526117e3602460c084026004350101611bc5565b906117f7604460c085026004350101611bc5565b6040805160c0860260043501606481013582526084810135602083015260a4013591810191909152602435606082015260a086901b8690039182169390911691907f0f9336c76f5abc68f9373413270c3827fce765ad7ba6a4389e62cc0c91c8712d90608090a40161155a565b806000527f5f0bf8ded4f8d26a69627e982831c69a3045668fd5e498bb810495a4b4ca88aa6020526024356040600020556024356000527f5f0bf8ded4f8d26a69627e982831c69a3045668fd5e498bb810495a4b4ca88ac6020526118cd816040600020611cf4565b6117c4565b60405162461bcd60e51b815260206004820152601860248201527f42617463682073697a65206d75737420626520312d31303000000000000000006044820152606490fd5b506064811115611519565b3461015f57602036600319011261015f576004359063ffffffff60e01b821680920361015f57602091637965db0b60e01b8114908115611964575b5015158152f35b6301ffc9a760e01b1490508361195d565b90815180825260208080930193019160005b828110611995575050505090565b835185529381019392810192600101611987565b602435906001600160a01b038216820361015f57565b600435906001600160a01b038216820361015f57565b65ffffffffffff60a08092600180831b038082511686526020820151166020860152604081015160408601526060810151606086015260808101516080860152015116910152565b60c0810190811067ffffffffffffffff821117611a3957604052565b634e487b7160e01b600052604160045260246000fd5b6040810190811067ffffffffffffffff821117611a3957604052565b6060810190811067ffffffffffffffff821117611a3957604052565b6020810190811067ffffffffffffffff821117611a3957604052565b90601f8019910116810190811067ffffffffffffffff821117611a3957604052565b67ffffffffffffffff8111611a3957601f01601f191660200190565b90611af490604083526040830190611975565b81810360209283015282518082529082019282019160005b828110611b1a575050505090565b909192938260c082611b2f60019489516119d5565b01950193929101611b0c565b919082519283825260005b848110611b67575050826000602080949584010152601f8019910116010190565b602081830181015184830182015201611b46565b67ffffffffffffffff8111611a395760051b60200190565b90611b9d82611b7b565b611baa6040519182611aa3565b8281528092611bbb601f1991611b7b565b0190602036910137565b356001600160a01b038116810361015f5790565b60405190611be682611a4f565b600482526366726f6d60e01b6020830152565b60405190611c0682611a4f565b6002825261746f60f01b6020830152565b60405190611c2482611a4f565b600682526574785479706560d01b6020830152565b60405190611c4682611a4f565b600b82526a1b595d1859185d1850d25160aa1b6020830152565b15611c6757565b60405162461bcd60e51b81526020600482015260126024820152710416d6f756e74206d757374206265203e20360741b6044820152606490fd5b6000198114611cb05760010190565b634e487b7160e01b600052601160045260246000fd5b8054821015611cde5760005260206000200190600090565b634e487b7160e01b600052603260045260246000fd5b805468010000000000000000811015611a3957611d1691600182018155611cc6565b819291549060031b91821b91600019901b1916179055565b8051821015611cde5760209160051b010190565b60405190611d4f82611a1d565b8160a06000918281528260208201528260408201528260608201528260808201520152565b90611d7e82611b7b565b611d8b6040519182611aa3565b8281528092611d9c601f1991611b7b565b019060005b828110611dad57505050565b602090611db8611d42565b82828501015201611da1565b91908203918211611cb057565b9290926000908152602060008051602061248683398151915260205260409081832094855480881015611f15578082611e0b8a8094611dc4565b1115611f05575050915b611e1e83611b93565b96611e2884611d74565b96855b858110611e3b5750505050505050565b808301808411611ef15790808b611e66611e5760019587611cc6565b939054600394851b1c92611d2e565b52611e71828d611d2e565b518952600080516020612506833981519152875265ffffffffffff6005878b20885193611e9d85611a1d565b868060a01b0380835416865287830154168b86015260028201548a86015281015460608501526004810154608085015201541660a0820152611edf828c611d2e565b52611eea818b611d2e565b5001611e2b565b634e487b7160e01b88526011600452602488fd5b611f0f9250611dc4565b91611e15565b5050509192509250805190611f2982611a87565b8382525192611f3784611a87565b83529190565b3360009081527fb7cdd440e2c8b63661479b8c0df9a67a0e3ee59592bd1ae3d6145bca4d0e0c0460205260409020547fa69562b09d34463880d9b45828f5cf38a9ef2c57125dd7bf38ac1125ddb75ef39060ff1615611f995750565b6044906040519063e2517d3f60e01b82523360048301526024820152fd5b3360009081527fb7db2dd08fcb62d0c9e08c51941cae53c267786a0b75803fb7960902fc8ef97d602052604081205460ff1615611f995750565b806000526000805160206124a683398151915260205260406000203360005260205260ff6040600020541615611f995750565b60ff6000805160206124c6833981519152541661203d57565b60405163d93c066560e01b8152600490fd5b6000805160206124e6833981519152600281541461206d5760029055565b604051633ee5aeb560e01b8152600490fd5b156120875750565b6040516305519d6f60e51b8152602060048201529081906120ac906024830190611b3b565b0390fd5b6001600160a01b0316156120c15750565b60405163eac0d38960e01b8152602060048201529081906120ac906024830190611b3b565b6001600160a01b031660008181527fb7db2dd08fcb62d0c9e08c51941cae53c267786a0b75803fb7960902fc8ef97d60205260408120549091906000805160206124a68339815191529060ff16612181578280526020526040822081835260205260408220600160ff1982541617905533917f2f8788117e7eff1d82e926ec794901d17c78024a50270940304540a733656f0d8180a4600190565b505090565b6001600160a01b031660008181527fb7cdd440e2c8b63661479b8c0df9a67a0e3ee59592bd1ae3d6145bca4d0e0c0460205260408120549091907fa69562b09d34463880d9b45828f5cf38a9ef2c57125dd7bf38ac1125ddb75ef3906000805160206124a68339815191529060ff16612242578184526020526040832082845260205260408320600160ff198254161790557f2f8788117e7eff1d82e926ec794901d17c78024a50270940304540a733656f0d339380a4600190565b50505090565b906000918083526000805160206124a683398151915280602052604084209260018060a01b03169283855260205260ff60408520541615600014612242578184526020526040832082845260205260408320600160ff198254161790557f2f8788117e7eff1d82e926ec794901d17c78024a50270940304540a733656f0d339380a4600190565b906000918083526000805160206124a683398151915280602052604084209260018060a01b03169283855260205260ff60408520541660001461224257818452602052604083208284526020526040832060ff1981541690557ff6391f5c32d9c69d2a47ea670b442974b53935d1edc7fd64eb21e047a839171b339380a4600190565b6000809160405161238e81612380602082019463104c13eb60e21b8652602060248401526044830190611b3b565b03601f198101835282611aa3565b51906a636f6e736f6c652e6c6f675afa50565b60ff7ff0c57e16840df040f15088dc2f81fe391c3923bec73e23a9662efc9c229c6a005460401c16156123d057565b604051631afcd79f60e31b8152600490fd5b9061240957508051156123f757602081519101fd5b60405163d6bda27560e01b8152600490fd5b8151158061243c575b61241a575090565b604051639996b31560e01b81526001600160a01b039091166004820152602490fd5b50803b1561241256fe2c6a27d2fac11ddb2e973426105e856fc43de72e2c68821459caa108eb0afd185f0bf8ded4f8d26a69627e982831c69a3045668fd5e498bb810495a4b4ca88a85f0bf8ded4f8d26a69627e982831c69a3045668fd5e498bb810495a4b4ca88ab02dd7bc7dec4dceedda775e58dd541e08a116c6c53815c0bd028192f7b626800cd5ed15c6e187e77e9aee88184c21f4f2182ab5827cb3b7e07fbedcd63f033009b779b17422d0df92223018b32b4d1fa46e071723d6817e2486d003becc55f005f0bf8ded4f8d26a69627e982831c69a3045668fd5e498bb810495a4b4ca88a9a26469706673582212204139070a5ad847ae8404dc08f1ecabecb6122a84a198fe61b08d55e19b28007964736f6c63430008180033","linkReferences":{}},"methodIdentifiers":{"DEFAULT_ADMIN_ROLE()":"a217fddf","LEDGER_ADMIN_ROLE()":"5ede3c0c","REVERSAL_TYPE()":"b6485de1","UPGRADE_INTERFACE_VERSION()":"ad3cb1cc","getRoleAdmin(bytes32)":"248a9ca3","getTransaction(uint256)":"33ea3dc8","getTransactionsByReference(bytes32)":"7898c8d3","getTransactionsByType(bytes32,uint256,uint256)":"b5a287b8","grantRole(bytes32,address)":"2f2ff15d","hasRole(bytes32,address)":"91d14854","initialize(address)":"c4d66de8","pause()":"8456cb59","paused()":"5c975abb","proxiableUUID()":"52d1902d","recordBatchTransactions((address,address,uint256,bytes32,bytes32,uint48)[],bytes32)":"155ff08b","recordTransaction(address,address,uint256,bytes32,bytes32,bytes32)":"bddc0bfc","renounceRole(bytes32,address)":"36568abe","reverseTransaction(uint256,string,bytes32)":"b1f4cae8","revokeRole(bytes32,address)":"d547741f","supportsInterface(bytes4)":"01ffc9a7","unpause()":"3f4ba83a","upgradeToAndCall(address,bytes)":"4f1ef286"},"id":72}