{"abi":[{"type":"function","name":"DEFAULT_ADMIN_ROLE","inputs":[],"outputs":[{"name":"","type":"bytes32","internalType":"bytes32"}],"stateMutability":"view"},{"type":"function","name":"UPGRADE_INTERFACE_VERSION","inputs":[],"outputs":[{"name":"","type":"string","internalType":"string"}],"stateMutability":"view"},{"type":"function","name":"cancelOrder","inputs":[{"name":"orderId_","type":"uint256","internalType":"uint256"}],"outputs":[],"stateMutability":"nonpayable"},{"type":"function","name":"completeOrder","inputs":[{"name":"orderId_","type":"uint256","internalType":"uint256"}],"outputs":[],"stateMutability":"nonpayable"},{"type":"function","name":"createOrder","inputs":[{"name":"investor_","type":"address","internalType":"address"},{"name":"amount_","type":"uint256","internalType":"uint256"}],"outputs":[{"name":"orderId_","type":"uint256","internalType":"uint256"}],"stateMutability":"payable"},{"type":"function","name":"emergencyWithdraw","inputs":[{"name":"amount_","type":"uint256","internalType":"uint256"}],"outputs":[],"stateMutability":"nonpayable"},{"type":"function","name":"getOrder","inputs":[{"name":"orderId_","type":"uint256","internalType":"uint256"}],"outputs":[{"name":"investor","type":"address","internalType":"address"},{"name":"amount","type":"uint256","internalType":"uint256"},{"name":"status","type":"uint8","internalType":"enum ProplexOrderManager.OrderStatus"},{"name":"createdAt","type":"uint48","internalType":"uint48"}],"stateMutability":"view"},{"type":"function","name":"getRoleAdmin","inputs":[{"name":"role","type":"bytes32","internalType":"bytes32"}],"outputs":[{"name":"","type":"bytes32","internalType":"bytes32"}],"stateMutability":"view"},{"type":"function","name":"getTokenPrice","inputs":[],"outputs":[{"name":"","type":"uint256","internalType":"uint256"}],"stateMutability":"view"},{"type":"function","name":"grantRole","inputs":[{"name":"role","type":"bytes32","internalType":"bytes32"},{"name":"account","type":"address","internalType":"address"}],"outputs":[],"stateMutability":"nonpayable"},{"type":"function","name":"hasRole","inputs":[{"name":"role","type":"bytes32","internalType":"bytes32"},{"name":"account","type":"address","internalType":"address"}],"outputs":[{"name":"","type":"bool","internalType":"bool"}],"stateMutability":"view"},{"type":"function","name":"initialize","inputs":[{"name":"assetToken_","type":"address","internalType":"address"},{"name":"assetManager_","type":"address","internalType":"address"},{"name":"assetOwner_","type":"address","internalType":"address"},{"name":"admin_","type":"address","internalType":"address"}],"outputs":[],"stateMutability":"nonpayable"},{"type":"function","name":"pause","inputs":[],"outputs":[],"stateMutability":"nonpayable"},{"type":"function","name":"paused","inputs":[],"outputs":[{"name":"","type":"bool","internalType":"bool"}],"stateMutability":"view"},{"type":"function","name":"proxiableUUID","inputs":[],"outputs":[{"name":"","type":"bytes32","internalType":"bytes32"}],"stateMutability":"view"},{"type":"function","name":"renounceRole","inputs":[{"name":"role","type":"bytes32","internalType":"bytes32"},{"name":"callerConfirmation","type":"address","internalType":"address"}],"outputs":[],"stateMutability":"nonpayable"},{"type":"function","name":"revokeRole","inputs":[{"name":"role","type":"bytes32","internalType":"bytes32"},{"name":"account","type":"address","internalType":"address"}],"outputs":[],"stateMutability":"nonpayable"},{"type":"function","name":"supportsInterface","inputs":[{"name":"interfaceId","type":"bytes4","internalType":"bytes4"}],"outputs":[{"name":"","type":"bool","internalType":"bool"}],"stateMutability":"view"},{"type":"function","name":"unpause","inputs":[],"outputs":[],"stateMutability":"nonpayable"},{"type":"function","name":"upgradeToAndCall","inputs":[{"name":"newImplementation","type":"address","internalType":"address"},{"name":"data","type":"bytes","internalType":"bytes"}],"outputs":[],"stateMutability":"payable"},{"type":"event","name":"Initialized","inputs":[{"name":"version","type":"uint64","indexed":false,"internalType":"uint64"}],"anonymous":false},{"type":"event","name":"OrderCancelled","inputs":[{"name":"orderId","type":"uint256","indexed":true,"internalType":"uint256"},{"name":"investor","type":"address","indexed":true,"internalType":"address"}],"anonymous":false},{"type":"event","name":"OrderCompleted","inputs":[{"name":"orderId","type":"uint256","indexed":true,"internalType":"uint256"},{"name":"investor","type":"address","indexed":true,"internalType":"address"},{"name":"amount","type":"uint256","indexed":false,"internalType":"uint256"}],"anonymous":false},{"type":"event","name":"OrderCreated","inputs":[{"name":"orderId","type":"uint256","indexed":true,"internalType":"uint256"},{"name":"investor","type":"address","indexed":true,"internalType":"address"},{"name":"amount","type":"uint256","indexed":false,"internalType":"uint256"}],"anonymous":false},{"type":"event","name":"OrderManagerInitialized","inputs":[{"name":"assetToken","type":"address","indexed":true,"internalType":"address"},{"name":"assetManager","type":"address","indexed":true,"internalType":"address"},{"name":"admin","type":"address","indexed":true,"internalType":"address"}],"anonymous":false},{"type":"event","name":"Paused","inputs":[{"name":"account","type":"address","indexed":false,"internalType":"address"}],"anonymous":false},{"type":"event","name":"RoleAdminChanged","inputs":[{"name":"role","type":"bytes32","indexed":true,"internalType":"bytes32"},{"name":"previousAdminRole","type":"bytes32","indexed":true,"internalType":"bytes32"},{"name":"newAdminRole","type":"bytes32","indexed":true,"internalType":"bytes32"}],"anonymous":false},{"type":"event","name":"RoleGranted","inputs":[{"name":"role","type":"bytes32","indexed":true,"internalType":"bytes32"},{"name":"account","type":"address","indexed":true,"internalType":"address"},{"name":"sender","type":"address","indexed":true,"internalType":"address"}],"anonymous":false},{"type":"event","name":"RoleRevoked","inputs":[{"name":"role","type":"bytes32","indexed":true,"internalType":"bytes32"},{"name":"account","type":"address","indexed":true,"internalType":"address"},{"name":"sender","type":"address","indexed":true,"internalType":"address"}],"anonymous":false},{"type":"event","name":"Unpaused","inputs":[{"name":"account","type":"address","indexed":false,"internalType":"address"}],"anonymous":false},{"type":"event","name":"Upgraded","inputs":[{"name":"implementation","type":"address","indexed":true,"internalType":"address"}],"anonymous":false},{"type":"error","name":"AccessControlBadConfirmation","inputs":[]},{"type":"error","name":"AccessControlUnauthorizedAccount","inputs":[{"name":"account","type":"address","internalType":"address"},{"name":"neededRole","type":"bytes32","internalType":"bytes32"}]},{"type":"error","name":"AddressEmptyCode","inputs":[{"name":"target","type":"address","internalType":"address"}]},{"type":"error","name":"ERC1967InvalidImplementation","inputs":[{"name":"implementation","type":"address","internalType":"address"}]},{"type":"error","name":"ERC1967NonPayable","inputs":[]},{"type":"error","name":"EnforcedPause","inputs":[]},{"type":"error","name":"ExpectedPause","inputs":[]},{"type":"error","name":"FailedCall","inputs":[]},{"type":"error","name":"InvalidAmount","inputs":[{"name":"parameter","type":"string","internalType":"string"}]},{"type":"error","name":"InvalidInitialization","inputs":[]},{"type":"error","name":"NotInitializing","inputs":[]},{"type":"error","name":"ReentrancyGuardReentrantCall","inputs":[]},{"type":"error","name":"UUPSUnauthorizedCallContext","inputs":[]},{"type":"error","name":"UUPSUnsupportedProxiableUUID","inputs":[{"name":"slot","type":"bytes32","internalType":"bytes32"}]},{"type":"error","name":"ZeroAddress","inputs":[{"name":"parameter","type":"string","internalType":"string"}]}],"bytecode":{"object":"0x60a0806040523461002a573060805261168090816100308239608051818181610b540152610cd60152f35b600080fdfe608060408181526004908136101561001657600080fd5b600092833560e01c90816301ffc9a71461105a57508063248a9ca3146110225780632f2ff15d14610ffa57806336568abe14610fb35780633f4ba83a14610f3b5780634b94f50e14610f175780634f1ef28614610c5c578063514fcac714610bb857806352d1902d14610b3f578381635312ea8e14610af7575080635c975abb14610ac65780636c16b545146108635780638456cb59146107fb57806391d14854146107a7578063a217fddf1461078c578063ad3cb1cc1461074b578063b6adaaff14610493578063d09ef24114610409578063d547741f146103be5763f8c8765e1461010257600080fd5b346103ba5760803660031901126103ba5761011b6110c4565b6101236110ae565b6001600160a01b039360443580861690036103b5578460643516606435036103b5577ff0c57e16840df040f15088dc2f81fe391c3923bec73e23a9662efc9c229c6a009384549360ff85831c16159467ffffffffffffffff8116801590816103ad575b60011490816103a3575b15908161039a575b5061038b5767ffffffffffffffff19811660011787558791908661036c575b506101e383516101c6816110da565b600a81526930b9b9b2ba2a37b5b2b760b11b602082015282611518565b61021083516101f1816110da565b600c81526b30b9b9b2ba26b0b730b3b2b960a11b602082015286611518565b61023d835161021e816110da565b600a81526930b9b9b2ba27bbb732b960b11b6020820152604435611518565b610265835161024b816110da565b600581526430b236b4b760d91b6020820152606435611518565b61026d611546565b610275611546565b61027d611546565b610285611546565b61028d611546565b600160008051602061162b833981519152551692670de0b6b3a7640000876bffffffffffffffffffffffff60a01b9286848c5416178b5516938483600154161760015588604435168360025416176002555586606435169060055416176005556102f860643561130d565b50519460643516917f13edc7d887bdea7faf8860784585e4fe87efbd28fb4366f2a5f572cae64db2558780a461032c578280f35b805468ff000000000000000019169055600181527fc7f505b2f371ae2175ee4913f4499e1f2633a7b5936321eed1cdaeb6115181d290602090a138808280f35b68ffffffffffffffffff191668010000000000000001178755386101b7565b50505163f92ee8a960e01b8152fd5b90501538610198565b303b159150610190565b879150610186565b600080fd5b8280fd5b50346103ba57806003193601126103ba57610405913561040060016103e16110ae565b938387526000805160206115eb833981519152602052862001546112da565b61143a565b5080f35b5082346104905760203660031901126104905782358152600660205281812080546001600160a01b03169261043f841515611206565b600260018301549201549260ff84169282519586526020860152600383101561047d5760808565ffffffffffff86868684015260081c166060820152f35b634e487b7160e01b815260218652602490fd5b80fd5b50829034610747576020806003193601126103ba578335906104b36114bd565b6104bb6114e8565b8184526006815282842080546001600160a01b0390811694916104df861515611206565b600281019586549860ff8a166003811015610734576104fe9015611242565b8389541684600254169886519b8c926370a0823160e01b84528b858501528960249e8f81845afa9384156106c2578d94610705575b50600187019b8c548095106106cc578e60448c928b60015416948d519586948593636eb1769f60e11b85528c8501528301525afa9081156106c2579084918e9161068d575b50106106525760019060ff19161790558460015416856002541691813b1561064e578b92838e936064938b51988996879563a64b6e5f60e01b87528a87015285015260448401525af1801561064457610612575b5050907fe542d9ced06ebf48c00dc3567a112897fa34963ecc9a6ebf2beba9bc70f56894939291541694549051908152a3600160008051602061162b8339815191525580f35b67ffffffffffffffff8299939911610632575083529596508688806105cc565b634e487b7160e01b8352604190528882fd5b85513d8b823e3d90fd5b8b80fd5b875162461bcd60e51b81528085018a90526016818f015275496e73756666696369656e7420616c6c6f77616e636560501b6044820152606490fd5b8092508b8092503d83116106bb575b6106a6818361110c565b810103126106b7578390518f610578565b8c80fd5b503d61069c565b89513d8f823e3d90fd5b60648f601488918e8e519362461bcd60e51b855284015282015273496e73756666696369656e742062616c616e636560601b6044820152fd5b9093508981813d831161072d575b61071d818361110c565b810103126106b75751928e610533565b503d610713565b634e487b7160e01b8a526021825260248afd5b5080fd5b83823461074757816003193601126107475780516107889161076c826110da565b60058252640352e302e360dc1b6020830152519182918261114a565b0390f35b83823461074757816003193601126107475751908152602090f35b5090346103ba57816003193601126103ba578160209360ff926107c86110ae565b903582526000805160206115eb83398151915286528282206001600160a01b039091168252855220549151911615158152f35b83823461074757816003193601126107475760207f62e78cea01bee320cd4e420270b5ea74000d11b0c9f74754ebdbfc544b05a25891610839611282565b6108416114bd565b60008051602061160b833981519152805460ff1916600117905551338152a180f35b50806003193601126103ba576108776110c4565b926024908135906108866114bd565b61088e6114e8565b83519561089a876110da565b600887526108ba6020976734b73b32b9ba37b960c11b8982015282611518565b84516108c5816110da565b6006815265185b5bdd5b9d60d21b888201528315610aa757506108e6611193565b8084029084820403610a5e57670de0b6b3a7640000900486548101809111610a5e573410610a70576003546000198114610a5e5760010195866003558551946080860186811067ffffffffffffffff821117610a4c5787526001600160a01b03928316808752868a018681528789018681524265ffffffffffff1660608a019081528b885260068d528a882099518a546001600160a01b031916908816178a55915160018a015551919760020193919290916003841015610a3b57505084938385949385949360ff66ffffffffffff00879654925160081b1692169066ffffffffffffff191617179055600554164790828215610a32575bf115610a2757507f28eb86fd03c9bd96a8a83e4a46ab2ad257b70cea893d98ad6d482e96aa25fad08585928551908152a3600160008051602061162b8339815191525551908152f35b8351903d90823e3d90fd5b506108fc6109de565b634e487b7160e01b87526021905285fd5b50634e487b7160e01b84526041825283fd5b634e487b7160e01b8352601187528483fd5b505050606493601292519362461bcd60e51b855284015282015271496e73756666696369656e742066756e647360701b6044820152fd5b855163589956a560e11b8152908190610ac290828a0161114a565b0390fd5b83823461074757816003193601126107475760209060ff60008051602061160b833981519152541690519015158152f35b82818534610747576020366003190112610747578180809235610b18611282565b818115610b36575b3390f115610b2c575080f35b51903d90823e3d90fd5b506108fc610b20565b508234610490578060031936011261049057507f00000000000000000000000000000000000000000000000000000000000000006001600160a01b03163003610bab57602090517f360894a13ba1a3210667c828492db98dca3e2076cc3735a920a3ca505d382bbc8152f35b5163703e46dd60e11b8152fd5b50346103ba5760203660031901126103ba57813590610bd56114bd565b8184526006602052832080546001600160a01b03169290600290610bfa851515611206565b019081549060ff8216906003821015610c49575090610c1b60029215611242565b60ff19161790557fc0362da6f2ff36b382b34aec0814f6b3cdf89f5ef282a1d1f114d0c0b036d5968380a380f35b634e487b7160e01b875260219052602486fd5b50806003193601126103ba57610c706110c4565b90602493843567ffffffffffffffff811161074757366023820112156107475780850135610c9d8161112e565b94610caa8551968761110c565b81865260209182870193368a8383010111610f13578186928b8693018737880101526001600160a01b037f00000000000000000000000000000000000000000000000000000000000000008116308114908115610ee5575b50610ed557610d0f611282565b8116958615610e855785516352d1902d60e01b815283818a818b5afa869181610e52575b50610d4f575050505050505191634c9c8ce360e01b8352820152fd5b9088888894938c7f360894a13ba1a3210667c828492db98dca3e2076cc3735a920a3ca505d382bbc91828103610e3d5750853b15610e29575080546001600160a01b031916821790558451889392917fbc7cd75a20ee27fd9adebab32041f755214dbc6bffa90cc0225b39da2e5c2d3b8580a2825115610e0b5750506104059582915190845af4913d15610e01573d610df3610dea8261112e565b9251928361110c565b81528581943d92013e611587565b5060609250611587565b955095505050505034610e1d57505080f35b63b398979f60e01b8152fd5b8651634c9c8ce360e01b8152808501849052fd5b8751632a87526960e21b815280860191909152fd5b9091508481813d8311610e7e575b610e6a818361110c565b81010312610e7a57519038610d33565b8680fd5b503d610e60565b855162461bcd60e51b81528089018490526025818b01527f4e657720696d706c656d656e746174696f6e206d757374206265206120636f6e6044820152641d1c9858dd60da1b6064820152608490fd5b855163703e46dd60e11b81528890fd5b9050817f360894a13ba1a3210667c828492db98dca3e2076cc3735a920a3ca505d382bbc5416141538610d02565b8580fd5b838234610747578160031936011261074757602090610f34611193565b9051908152f35b5090346103ba57826003193601126103ba57610f55611282565b60008051602061160b8339815191529081549060ff821615610fa5575060ff19169055513381527f5db9ee0a495bf2e6ff9c91a7834c1ba4fdd244a5e8aa4e537bd38aeae4b073aa90602090a180f35b8351638dfc202b60e01b8152fd5b50829034610747578060031936011261074757610fce6110ae565b90336001600160a01b03831603610feb575061040591923561143a565b5163334bd91960e11b81528390fd5b50346103ba57806003193601126103ba57610405913561101d60016103e16110ae565b6113ad565b5090346103ba5760203660031901126103ba57816020936001923581526000805160206115eb83398151915285522001549051908152f35b849084346103ba5760203660031901126103ba573563ffffffff60e01b81168091036103ba5760209250637965db0b60e01b811490811561109d575b5015158152f35b6301ffc9a760e01b14905083611096565b602435906001600160a01b03821682036103b557565b600435906001600160a01b03821682036103b557565b6040810190811067ffffffffffffffff8211176110f657604052565b634e487b7160e01b600052604160045260246000fd5b90601f8019910116810190811067ffffffffffffffff8211176110f657604052565b67ffffffffffffffff81116110f657601f01601f191660200190565b6020808252825181830181905290939260005b82811061117f57505060409293506000838284010152601f8019910116010190565b81810186015184820160400152850161115d565b6000546040516325ca7a8760e11b815290602090829060049082906001600160a01b03165afa9081156111fa576000916111cb575090565b90506020813d6020116111f2575b816111e66020938361110c565b810103126103b5575190565b3d91506111d9565b6040513d6000823e3d90fd5b1561120d57565b60405162461bcd60e51b815260206004820152600d60248201526c24b73b30b634b21037b93232b960991b6044820152606490fd5b1561124957565b60405162461bcd60e51b81526020600482015260116024820152704f72646572206e6f742070656e64696e6760781b6044820152606490fd5b3360009081527fb7db2dd08fcb62d0c9e08c51941cae53c267786a0b75803fb7960902fc8ef97d602052604081205460ff16156112bc5750565b6044906040519063e2517d3f60e01b82523360048301526024820152fd5b806000526000805160206115eb83398151915260205260406000203360005260205260ff60406000205416156112bc5750565b6001600160a01b031660008181527fb7db2dd08fcb62d0c9e08c51941cae53c267786a0b75803fb7960902fc8ef97d60205260408120549091906000805160206115eb8339815191529060ff166113a8578280526020526040822081835260205260408220600160ff1982541617905533917f2f8788117e7eff1d82e926ec794901d17c78024a50270940304540a733656f0d8180a4600190565b505090565b906000918083526000805160206115eb83398151915280602052604084209260018060a01b03169283855260205260ff60408520541615600014611434578184526020526040832082845260205260408320600160ff198254161790557f2f8788117e7eff1d82e926ec794901d17c78024a50270940304540a733656f0d339380a4600190565b50505090565b906000918083526000805160206115eb83398151915280602052604084209260018060a01b03169283855260205260ff60408520541660001461143457818452602052604083208284526020526040832060ff1981541690557ff6391f5c32d9c69d2a47ea670b442974b53935d1edc7fd64eb21e047a839171b339380a4600190565b60ff60008051602061160b83398151915254166114d657565b60405163d93c066560e01b8152600490fd5b60008051602061162b83398151915260028154146115065760029055565b604051633ee5aeb560e01b8152600490fd5b6001600160a01b0316156115295750565b60405163eac0d38960e01b8152908190610ac2906004830161114a565b60ff7ff0c57e16840df040f15088dc2f81fe391c3923bec73e23a9662efc9c229c6a005460401c161561157557565b604051631afcd79f60e31b8152600490fd5b906115ae575080511561159c57602081519101fd5b60405163d6bda27560e01b8152600490fd5b815115806115e1575b6115bf575090565b604051639996b31560e01b81526001600160a01b039091166004820152602490fd5b50803b156115b756fe02dd7bc7dec4dceedda775e58dd541e08a116c6c53815c0bd028192f7b626800cd5ed15c6e187e77e9aee88184c21f4f2182ab5827cb3b7e07fbedcd63f033009b779b17422d0df92223018b32b4d1fa46e071723d6817e2486d003becc55f00a26469706673582212207bf77b46c490c1cecdf6d33a1cded6e59018e996c6b645a4d98c5e59ab229a9764736f6c63430008180033","linkReferences":{}},"methodIdentifiers":{"DEFAULT_ADMIN_ROLE()":"a217fddf","UPGRADE_INTERFACE_VERSION()":"ad3cb1cc","cancelOrder(uint256)":"514fcac7","completeOrder(uint256)":"b6adaaff","createOrder(address,uint256)":"6c16b545","emergencyWithdraw(uint256)":"5312ea8e","getOrder(uint256)":"d09ef241","getRoleAdmin(bytes32)":"248a9ca3","getTokenPrice()":"4b94f50e","grantRole(bytes32,address)":"2f2ff15d","hasRole(bytes32,address)":"91d14854","initialize(address,address,address,address)":"f8c8765e","pause()":"8456cb59","paused()":"5c975abb","proxiableUUID()":"52d1902d","renounceRole(bytes32,address)":"36568abe","revokeRole(bytes32,address)":"d547741f","supportsInterface(bytes4)":"01ffc9a7","unpause()":"3f4ba83a","upgradeToAndCall(address,bytes)":"4f1ef286"},"id":73}