{"abi":[{"type":"function","name":"DEFAULT_ADMIN_ROLE","inputs":[],"outputs":[{"name":"","type":"bytes32","internalType":"bytes32"}],"stateMutability":"view"},{"type":"function","name":"UPGRADE_INTERFACE_VERSION","inputs":[],"outputs":[{"name":"","type":"string","internalType":"string"}],"stateMutability":"view"},{"type":"function","name":"assetId","inputs":[],"outputs":[{"name":"","type":"bytes32","internalType":"bytes32"}],"stateMutability":"view"},{"type":"function","name":"assetOwner","inputs":[],"outputs":[{"name":"","type":"address","internalType":"address"}],"stateMutability":"view"},{"type":"function","name":"assetToken","inputs":[],"outputs":[{"name":"","type":"address","internalType":"address"}],"stateMutability":"view"},{"type":"function","name":"getRoleAdmin","inputs":[{"name":"role","type":"bytes32","internalType":"bytes32"}],"outputs":[{"name":"","type":"bytes32","internalType":"bytes32"}],"stateMutability":"view"},{"type":"function","name":"grantRole","inputs":[{"name":"role","type":"bytes32","internalType":"bytes32"},{"name":"account","type":"address","internalType":"address"}],"outputs":[],"stateMutability":"nonpayable"},{"type":"function","name":"hasRole","inputs":[{"name":"role","type":"bytes32","internalType":"bytes32"},{"name":"account","type":"address","internalType":"address"}],"outputs":[{"name":"","type":"bool","internalType":"bool"}],"stateMutability":"view"},{"type":"function","name":"initialize","inputs":[{"name":"admin_","type":"address","internalType":"address"},{"name":"spvContract_","type":"address","internalType":"address"},{"name":"spvId_","type":"bytes32","internalType":"bytes32"},{"name":"assetId_","type":"bytes32","internalType":"bytes32"},{"name":"assetOwner_","type":"address","internalType":"address"},{"name":"assetToken_","type":"address","internalType":"address"}],"outputs":[],"stateMutability":"nonpayable"},{"type":"function","name":"pause","inputs":[],"outputs":[],"stateMutability":"nonpayable"},{"type":"function","name":"paused","inputs":[],"outputs":[{"name":"","type":"bool","internalType":"bool"}],"stateMutability":"view"},{"type":"function","name":"proxiableUUID","inputs":[],"outputs":[{"name":"","type":"bytes32","internalType":"bytes32"}],"stateMutability":"view"},{"type":"function","name":"renounceRole","inputs":[{"name":"role","type":"bytes32","internalType":"bytes32"},{"name":"callerConfirmation","type":"address","internalType":"address"}],"outputs":[],"stateMutability":"nonpayable"},{"type":"function","name":"revokeRole","inputs":[{"name":"role","type":"bytes32","internalType":"bytes32"},{"name":"account","type":"address","internalType":"address"}],"outputs":[],"stateMutability":"nonpayable"},{"type":"function","name":"spvContract","inputs":[],"outputs":[{"name":"","type":"address","internalType":"address"}],"stateMutability":"view"},{"type":"function","name":"spvId","inputs":[],"outputs":[{"name":"","type":"bytes32","internalType":"bytes32"}],"stateMutability":"view"},{"type":"function","name":"supportsInterface","inputs":[{"name":"interfaceId","type":"bytes4","internalType":"bytes4"}],"outputs":[{"name":"","type":"bool","internalType":"bool"}],"stateMutability":"view"},{"type":"function","name":"transferTokens","inputs":[{"name":"from_","type":"address","internalType":"address"},{"name":"to_","type":"address","internalType":"address"},{"name":"amount_","type":"uint256","internalType":"uint256"}],"outputs":[],"stateMutability":"nonpayable"},{"type":"function","name":"unpause","inputs":[],"outputs":[],"stateMutability":"nonpayable"},{"type":"function","name":"upgradeToAndCall","inputs":[{"name":"newImplementation","type":"address","internalType":"address"},{"name":"data","type":"bytes","internalType":"bytes"}],"outputs":[],"stateMutability":"payable"},{"type":"event","name":"AssetManagerInitialized","inputs":[{"name":"spvContract","type":"address","indexed":true,"internalType":"address"},{"name":"spvId","type":"bytes32","indexed":true,"internalType":"bytes32"},{"name":"assetId","type":"bytes32","indexed":true,"internalType":"bytes32"},{"name":"assetOwner","type":"address","indexed":false,"internalType":"address"},{"name":"assetToken","type":"address","indexed":false,"internalType":"address"}],"anonymous":false},{"type":"event","name":"Initialized","inputs":[{"name":"version","type":"uint64","indexed":false,"internalType":"uint64"}],"anonymous":false},{"type":"event","name":"Paused","inputs":[{"name":"account","type":"address","indexed":false,"internalType":"address"}],"anonymous":false},{"type":"event","name":"RoleAdminChanged","inputs":[{"name":"role","type":"bytes32","indexed":true,"internalType":"bytes32"},{"name":"previousAdminRole","type":"bytes32","indexed":true,"internalType":"bytes32"},{"name":"newAdminRole","type":"bytes32","indexed":true,"internalType":"bytes32"}],"anonymous":false},{"type":"event","name":"RoleGranted","inputs":[{"name":"role","type":"bytes32","indexed":true,"internalType":"bytes32"},{"name":"account","type":"address","indexed":true,"internalType":"address"},{"name":"sender","type":"address","indexed":true,"internalType":"address"}],"anonymous":false},{"type":"event","name":"RoleRevoked","inputs":[{"name":"role","type":"bytes32","indexed":true,"internalType":"bytes32"},{"name":"account","type":"address","indexed":true,"internalType":"address"},{"name":"sender","type":"address","indexed":true,"internalType":"address"}],"anonymous":false},{"type":"event","name":"TokensTransferred","inputs":[{"name":"from","type":"address","indexed":true,"internalType":"address"},{"name":"to","type":"address","indexed":true,"internalType":"address"},{"name":"amount","type":"uint256","indexed":false,"internalType":"uint256"}],"anonymous":false},{"type":"event","name":"Unpaused","inputs":[{"name":"account","type":"address","indexed":false,"internalType":"address"}],"anonymous":false},{"type":"event","name":"Upgraded","inputs":[{"name":"implementation","type":"address","indexed":true,"internalType":"address"}],"anonymous":false},{"type":"error","name":"AccessControlBadConfirmation","inputs":[]},{"type":"error","name":"AccessControlUnauthorizedAccount","inputs":[{"name":"account","type":"address","internalType":"address"},{"name":"neededRole","type":"bytes32","internalType":"bytes32"}]},{"type":"error","name":"AddressEmptyCode","inputs":[{"name":"target","type":"address","internalType":"address"}]},{"type":"error","name":"ERC1967InvalidImplementation","inputs":[{"name":"implementation","type":"address","internalType":"address"}]},{"type":"error","name":"ERC1967NonPayable","inputs":[]},{"type":"error","name":"EnforcedPause","inputs":[]},{"type":"error","name":"ExpectedPause","inputs":[]},{"type":"error","name":"FailedCall","inputs":[]},{"type":"error","name":"InvalidAmount","inputs":[{"name":"parameter","type":"string","internalType":"string"}]},{"type":"error","name":"InvalidInitialization","inputs":[]},{"type":"error","name":"InvalidParameter","inputs":[{"name":"parameter","type":"string","internalType":"string"}]},{"type":"error","name":"NotInitializing","inputs":[]},{"type":"error","name":"ReentrancyGuardReentrantCall","inputs":[]},{"type":"error","name":"UUPSUnauthorizedCallContext","inputs":[]},{"type":"error","name":"UUPSUnsupportedProxiableUUID","inputs":[{"name":"slot","type":"bytes32","internalType":"bytes32"}]},{"type":"error","name":"ZeroAddress","inputs":[{"name":"parameter","type":"string","internalType":"string"}]}],"bytecode":{"object":"0x60a0806040523461002a57306080526113c89081610030823960805181818161098e0152610ab40152f35b600080fdfe608060408181526004908136101561001657600080fd5b600092833560e01c90816301ffc9a714610eb7575080630cf3c06714610e795780631083f76114610e31578063248a9ca314610df95780632f2ff15d14610dd157806336568abe14610d8a5780633f4ba83a14610d1257806344de240a14610cd45780634f1ef28614610a3a57806352cdad6e146109f257806352d1902d146109795780635c975abb146109485780637b5d8c121461058c5780638456cb591461052457806391d14854146104d05780639ac9940f14610488578063a217fddf1461046d578063a64b6e5f14610193578063ad3cb1cc1461014e5763d547741f1461010057600080fd5b3461014a578060031936011261014a5761014691356101416001610122610f0b565b938387526000805160206113538339815191526020528620015461104d565b6111ad565b5080f35b8280fd5b83823461018f578160031936011261018f57805161018b9161016f82610f3c565b60058252640352e302e360dc1b60208301525191829182610fac565b0390f35b5080fd5b50913461046a57606036600319011261046a576101ae610f26565b926101b7610f0b565b916044356101c3611283565b7f9b779b17422d0df92223018b32b4d1fa46e071723d6817e2486d003becc55f00600281541461045a57600281558351946101fd86610f3c565b8686526102186020966366726f6d60e01b8882015289611230565b61023a855161022681610f3c565b6002815261746f60f01b8882015282611230565b845161024581610f3c565b6006815265185b5bdd5b9d60d21b87820152831561043b57507fd362d15da21a9009dfa62e67cdc5df15176ceeef00ab3ff37713f7ecdf8d57de548551636eb1769f60e11b81526001600160a01b038a81168a83019081523060208201529281169a909290919089908290819003604001818e5afa87918161040c575b5061030a57875162461bcd60e51b8152808b018a9052601f60248201527f4d616e616765723a20616c6c6f77616e636520636865636b206661696c6564006044820152606490fd5b948099969a97949895106103c95790606485928b83875196879586946323b872dd60e01b865216809b85015216998a60248401528c60448401525af180156103bf57610381575b50906001957f1b89874203ff7f0bba87c969ada3f32fda22ed38a6706d35199d21280c7811b19251908152a35580f35b82818193943d83116103b8575b6103988183610f6e565b810103126103b45751801515036103b0579038610351565b8680fd5b8780fd5b503d61038e565b82513d8a823e3d90fd5b835162461bcd60e51b8152808701869052601f60248201527f4d616e616765723a20696e73756666696369656e7420616c6c6f77616e6365006044820152606490fd5b9091508981813d8311610434575b6104248183610f6e565b810103126103b4575190386102c2565b503d61041a565b855163589956a560e11b815290819061045690828b01610fac565b0390fd5b8351633ee5aeb560e01b81528690fd5b80fd5b83823461018f578160031936011261018f5751908152602090f35b83823461018f578160031936011261018f577fd362d15da21a9009dfa62e67cdc5df15176ceeef00ab3ff37713f7ecdf8d57dd5490516001600160a01b039091168152602090f35b50903461014a578160031936011261014a578160209360ff926104f1610f0b565b9035825260008051602061135383398151915286528282206001600160a01b039091168252855220549151911615158152f35b83823461018f578160031936011261018f5760207f62e78cea01bee320cd4e420270b5ea74000d11b0c9f74754ebdbfc544b05a25891610562610ff5565b61056a611283565b600080516020611373833981519152805460ff1916600117905551338152a180f35b50903461014a5760c036600319011261014a576105a7610f26565b916105b0610f0b565b6001600160a01b03939092906064359060443590608435878116918282036109445760a4359089821693848303610940577ff0c57e16840df040f15088dc2f81fe391c3923bec73e23a9662efc9c229c6a009a8b5460ff818c1c16159967ffffffffffffffff821680159081610938575b600114908161092e575b159081610925575b50610917575067ffffffffffffffff1981166001178d55896108f8575b5089519a61065d8c610f3c565b60058c5260209b8c81016430b236b4b760d91b905261067c9085611230565b8a5161068781610f3c565b600b81526a1cdc1d90dbdb9d1c9858dd60aa1b8d8201526106a89082611230565b8a516106b381610f3c565b60058152641cdc1d925960da1b8d8201526106ce908961125e565b8a516106d981610f3c565b6007815266185cdcd95d125960ca1b8d8201526106f6908a61125e565b8a5161070181610f3c565b600a81526930b9b9b2ba27bbb732b960b11b8d8201526107219087611230565b8a5161072c81610f3c565b600a81526930b9b9b2ba2a37b5b2b760b11b8d82015261074c9086611230565b6107546112ae565b61075c6112ae565b6107646112ae565b61076c6112ae565b6107746112ae565b60017f9b779b17422d0df92223018b32b4d1fa46e071723d6817e2486d003becc55f005516946bffffffffffffffffffffffff60a01b917fd362d15da21a9009dfa62e67cdc5df15176ceeef00ab3ff37713f7ecdf8d57da8784825416179055877fd362d15da21a9009dfa62e67cdc5df15176ceeef00ab3ff37713f7ecdf8d57db55887fd362d15da21a9009dfa62e67cdc5df15176ceeef00ab3ff37713f7ecdf8d57dc557fd362d15da21a9009dfa62e67cdc5df15176ceeef00ab3ff37713f7ecdf8d57dd90838254161790557fd362d15da21a9009dfa62e67cdc5df15176ceeef00ab3ff37713f7ecdf8d57de9182541617905561087490611080565b5086516001600160a01b039283168152911660208201527f2d24ed5d148138377d031f5751212502811f736ad380c30db3d7454fb1ce0da990604090a46108b9578380f35b7fc7f505b2f371ae2175ee4913f4499e1f2633a7b5936321eed1cdaeb6115181d29268ff00000000000000001981541690555160018152a13880808380f35b68ffffffffffffffffff191668010000000000000001178c5538610650565b8b5163f92ee8a960e01b8152fd5b90501538610633565b303b15915061062b565b8c9150610621565b8b80fd5b8980fd5b83823461018f578160031936011261018f5760209060ff600080516020611373833981519152541690519015158152f35b50823461046a578060031936011261046a57507f00000000000000000000000000000000000000000000000000000000000000006001600160a01b031630036109e557602090517f360894a13ba1a3210667c828492db98dca3e2076cc3735a920a3ca505d382bbc8152f35b5163703e46dd60e11b8152fd5b83823461018f578160031936011261018f577fd362d15da21a9009dfa62e67cdc5df15176ceeef00ab3ff37713f7ecdf8d57da5490516001600160a01b039091168152602090f35b508060031936011261014a57610a4e610f26565b90602493843567ffffffffffffffff811161018f573660238201121561018f5780850135610a7b81610f90565b94610a8885519687610f6e565b81865260209182870193368a8383010111610cd0578186928b8693018737880101526001600160a01b037f00000000000000000000000000000000000000000000000000000000000000008116308114908115610ca2575b50610c9257610aed610ff5565b8116958615610c5f5785516352d1902d60e01b815283818a818b5afa869181610c30575b50610b2d575050505050505191634c9c8ce360e01b8352820152fd5b9088888894938c7f360894a13ba1a3210667c828492db98dca3e2076cc3735a920a3ca505d382bbc91828103610c1b5750853b15610c07575080546001600160a01b031916821790558451889392917fbc7cd75a20ee27fd9adebab32041f755214dbc6bffa90cc0225b39da2e5c2d3b8580a2825115610be95750506101469582915190845af4913d15610bdf573d610bd1610bc882610f90565b92519283610f6e565b81528581943d92013e6112ef565b50606092506112ef565b955095505050505034610bfb57505080f35b63b398979f60e01b8152fd5b8651634c9c8ce360e01b8152808501849052fd5b8751632a87526960e21b815280860191909152fd5b9091508481813d8311610c58575b610c488183610f6e565b810103126103b057519038610b11565b503d610c3e565b855162461bcd60e51b8152808901849052600e818b01526d43616e6e6f74206265205a65726f60901b6044820152606490fd5b855163703e46dd60e11b81528890fd5b9050817f360894a13ba1a3210667c828492db98dca3e2076cc3735a920a3ca505d382bbc5416141538610ae0565b8580fd5b83823461018f578160031936011261018f576020907fd362d15da21a9009dfa62e67cdc5df15176ceeef00ab3ff37713f7ecdf8d57dc549051908152f35b50903461014a578260031936011261014a57610d2c610ff5565b6000805160206113738339815191529081549060ff821615610d7c575060ff19169055513381527f5db9ee0a495bf2e6ff9c91a7834c1ba4fdd244a5e8aa4e537bd38aeae4b073aa90602090a180f35b8351638dfc202b60e01b8152fd5b5082903461018f578060031936011261018f57610da5610f0b565b90336001600160a01b03831603610dc257506101469192356111ad565b5163334bd91960e11b81528390fd5b503461014a578060031936011261014a576101469135610df46001610122610f0b565b611120565b50903461014a57602036600319011261014a578160209360019235815260008051602061135383398151915285522001549051908152f35b83823461018f578160031936011261018f577fd362d15da21a9009dfa62e67cdc5df15176ceeef00ab3ff37713f7ecdf8d57de5490516001600160a01b039091168152602090f35b83823461018f578160031936011261018f576020907fd362d15da21a9009dfa62e67cdc5df15176ceeef00ab3ff37713f7ecdf8d57db549051908152f35b8490843461014a57602036600319011261014a573563ffffffff60e01b811680910361014a5760209250637965db0b60e01b8114908115610efa575b5015158152f35b6301ffc9a760e01b14905083610ef3565b602435906001600160a01b0382168203610f2157565b600080fd5b600435906001600160a01b0382168203610f2157565b6040810190811067ffffffffffffffff821117610f5857604052565b634e487b7160e01b600052604160045260246000fd5b90601f8019910116810190811067ffffffffffffffff821117610f5857604052565b67ffffffffffffffff8111610f5857601f01601f191660200190565b6020808252825181830181905290939260005b828110610fe157505060409293506000838284010152601f8019910116010190565b818101860151848201604001528501610fbf565b3360009081527fb7db2dd08fcb62d0c9e08c51941cae53c267786a0b75803fb7960902fc8ef97d602052604081205460ff161561102f5750565b6044906040519063e2517d3f60e01b82523360048301526024820152fd5b8060005260008051602061135383398151915260205260406000203360005260205260ff604060002054161561102f5750565b6001600160a01b031660008181527fb7db2dd08fcb62d0c9e08c51941cae53c267786a0b75803fb7960902fc8ef97d60205260408120549091906000805160206113538339815191529060ff1661111b578280526020526040822081835260205260408220600160ff1982541617905533917f2f8788117e7eff1d82e926ec794901d17c78024a50270940304540a733656f0d8180a4600190565b505090565b9060009180835260008051602061135383398151915280602052604084209260018060a01b03169283855260205260ff604085205416156000146111a7578184526020526040832082845260205260408320600160ff198254161790557f2f8788117e7eff1d82e926ec794901d17c78024a50270940304540a733656f0d339380a4600190565b50505090565b9060009180835260008051602061135383398151915280602052604084209260018060a01b03169283855260205260ff6040852054166000146111a757818452602052604083208284526020526040832060ff1981541690557ff6391f5c32d9c69d2a47ea670b442974b53935d1edc7fd64eb21e047a839171b339380a4600190565b6001600160a01b0316156112415750565b60405163eac0d38960e01b81529081906104569060048301610fac565b156112665750565b6040516305519d6f60e51b81529081906104569060048301610fac565b60ff600080516020611373833981519152541661129c57565b60405163d93c066560e01b8152600490fd5b60ff7ff0c57e16840df040f15088dc2f81fe391c3923bec73e23a9662efc9c229c6a005460401c16156112dd57565b604051631afcd79f60e31b8152600490fd5b90611316575080511561130457602081519101fd5b60405163d6bda27560e01b8152600490fd5b81511580611349575b611327575090565b604051639996b31560e01b81526001600160a01b039091166004820152602490fd5b50803b1561131f56fe02dd7bc7dec4dceedda775e58dd541e08a116c6c53815c0bd028192f7b626800cd5ed15c6e187e77e9aee88184c21f4f2182ab5827cb3b7e07fbedcd63f03300a26469706673582212200407f1f80a0409e67ebfde6eb4c37bd7a2f0e5739b4200792f831068d6549d1264736f6c63430008180033","linkReferences":{}},"methodIdentifiers":{"DEFAULT_ADMIN_ROLE()":"a217fddf","UPGRADE_INTERFACE_VERSION()":"ad3cb1cc","assetId()":"44de240a","assetOwner()":"9ac9940f","assetToken()":"1083f761","getRoleAdmin(bytes32)":"248a9ca3","grantRole(bytes32,address)":"2f2ff15d","hasRole(bytes32,address)":"91d14854","initialize(address,address,bytes32,bytes32,address,address)":"7b5d8c12","pause()":"8456cb59","paused()":"5c975abb","proxiableUUID()":"52d1902d","renounceRole(bytes32,address)":"36568abe","revokeRole(bytes32,address)":"d547741f","spvContract()":"52cdad6e","spvId()":"0cf3c067","supportsInterface(bytes4)":"01ffc9a7","transferTokens(address,address,uint256)":"a64b6e5f","unpause()":"3f4ba83a","upgradeToAndCall(address,bytes)":"4f1ef286"},"id":69}