{"abi":[{"type":"function","name":"DEFAULT_ADMIN_ROLE","inputs":[],"outputs":[{"name":"","type":"bytes32","internalType":"bytes32"}],"stateMutability":"view"},{"type":"function","name":"UPGRADE_INTERFACE_VERSION","inputs":[],"outputs":[{"name":"","type":"string","internalType":"string"}],"stateMutability":"view"},{"type":"function","name":"assetImpl","inputs":[],"outputs":[{"name":"","type":"address","internalType":"address"}],"stateMutability":"view"},{"type":"function","name":"assetManagerOf","inputs":[{"name":"asset","type":"address","internalType":"address"}],"outputs":[{"name":"","type":"address","internalType":"address"}],"stateMutability":"view"},{"type":"function","name":"assetMgrImpl","inputs":[],"outputs":[{"name":"","type":"address","internalType":"address"}],"stateMutability":"view"},{"type":"function","name":"assetsOfSPV","inputs":[{"name":"","type":"bytes32","internalType":"bytes32"},{"name":"","type":"uint256","internalType":"uint256"}],"outputs":[{"name":"","type":"address","internalType":"address"}],"stateMutability":"view"},{"type":"function","name":"executeDeploy","inputs":[{"name":"tokenPrice","type":"uint256","internalType":"uint256"},{"name":"identityRegistry","type":"address","internalType":"address"},{"name":"compliance","type":"address","internalType":"address"},{"name":"issuerRegistry","type":"address","internalType":"address"},{"name":"claimRegistry","type":"address","internalType":"address"},{"name":"spv","type":"address","internalType":"address"},{"name":"assetOwner","type":"address","internalType":"address"}],"outputs":[],"stateMutability":"nonpayable"},{"type":"function","name":"getAssetsOfSPV","inputs":[{"name":"spvIdHash","type":"bytes32","internalType":"bytes32"}],"outputs":[{"name":"","type":"address[]","internalType":"address[]"}],"stateMutability":"view"},{"type":"function","name":"getRoleAdmin","inputs":[{"name":"role","type":"bytes32","internalType":"bytes32"}],"outputs":[{"name":"","type":"bytes32","internalType":"bytes32"}],"stateMutability":"view"},{"type":"function","name":"grantRole","inputs":[{"name":"role","type":"bytes32","internalType":"bytes32"},{"name":"account","type":"address","internalType":"address"}],"outputs":[],"stateMutability":"nonpayable"},{"type":"function","name":"hasRole","inputs":[{"name":"role","type":"bytes32","internalType":"bytes32"},{"name":"account","type":"address","internalType":"address"}],"outputs":[{"name":"","type":"bool","internalType":"bool"}],"stateMutability":"view"},{"type":"function","name":"initialize","inputs":[{"name":"_registry","type":"address","internalType":"address"},{"name":"_asset","type":"address","internalType":"address"},{"name":"_assetMgr","type":"address","internalType":"address"},{"name":"_orderMgr","type":"address","internalType":"address"},{"name":"_admin","type":"address","internalType":"address"}],"outputs":[],"stateMutability":"nonpayable"},{"type":"function","name":"orderManagerOf","inputs":[{"name":"asset","type":"address","internalType":"address"}],"outputs":[{"name":"","type":"address","internalType":"address"}],"stateMutability":"view"},{"type":"function","name":"orderMgrImpl","inputs":[],"outputs":[{"name":"","type":"address","internalType":"address"}],"stateMutability":"view"},{"type":"function","name":"pause","inputs":[],"outputs":[],"stateMutability":"nonpayable"},{"type":"function","name":"paused","inputs":[],"outputs":[{"name":"","type":"bool","internalType":"bool"}],"stateMutability":"view"},{"type":"function","name":"prepareDeploy","inputs":[{"name":"spvId","type":"string","internalType":"string"},{"name":"name","type":"string","internalType":"string"},{"name":"symbol","type":"string","internalType":"string"},{"name":"decimals","type":"uint8","internalType":"uint8"},{"name":"maxSupply","type":"uint256","internalType":"uint256"},{"name":"assetId","type":"bytes32","internalType":"bytes32"},{"name":"metaCID","type":"bytes32","internalType":"bytes32"}],"outputs":[],"stateMutability":"nonpayable"},{"type":"function","name":"proxiableUUID","inputs":[],"outputs":[{"name":"","type":"bytes32","internalType":"bytes32"}],"stateMutability":"view"},{"type":"function","name":"registry","inputs":[],"outputs":[{"name":"","type":"address","internalType":"contract IProplexRegistry"}],"stateMutability":"view"},{"type":"function","name":"renounceRole","inputs":[{"name":"role","type":"bytes32","internalType":"bytes32"},{"name":"callerConfirmation","type":"address","internalType":"address"}],"outputs":[],"stateMutability":"nonpayable"},{"type":"function","name":"revokeRole","inputs":[{"name":"role","type":"bytes32","internalType":"bytes32"},{"name":"account","type":"address","internalType":"address"}],"outputs":[],"stateMutability":"nonpayable"},{"type":"function","name":"setImpl","inputs":[{"name":"what","type":"string","internalType":"string"},{"name":"impl","type":"address","internalType":"address"}],"outputs":[],"stateMutability":"nonpayable"},{"type":"function","name":"setSPVAddress","inputs":[{"name":"spvIdHash","type":"bytes32","internalType":"bytes32"},{"name":"spv","type":"address","internalType":"address"}],"outputs":[],"stateMutability":"nonpayable"},{"type":"function","name":"spvOfAsset","inputs":[{"name":"","type":"address","internalType":"address"}],"outputs":[{"name":"","type":"bytes32","internalType":"bytes32"}],"stateMutability":"view"},{"type":"function","name":"spvRegistry","inputs":[{"name":"","type":"bytes32","internalType":"bytes32"}],"outputs":[{"name":"","type":"address","internalType":"address"}],"stateMutability":"view"},{"type":"function","name":"supportsInterface","inputs":[{"name":"interfaceId","type":"bytes4","internalType":"bytes4"}],"outputs":[{"name":"","type":"bool","internalType":"bool"}],"stateMutability":"view"},{"type":"function","name":"unpause","inputs":[],"outputs":[],"stateMutability":"nonpayable"},{"type":"function","name":"upgradeToAndCall","inputs":[{"name":"newImplementation","type":"address","internalType":"address"},{"name":"data","type":"bytes","internalType":"bytes"}],"outputs":[],"stateMutability":"payable"},{"type":"event","name":"AssetSuiteDeployed","inputs":[{"name":"spvIdHash","type":"bytes32","indexed":true,"internalType":"bytes32"},{"name":"assetId","type":"bytes32","indexed":true,"internalType":"bytes32"},{"name":"asset","type":"address","indexed":true,"internalType":"address"},{"name":"assetManager","type":"address","indexed":false,"internalType":"address"},{"name":"orderManager","type":"address","indexed":false,"internalType":"address"}],"anonymous":false},{"type":"event","name":"ImplUpdated","inputs":[{"name":"what","type":"string","indexed":true,"internalType":"string"},{"name":"impl","type":"address","indexed":true,"internalType":"address"}],"anonymous":false},{"type":"event","name":"Initialized","inputs":[{"name":"version","type":"uint64","indexed":false,"internalType":"uint64"}],"anonymous":false},{"type":"event","name":"Paused","inputs":[{"name":"account","type":"address","indexed":false,"internalType":"address"}],"anonymous":false},{"type":"event","name":"RoleAdminChanged","inputs":[{"name":"role","type":"bytes32","indexed":true,"internalType":"bytes32"},{"name":"previousAdminRole","type":"bytes32","indexed":true,"internalType":"bytes32"},{"name":"newAdminRole","type":"bytes32","indexed":true,"internalType":"bytes32"}],"anonymous":false},{"type":"event","name":"RoleGranted","inputs":[{"name":"role","type":"bytes32","indexed":true,"internalType":"bytes32"},{"name":"account","type":"address","indexed":true,"internalType":"address"},{"name":"sender","type":"address","indexed":true,"internalType":"address"}],"anonymous":false},{"type":"event","name":"RoleRevoked","inputs":[{"name":"role","type":"bytes32","indexed":true,"internalType":"bytes32"},{"name":"account","type":"address","indexed":true,"internalType":"address"},{"name":"sender","type":"address","indexed":true,"internalType":"address"}],"anonymous":false},{"type":"event","name":"Unpaused","inputs":[{"name":"account","type":"address","indexed":false,"internalType":"address"}],"anonymous":false},{"type":"event","name":"Upgraded","inputs":[{"name":"implementation","type":"address","indexed":true,"internalType":"address"}],"anonymous":false},{"type":"error","name":"AccessControlBadConfirmation","inputs":[]},{"type":"error","name":"AccessControlUnauthorizedAccount","inputs":[{"name":"account","type":"address","internalType":"address"},{"name":"neededRole","type":"bytes32","internalType":"bytes32"}]},{"type":"error","name":"AddressEmptyCode","inputs":[{"name":"target","type":"address","internalType":"address"}]},{"type":"error","name":"BadOrder","inputs":[]},{"type":"error","name":"DeployFail","inputs":[]},{"type":"error","name":"ERC1967InvalidImplementation","inputs":[{"name":"implementation","type":"address","internalType":"address"}]},{"type":"error","name":"ERC1967NonPayable","inputs":[]},{"type":"error","name":"EmptyString","inputs":[]},{"type":"error","name":"EnforcedPause","inputs":[]},{"type":"error","name":"ExpectedPause","inputs":[]},{"type":"error","name":"FailedCall","inputs":[]},{"type":"error","name":"InvalidInitialization","inputs":[]},{"type":"error","name":"NotInitializing","inputs":[]},{"type":"error","name":"ReentrancyGuardReentrantCall","inputs":[]},{"type":"error","name":"SPVNotFound","inputs":[]},{"type":"error","name":"StringTooLong","inputs":[]},{"type":"error","name":"UUPSUnauthorizedCallContext","inputs":[]},{"type":"error","name":"UUPSUnsupportedProxiableUUID","inputs":[{"name":"slot","type":"bytes32","internalType":"bytes32"}]},{"type":"error","name":"ZeroAddress","inputs":[]}],"bytecode":{"object":"0x60a0806040523461002a57306080526123dc9081610030823960805181818161126e01526113300152f35b600080fdfe60808060405260043610156200001457600080fd5b60003560e01c90816301ffc9a714620019d65750806302bd056a14620019855780631459457a14620016b25780631ff1fcae1462001687578063248a9ca314620016485780632f2ff15d14620015f357806336568abe14620015a55780633f4ba83a14620015285780634f1ef28614620012d957806352d1902d14620012595780635c975abb146200122657806360d8c5ba14620011fb5780637b10399914620011d05780638456cb5914620011625780638993ce761462001124578063917432f714620010f957806391d14854146200109a57806392f8784c1462000ccc578063a217fddf1462000cae578063a22e31491462000c57578063a9f7e5461462000ab4578063ad3cb1cc1462000a64578063bcb2fac61462000a2e578063c41802fc146200030a578063cd6bdd7a14620002cb578063d547741f1462000274578063d94ca43114620001b45763f9a53e74146200017057600080fd5b34620001af576020366003190112620001af5760206001600160a01b03806200019862001a45565b16600052600f825260406000205416604051908152f35b600080fd5b34620001af57602080600319360112620001af5760043560005260048152604060002060405190818382549182815201908192600052846000209060005b86828210620002565786866200020b8288038362001adb565b604051928392818401908285525180915260408401929160005b8281106200023557505050500390f35b83516001600160a01b03168552869550938101939281019260010162000225565b83546001600160a01b031685529093019260019283019201620001f2565b34620001af576040366003190112620001af57620002c96004356200029862001a2e565b908060005260008051602062002367833981519152602052620002c360016040600020015462001dd9565b62001e0e565b005b34620001af576020366003190112620001af5760206001600160a01b0380620002f362001a45565b16600052600e825260406000205416604051908152f35b34620001af5760e0366003190112620001af576200032762001a2e565b6200033162001a5c565b6200033b62001a73565b916200034662001a8a565b9260a4356001600160a01b0381169003620001af5760c435926001600160a01b0384168403620001af576200037a62001e93565b60405194620003898662001aa1565b60075486526008546020870152604051600954816000620003aa8362001bf9565b808352926001811690811562000a0d5750600114620009b9575b620003d29250038262001adb565b6040870152604051600081600a5491620003ec8362001bf9565b808352926001811690811562000998575060011462000944575b620004149250038262001adb565b606087015260ff600b54166080870152600c5460a0870152600d5460c0870152602086015115620009325760a4356001600160a01b03161562000920576200055d93866200055792620004ee956200049e604051620004738162001abe565b60148152732232b83637bcb4b733903ab73232b91029a82b1d60611b602082015260a4359062001ec0565b60018060a01b03600154169560408401519460608501516200050160a060ff608089015116970151916040519b8c9963200a56f560e21b60208c015261014060248c01526101648b019062001bb7565b8981036023190160448b01529062001bb7565b606488019690965260848701526001600160a01b0390811660a487015290811660c486015290811660e4850152908116610104840152871661012483015260043561014483015203601f19810184528362001adb565b62001f27565b916200059383604051620005718162001abe565b600f81526e20b9b9b2ba103232b83637bcb2b21d60891b602082015262001ec0565b6002548151602080840151604051633daec60960e11b92810192909252336024830181905260a480356001600160a01b039081166044860152606485019590955260848401929092529082015294811660c480870182905286529467ffffffffffffffff9261010082019216838311828410176200090a57620006199260405262001f27565b62000655816040516200062c8162001abe565b601681527520b9b9b2ba26b0b730b3b2b9103232b83637bcb2b21d60511b602082015262001ec0565b600354604051637c643b2f60e11b6020820152602481018790526001600160a01b0392831660448201819052958316606482015233608480830191909152815260c0810193909291909116908311828410176200090a57620006ba9260405262001f27565b91620006f783604051620006ce8162001abe565b601681527527b93232b926b0b730b3b2b9103232b83637bcb2b21d60511b602082015262001ec0565b81516000526004602052604060002090815490680100000000000000008210156200090a5762000751827fd1e01b2fc5b3f54592b283f7e108d2e290a9471ac0834916cd373fe33da42d3194600160409501815562001b88565b81549060031b9088821b9160018060a01b03901b191617905583518660005260056020528260002055600e60205281600020946bffffffffffffffffffffffff60a01b958287825416179055600f602052826000209060018060a01b03168096825416179055602084519401519482519182526020820152a460006007556000600855620007e160095462001bf9565b806200088b575b50620007f6600a5462001bf9565b8062000811575b6000600b556000600c556000600d55600080f35b601f81116001146200082b57506000600a555b80620007fd565b601f60008051602062002327833981519152910160051c81017fc65a7bb8d6351c1cf70c95a316cc6a92839c986682d98bc35f958f4883f9d2a95b8181106200087e57505060009081600a555562000824565b6000815560010162000866565b601f8111600114620008a5575060006009555b80620007e8565b6009600052601f60008051602062002347833981519152910160051c81017f6e1540171b6c0c960b71a7020d9f60077f6af931a8bbf590da0223dacf75c7b05b818110620008fd57505060009081600955556200089e565b60008155600101620008e5565b634e487b7160e01b600052604160045260246000fd5b604051634132ccaf60e11b8152600490fd5b604051631318586d60e31b8152600490fd5b5090600a60005260008051602062002327833981519152906000915b8183106200097b575050906020620004149282010162000406565b602091935080600191548385880101520191019091839262000960565b602092506200041494915060ff191682840152151560051b82010162000406565b5090600960005260008051602062002347833981519152906000915b818310620009f0575050906020620003d292820101620003c4565b6020919350806001915483858801015201910190918392620009d5565b60209250620003d294915060ff191682840152151560051b820101620003c4565b34620001af576020366003190112620001af576004356000526006602052602060018060a01b0360406000205416604051908152f35b34620001af576000366003190112620001af5762000ab060405162000a898162001abe565b60058152640352e302e360dc1b602082015260405191829160208352602083019062001bb7565b0390f35b34620001af576040366003190112620001af5760043567ffffffffffffffff8111620001af5762000aea90369060040162001b57565b6001600160a01b0362000afc62001a2e565b1691821562000c455762000b1236838362001b1b565b602081519101207f0bd4060688a1800ae986e4840aebc924bb40b5bf44de4583df2257220b54b77c811460001462000b915750600180546001600160a01b031916841790555b8160405192839283378101600081520390207f9a4b883373180089cc081c644a561eba93e149b8967d1218caa52e26849aaa21600080a3005b7f9876b9ac32fe865c42ca070066974e5347f50805e4f6e28080e88c3124055708810362000bd25750600280546001600160a01b0319168417905562000b58565b7fe9003f17b02e703e76d7bc5356a8d00e3dbd842a4658bdca8eb4b7c74c55165a0362000c1157600380546001600160a01b0319168417905562000b58565b60405162461bcd60e51b815260206004820152600c60248201526b556e6b6e6f776e207479706560a01b6044820152606490fd5b60405163d92e233d60e01b8152600490fd5b34620001af576040366003190112620001af57602435600435600052600460205260406000208054821015620001af5760209162000c959162001b88565b905460405160039290921b1c6001600160a01b03168152f35b34620001af576000366003190112620001af57602060405160008152f35b34620001af5760e0366003190112620001af5767ffffffffffffffff600435818111620001af5762000d0390369060040162001b57565b602492919235828111620001af5762000d2190369060040162001b57565b919092604435818111620001af5762000d3f90369060040162001b57565b90956064359360ff8516809503620001af5762000d5b62001e93565b801562001088576101008082116200107657861562001088578087116200107657831562001088578311620010765762000ddc9162000d9c91369162001b1b565b9662000dcc88516020809a0120976040519862000db98a62001aa1565b89528989019760a4358952369162001b1b565b9260408801938452369162001b1b565b90606086019182526080860193845260a0860194608435865260c087019660c43588525160075551600855519081518381116200090a5762000e2060095462001bf9565b92601f9384811162001037575b50889084831160011462000fbd5762000e6092916000918362000fb1575b50508160011b916000199060031b1c19161790565b6009555b519586519283116200090a5762000e7d600a5462001bf9565b82811162000f67575b508091831160011462000ee75750908062000ebd9260ff95969760009262000edb5750508160011b916000199060031b1c19161790565b600a555b511660ff19600b541617600b5551600c5551600d55600080f35b01519050878062000e4b565b90601f19831696600a60005260008051602062002327833981519152926000905b89821062000f4e5750509083929160019460ff9798991062000f34575b505050811b01600a5562000ec1565b015160001960f88460031b161c1916905586808062000f25565b8060018596829496860151815501950193019062000f08565b62000fa090600a600052600080516020620023278339815191528480870160051c82019285881062000fa7575b0160051c019062001c36565b8762000e86565b9250819262000f94565b015190508a8062000e4b565b90601f198316916009600052600080516020620023478339815191529260005b8c8282106200102057505090846001959493921062001006575b505050811b0160095562000e64565b015160001960f88460031b161c1916905589808062000ff7565b600185968293968601518155019501930162000fdd565b6200106f906009600052600080516020620023478339815191528680860160051c8201928d871062000fa7570160051c019062001c36565b8962000e2d565b604051631623655b60e31b8152600490fd5b60405163ecd7b0d160e01b8152600490fd5b34620001af576040366003190112620001af57620010b762001a2e565b6004356000526000805160206200236783398151915260205260406000209060018060a01b0316600052602052602060ff604060002054166040519015158152f35b34620001af576000366003190112620001af576003546040516001600160a01b039091168152602090f35b34620001af576020366003190112620001af576001600160a01b036200114962001a45565b1660005260056020526020604060002054604051908152f35b34620001af576000366003190112620001af576200117f62001d80565b6200118962001e93565b60008051602062002387833981519152600160ff198254161790557f62e78cea01bee320cd4e420270b5ea74000d11b0c9f74754ebdbfc544b05a2586020604051338152a1005b34620001af576000366003190112620001af576000546040516001600160a01b039091168152602090f35b34620001af576000366003190112620001af576002546040516001600160a01b039091168152602090f35b34620001af576000366003190112620001af57602060ff6000805160206200238783398151915254166040519015158152f35b34620001af576000366003190112620001af577f00000000000000000000000000000000000000000000000000000000000000006001600160a01b03163003620012c75760206040517f360894a13ba1a3210667c828492db98dca3e2076cc3735a920a3ca505d382bbc8152f35b60405163703e46dd60e11b8152600490fd5b6040366003190112620001af57620012f062001a45565b60243567ffffffffffffffff8111620001af5736602382011215620001af576200132590369060248160040135910162001b1b565b906001600160a01b037f00000000000000000000000000000000000000000000000000000000000000008116308114908115620014f9575b50620012c7576200136d62001d80565b6040516352d1902d60e01b8152908216916020918281600481875afa60009181620014c4575b50620013b257604051634c9c8ce360e01b815260048101859052602490fd5b9284937f360894a13ba1a3210667c828492db98dca3e2076cc3735a920a3ca505d382bbc90818103620014ac5750823b15620014935780546001600160a01b03191682179055604051907fbc7cd75a20ee27fd9adebab32041f755214dbc6bffa90cc0225b39da2e5c2d3b600080a28351156200147857506000808484620002c996519101845af4903d156200146e573d6200144e8162001afe565b906200145e604051928362001adb565b8152600081943d92013e62001feb565b6060925062001feb565b92505050346200148457005b63b398979f60e01b8152600490fd5b604051634c9c8ce360e01b815260048101839052602490fd5b60249060405190632a87526960e21b82526004820152fd5b9091508381813d8311620014f1575b620014df818362001adb565b81010312620001af5751908662001393565b503d620014d3565b9050817f360894a13ba1a3210667c828492db98dca3e2076cc3735a920a3ca505d382bbc54161415846200135d565b34620001af576000366003190112620001af576200154562001d80565b60008051602062002387833981519152805460ff811615620015935760ff191690557f5db9ee0a495bf2e6ff9c91a7834c1ba4fdd244a5e8aa4e537bd38aeae4b073aa6020604051338152a1005b604051638dfc202b60e01b8152600490fd5b34620001af576040366003190112620001af57620015c262001a2e565b336001600160a01b03821603620015e157620002c99060043562001e0e565b60405163334bd91960e11b8152600490fd5b34620001af576040366003190112620001af57620002c96004356200161762001a2e565b9080600052600080516020620023678339815191526020526200164260016040600020015462001dd9565b62001cf1565b34620001af576020366003190112620001af57600435600052600080516020620023678339815191526020526020600160406000200154604051908152f35b34620001af576000366003190112620001af576001546040516001600160a01b039091168152602090f35b34620001af5760a0366003190112620001af57620016cf62001a45565b620016d962001a2e565b620016e362001a5c565b620016ed62001a73565b90620016f862001a8a565b7ff0c57e16840df040f15088dc2f81fe391c3923bec73e23a9662efc9c229c6a009384549560ff8760401c16159467ffffffffffffffff8816978815806200197d575b6001809a14908162001972575b15908162001968575b50620019565767ffffffffffffffff198116891788558662001936575b506200177962001fa9565b6200178362001fa9565b6200178d62001fa9565b6200179762001fa9565b620017a162001fa9565b7f9b779b17422d0df92223018b32b4d1fa46e071723d6817e2486d003becc55f008890556001600160a01b0391821692831580156200192b575b801562001920575b801562001915575b80156200190a575b62000c45576200183c958380926bffffffffffffffffffffffff60a01b9687600054161760005516858b5416178a55168360025416176002551690600354161760035562001c4f565b506000806040516200184e8162001abe565b601881527f4173736574466163746f727920696e697469616c697a656400000000000000006020820152604051620018b481620018a5602082019463104c13eb60e21b865260206024840152604483019062001bb7565b03601f19810183528262001adb565b51906a636f6e736f6c652e6c6f675afa50620018cc57005b805468ff0000000000000000191690556040519081527fc7f505b2f371ae2175ee4913f4499e1f2633a7b5936321eed1cdaeb6115181d290602090a1005b5082851615620017f3565b5082821615620017eb565b5082861615620017e3565b5082811615620017db565b68ffffffffffffffffff191668010000000000000001178755886200176e565b60405163f92ee8a960e01b8152600490fd5b9050158a62001751565b303b15915062001748565b50866200173b565b34620001af576040366003190112620001af576001600160a01b03620019aa62001a2e565b16801562000c4557600435600090815260066020526040902080546001600160a01b0319169091179055005b34620001af576020366003190112620001af576004359063ffffffff60e01b8216809203620001af57602091637965db0b60e01b811490811562001a1c575b5015158152f35b6301ffc9a760e01b1490508362001a15565b602435906001600160a01b0382168203620001af57565b600435906001600160a01b0382168203620001af57565b604435906001600160a01b0382168203620001af57565b606435906001600160a01b0382168203620001af57565b608435906001600160a01b0382168203620001af57565b60e0810190811067ffffffffffffffff8211176200090a57604052565b6040810190811067ffffffffffffffff8211176200090a57604052565b90601f8019910116810190811067ffffffffffffffff8211176200090a57604052565b67ffffffffffffffff81116200090a57601f01601f191660200190565b92919262001b298262001afe565b9162001b39604051938462001adb565b829481845281830111620001af578281602093846000960137010152565b9181601f84011215620001af5782359167ffffffffffffffff8311620001af5760208381860195010111620001af57565b805482101562001ba15760005260206000200190600090565b634e487b7160e01b600052603260045260246000fd5b919082519283825260005b84811062001be4575050826000602080949584010152601f8019910116010190565b60208183018101518483018201520162001bc2565b90600182811c9216801562001c2b575b602083101462001c1557565b634e487b7160e01b600052602260045260246000fd5b91607f169162001c09565b81811062001c42575050565b6000815560010162001c36565b6001600160a01b031660008181527fb7db2dd08fcb62d0c9e08c51941cae53c267786a0b75803fb7960902fc8ef97d6020526040812054909190600080516020620023678339815191529060ff1662001cec578280526020526040822081835260205260408220600160ff1982541617905533917f2f8788117e7eff1d82e926ec794901d17c78024a50270940304540a733656f0d8180a4600190565b505090565b906000918083526000805160206200236783398151915280602052604084209260018060a01b03169283855260205260ff6040852054161560001462001d7a578184526020526040832082845260205260408320600160ff198254161790557f2f8788117e7eff1d82e926ec794901d17c78024a50270940304540a733656f0d339380a4600190565b50505090565b3360009081527fb7db2dd08fcb62d0c9e08c51941cae53c267786a0b75803fb7960902fc8ef97d602052604081205460ff161562001dbb5750565b6044906040519063e2517d3f60e01b82523360048301526024820152fd5b806000526000805160206200236783398151915260205260406000203360005260205260ff604060002054161562001dbb5750565b906000918083526000805160206200236783398151915280602052604084209260018060a01b03169283855260205260ff60408520541660001462001d7a57818452602052604083208284526020526040832060ff1981541690557ff6391f5c32d9c69d2a47ea670b442974b53935d1edc7fd64eb21e047a839171b339380a4600190565b60ff60008051602062002387833981519152541662001eae57565b60405163d93c066560e01b8152600490fd5b60009190829162001f14604051809262001ef4602083019563319af33360e01b875260406024850152606484019062001bb7565b6001600160a01b0391909116604483015203601f19810183528262001adb565b51906a636f6e736f6c652e6c6f675afa50565b90604051906102d3908183019083821067ffffffffffffffff8311176200090a57604062001f739285946200205486396001600160a01b03968716815260208101829052019062001bb7565b03906000f0801562001f9d571690813b1562001f8b57565b604051637b8b46a760e01b8152600490fd5b6040513d6000823e3d90fd5b60ff7ff0c57e16840df040f15088dc2f81fe391c3923bec73e23a9662efc9c229c6a005460401c161562001fd957565b604051631afcd79f60e31b8152600490fd5b906200201457508051156200200257602081519101fd5b60405163d6bda27560e01b8152600490fd5b8151158062002049575b62002027575090565b604051639996b31560e01b81526001600160a01b039091166004820152602490fd5b50803b156200201e56fe60806040526102d38038038061001481610194565b92833981019060408183031261018f5780516001600160a01b03811680820361018f5760208381015190936001600160401b03821161018f570184601f8201121561018f5780519061006d610068836101cf565b610194565b9582875285838301011161018f57849060005b83811061017b57505060009186010152813b15610163577f360894a13ba1a3210667c828492db98dca3e2076cc3735a920a3ca505d382bbc80546001600160a01b03191682179055604051907fbc7cd75a20ee27fd9adebab32041f755214dbc6bffa90cc0225b39da2e5c2d3b600080a28351156101455750600080848461012c96519101845af4903d1561013c573d61011c610068826101cf565b908152600081943d92013e6101ea565b505b6040516085908161024e8239f35b606092506101ea565b9250505034610154575061012e565b63b398979f60e01b8152600490fd5b60249060405190634c9c8ce360e01b82526004820152fd5b818101830151888201840152869201610080565b600080fd5b6040519190601f01601f191682016001600160401b038111838210176101b957604052565b634e487b7160e01b600052604160045260246000fd5b6001600160401b0381116101b957601f01601f191660200190565b9061021157508051156101ff57602081519101fd5b60405163d6bda27560e01b8152600490fd5b81511580610244575b610222575090565b604051639996b31560e01b81526001600160a01b039091166004820152602490fd5b50803b1561021a56fe60806040527f360894a13ba1a3210667c828492db98dca3e2076cc3735a920a3ca505d382bbc54600090819081906001600160a01b0316368280378136915af43d82803e15604b573d90f35b3d90fdfea2646970667358221220e4d64e6498b7b62a781718dbd08d84870f16299808199290df76780dd361a7d864736f6c63430008180033c65a7bb8d6351c1cf70c95a316cc6a92839c986682d98bc35f958f4883f9d2a86e1540171b6c0c960b71a7020d9f60077f6af931a8bbf590da0223dacf75c7af02dd7bc7dec4dceedda775e58dd541e08a116c6c53815c0bd028192f7b626800cd5ed15c6e187e77e9aee88184c21f4f2182ab5827cb3b7e07fbedcd63f03300a2646970667358221220f8e39e536b6e570be2e34b84377722e738bd4adde259536eaabf01c52081757164736f6c63430008180033","linkReferences":{}},"methodIdentifiers":{"DEFAULT_ADMIN_ROLE()":"a217fddf","UPGRADE_INTERFACE_VERSION()":"ad3cb1cc","assetImpl()":"1ff1fcae","assetManagerOf(address)":"cd6bdd7a","assetMgrImpl()":"60d8c5ba","assetsOfSPV(bytes32,uint256)":"a22e3149","executeDeploy(uint256,address,address,address,address,address,address)":"c41802fc","getAssetsOfSPV(bytes32)":"d94ca431","getRoleAdmin(bytes32)":"248a9ca3","grantRole(bytes32,address)":"2f2ff15d","hasRole(bytes32,address)":"91d14854","initialize(address,address,address,address,address)":"1459457a","orderManagerOf(address)":"f9a53e74","orderMgrImpl()":"917432f7","pause()":"8456cb59","paused()":"5c975abb","prepareDeploy(string,string,string,uint8,uint256,bytes32,bytes32)":"92f8784c","proxiableUUID()":"52d1902d","registry()":"7b103999","renounceRole(bytes32,address)":"36568abe","revokeRole(bytes32,address)":"d547741f","setImpl(string,address)":"a9f7e546","setSPVAddress(bytes32,address)":"02bd056a","spvOfAsset(address)":"8993ce76","spvRegistry(bytes32)":"bcb2fac6","supportsInterface(bytes4)":"01ffc9a7","unpause()":"3f4ba83a","upgradeToAndCall(address,bytes)":"4f1ef286"},"id":70}